{
  "_format": "hh-sol-artifact-1",
  "contractName": "CrowdfundingFactory",
  "sourceName": "contracts/CrowdfundingFactory.sol",
  "abi": [
    {
      "inputs": [],
      "stateMutability": "nonpayable",
      "type": "constructor"
    },
    {
      "inputs": [
        {
          "internalType": "uint256",
          "name": "",
          "type": "uint256"
        }
      ],
      "name": "campaigns",
      "outputs": [
        {
          "internalType": "address",
          "name": "campaignAddress",
          "type": "address"
        },
        {
          "internalType": "address",
          "name": "owner",
          "type": "address"
        },
        {
          "internalType": "string",
          "name": "name",
          "type": "string"
        },
        {
          "internalType": "uint256",
          "name": "creationTime",
          "type": "uint256"
        }
      ],
      "stateMutability": "view",
      "type": "function"
    },
    {
      "inputs": [
        {
          "internalType": "string",
          "name": "_name",
          "type": "string"
        },
        {
          "internalType": "string",
          "name": "_description",
          "type": "string"
        },
        {
          "internalType": "uint256",
          "name": "_goal",
          "type": "uint256"
        }
      ],
      "name": "createCampaign",
      "outputs": [],
      "stateMutability": "nonpayable",
      "type": "function"
    },
    {
      "inputs": [],
      "name": "getAllCampaigns",
      "outputs": [
        {
          "components": [
            {
              "internalType": "address",
              "name": "campaignAddress",
              "type": "address"
            },
            {
              "internalType": "address",
              "name": "owner",
              "type": "address"
            },
            {
              "internalType": "string",
              "name": "name",
              "type": "string"
            },
            {
              "internalType": "uint256",
              "name": "creationTime",
              "type": "uint256"
            }
          ],
          "internalType": "struct CrowdfundingFactory.Campaign[]",
          "name": "",
          "type": "tuple[]"
        }
      ],
      "stateMutability": "view",
      "type": "function"
    },
    {
      "inputs": [
        {
          "internalType": "address",
          "name": "_user",
          "type": "address"
        }
      ],
      "name": "getUserCampaigns",
      "outputs": [
        {
          "components": [
            {
              "internalType": "address",
              "name": "campaignAddress",
              "type": "address"
            },
            {
              "internalType": "address",
              "name": "owner",
              "type": "address"
            },
            {
              "internalType": "string",
              "name": "name",
              "type": "string"
            },
            {
              "internalType": "uint256",
              "name": "creationTime",
              "type": "uint256"
            }
          ],
          "internalType": "struct CrowdfundingFactory.Campaign[]",
          "name": "",
          "type": "tuple[]"
        }
      ],
      "stateMutability": "view",
      "type": "function"
    },
    {
      "inputs": [],
      "name": "owner",
      "outputs": [
        {
          "internalType": "address",
          "name": "",
          "type": "address"
        }
      ],
      "stateMutability": "view",
      "type": "function"
    },
    {
      "inputs": [],
      "name": "paused",
      "outputs": [
        {
          "internalType": "bool",
          "name": "",
          "type": "bool"
        }
      ],
      "stateMutability": "view",
      "type": "function"
    },
    {
      "inputs": [],
      "name": "togglePause",
      "outputs": [],
      "stateMutability": "nonpayable",
      "type": "function"
    },
    {
      "inputs": [
        {
          "internalType": "address",
          "name": "",
          "type": "address"
        },
        {
          "internalType": "uint256",
          "name": "",
          "type": "uint256"
        }
      ],
      "name": "userCampaigns",
      "outputs": [
        {
          "internalType": "address",
          "name": "campaignAddress",
          "type": "address"
        },
        {
          "internalType": "address",
          "name": "owner",
          "type": "address"
        },
        {
          "internalType": "string",
          "name": "name",
          "type": "string"
        },
        {
          "internalType": "uint256",
          "name": "creationTime",
          "type": "uint256"
        }
      ],
      "stateMutability": "view",
      "type": "function"
    }
  ],
  "bytecode": "0x608060405234801561001057600080fd5b50600080546001600160a01b03191633179055612aff806100326000396000f3fe60806040523480156200001157600080fd5b5060043610620000825760003560e01c8063141961bc146200008757806319ac74bd14620000b95780635c975abb14620000d057806386cdf60414620000f65780638da5cb5b146200010f578063a1e5084c146200013c578063c4ae31681462000153578063ffa56a57146200015f575b600080fd5b6200009e6200009836600462000796565b62000176565b604051620000b09493929190620007f8565b60405180910390f35b6200009e620000ca36600462000854565b62000251565b600054620000e590600160a01b900460ff1681565b6040519015158152602001620000b0565b62000100620002a9565b604051620000b0919062000881565b60005462000123906001600160a01b031681565b6040516001600160a01b039091168152602001620000b0565b620001006200014d3660046200091f565b620003d1565b6200015d6200050f565b005b6200015d62000170366004620009ef565b6200057d565b600181815481106200018757600080fd5b60009182526020909120600490910201805460018201546002830180546001600160a01b039384169550929091169291620001c29062000a63565b80601f0160208091040260200160405190810160405280929190818152602001828054620001f09062000a63565b8015620002415780601f10620002155761010080835404028352916020019162000241565b820191906000526020600020905b8154815290600101906020018083116200022357829003601f168201915b5050505050908060030154905084565b600260205281600052604060002081815481106200026e57600080fd5b60009182526020909120600490910201805460018201546002830180546001600160a01b039384169650919092169350620001c29062000a63565b60606001805480602002602001604051908101604052809291908181526020016000905b82821015620003c8576000848152602090819020604080516080810182526004860290920180546001600160a01b0390811684526001820154169383019390935260028301805492939291840191620003269062000a63565b80601f0160208091040260200160405190810160405280929190818152602001828054620003549062000a63565b8015620003a55780601f106200037957610100808354040283529160200191620003a5565b820191906000526020600020905b8154815290600101906020018083116200038757829003601f168201915b5050505050815260200160038201548152505081526020019060010190620002cd565b50505050905090565b6001600160a01b0381166000908152600260209081526040808320805482518185028101850190935280835260609492939192909184015b8282101562000504576000848152602090819020604080516080810182526004860290920180546001600160a01b0390811684526001820154169383019390935260028301805492939291840191620004629062000a63565b80601f0160208091040260200160405190810160405280929190818152602001828054620004909062000a63565b8015620004e15780601f10620004b557610100808354040283529160200191620004e1565b820191906000526020600020905b815481529060010190602001808311620004c357829003601f168201915b505050505081526020016003820154815250508152602001906001019062000409565b505050509050919050565b6000546001600160a01b031633146200055c5760405162461bcd60e51b815260206004820152600a6024820152692737ba1037bbb732b91760b11b60448201526064015b60405180910390fd5b6000805460ff60a01b198116600160a01b9182900460ff1615909102179055565b600054600160a01b900460ff1615620005ce5760405162461bcd60e51b81526020600482015260126024820152712330b1ba37b93c9034b9903830bab9b2b21760711b604482015260640162000553565b600033848484604051620005e29062000788565b620005f1949392919062000a9f565b604051809103906000f0801580156200060e573d6000803e3d6000fd5b50604080516080810182526001600160a01b0380841682523360208301908152928201888152426060840152600180548082018255600091909152835160049091027fb10e2d527612073b26eecdfd717e6a320cf44b4afac2b0732d9fcbe2b7fa0cf6810180549285166001600160a01b031993841617815595517fb10e2d527612073b26eecdfd717e6a320cf44b4afac2b0732d9fcbe2b7fa0cf782018054919095169216919091179092555193945084939192839290917fb10e2d527612073b26eecdfd717e6a320cf44b4afac2b0732d9fcbe2b7fa0cf80190620006f6908262000b3e565b506060919091015160039091015533600090815260026020818152604080842080546001808201835591865294839020865160049096020180546001600160a01b03199081166001600160a01b03978816178255938701519181018054909416919095161790915583015183929182019062000773908262000b3e565b50606082015181600301555050505050505050565b611ebe8062000c0c83390190565b600060208284031215620007a957600080fd5b5035919050565b6000815180845260005b81811015620007d857602081850181015186830182015201620007ba565b506000602082860101526020601f19601f83011685010191505092915050565b6001600160a01b038581168252841660208201526080604082018190526000906200082690830185620007b0565b905082606083015295945050505050565b80356001600160a01b03811681146200084f57600080fd5b919050565b600080604083850312156200086857600080fd5b620008738362000837565b946020939093013593505050565b60006020808301818452808551808352604092508286019150828160051b87010184880160005b838110156200091157888303603f19018552815180516001600160a01b03908116855288820151168885015286810151608088860181905290620008ef82870182620007b0565b60609384015196909301959095525094870194925090860190600101620008a8565b509098975050505050505050565b6000602082840312156200093257600080fd5b6200093d8262000837565b9392505050565b634e487b7160e01b600052604160045260246000fd5b600082601f8301126200096c57600080fd5b813567ffffffffffffffff808211156200098a576200098a62000944565b604051601f8301601f19908116603f01168101908282118183101715620009b557620009b562000944565b81604052838152866020858801011115620009cf57600080fd5b836020870160208301376000602085830101528094505050505092915050565b60008060006060848603121562000a0557600080fd5b833567ffffffffffffffff8082111562000a1e57600080fd5b62000a2c878388016200095a565b9450602086013591508082111562000a4357600080fd5b5062000a52868287016200095a565b925050604084013590509250925092565b600181811c9082168062000a7857607f821691505b60208210810362000a9957634e487b7160e01b600052602260045260246000fd5b50919050565b6001600160a01b038516815260806020820181905260009062000ac590830186620007b0565b828103604084015262000ad98186620007b0565b91505082606083015295945050505050565b601f82111562000b3957600081815260208120601f850160051c8101602086101562000b145750805b601f850160051c820191505b8181101562000b355782815560010162000b20565b5050505b505050565b815167ffffffffffffffff81111562000b5b5762000b5b62000944565b62000b738162000b6c845462000a63565b8462000aeb565b602080601f83116001811462000bab576000841562000b925750858301515b600019600386901b1c1916600185901b17855562000b35565b600085815260208120601f198616915b8281101562000bdc5788860151825594840194600190910190840162000bbb565b508582101562000bfb5787850151600019600388901b60f8161c191681555b5050505050600190811b0190555056fe60806040523480156200001157600080fd5b5060405162001ebe38038062001ebe83398101604081905262000034916200014c565b60006200004284826200026d565b5060016200005183826200026d565b506002555050600380546001600160a01b0319166001600160a01b03929092169190911790556005805460ff1916905562000339565b634e487b7160e01b600052604160045260246000fd5b600082601f830112620000af57600080fd5b81516001600160401b0380821115620000cc57620000cc62000087565b604051601f8301601f19908116603f01168101908282118183101715620000f757620000f762000087565b816040528381526020925086838588010111156200011457600080fd5b600091505b8382101562000138578582018301518183018401529082019062000119565b600093810190920192909252949350505050565b600080600080608085870312156200016357600080fd5b84516001600160a01b03811681146200017b57600080fd5b60208601519094506001600160401b03808211156200019957600080fd5b620001a7888389016200009d565b94506040870151915080821115620001be57600080fd5b50620001cd878288016200009d565b606096909601519497939650505050565b600181811c90821680620001f357607f821691505b6020821081036200021457634e487b7160e01b600052602260045260246000fd5b50919050565b601f8211156200026857600081815260208120601f850160051c81016020861015620002435750805b601f850160051c820191505b8181101562000264578281556001016200024f565b5050505b505050565b81516001600160401b0381111562000289576200028962000087565b620002a1816200029a8454620001de565b846200021a565b602080601f831160018114620002d95760008415620002c05750858301515b600019600386901b1c1916600185901b17855562000264565b600085815260208120601f198616915b828110156200030a57888601518255948401946001909101908401620002e9565b5085821015620003295787850151600019600388901b60f8161c191681555b5050505050600190811b01905550565b611b7580620003496000396000f3fe60806040526004361061012b5760003560e01c8063811e539c116100a6578063811e539c146102be578063869a5e2b146102d35780638da5cb5b146102f3578063936009e9146103135780639e7387f114610328578063b60d42881461033e578063b85dfb8014610346578063bc3f931f1461038f578063c19d93fb146103c1578063cc0fe4a4146103e8578063cc3e433f14610447578063dc3724e61461045c57600080fd5b80630ba1173b1461013057806337c0892314610152578063401938831461017b57806351d6e9b1146101915780635461b7b5146101b1578063590e1ae3146101d15780636d362e0a146101e65780636f9fb98a1461021e57806371aac7f9146102315780637284e41614610246578063746fcab714610268578063807f0971146102a8575b600080fd5b34801561013c57600080fd5b5061015061014b366004611835565b61047c565b005b34801561015e57600080fd5b5061016860095481565b6040519081526020015b60405180910390f35b34801561018757600080fd5b5061016860025481565b34801561019d57600080fd5b506101506101ac36600461186a565b6106d0565b3480156101bd57600080fd5b506101506101cc366004611883565b610e87565b3480156101dd57600080fd5b506101506110ac565b3480156101f257600080fd5b5061020661020136600461186a565b61125f565b6040516001600160a01b039091168152602001610172565b34801561022a57600080fd5b5047610168565b34801561023d57600080fd5b50610150611289565b34801561025257600080fd5b5061025b61138c565b60405161017291906118a5565b34801561027457600080fd5b5061029861028336600461190f565b60086020526000908152604090205460ff1681565b6040519015158152602001610172565b3480156102b457600080fd5b50610168600a5481565b3480156102ca57600080fd5b5061025b61141a565b3480156102df57600080fd5b506101506102ee36600461186a565b611427565b3480156102ff57600080fd5b50600354610206906001600160a01b031681565b34801561031f57600080fd5b50600754610168565b34801561033457600080fd5b5061016860045481565b610150611578565b34801561035257600080fd5b5061037a61036136600461190f565b6006602052600090815260409020805460019091015482565b60408051928352602083019190915201610172565b34801561039b57600080fd5b506103af6103aa366004611931565b6116ce565b60405160ff9091168152602001610172565b3480156103cd57600080fd5b506005546103db9060ff1681565b6040516101729190611973565b3480156103f457600080fd5b5061040861040336600461186a565b61172e565b604080519889526020890197909752958701949094526060860192909252608085015260a0840152151560c0830152151560e082015261010001610172565b34801561045357600080fd5b50600454610168565b34801561046857600080fd5b5061020661047736600461186a565b6117bc565b60008211801561048e5750600a548211155b6104b35760405162461bcd60e51b81526004016104aa9061199b565b60405180910390fd5b6000828152600b60205260409020600681015460ff16156105135760405162461bcd60e51b815260206004820152601a6024820152792932b8bab2b9ba1030b63932b0b23c903334b730b634bd32b21760311b60448201526064016104aa565b3360009081526008602052604090205460ff166105625760405162461bcd60e51b815260206004820152600d60248201526c2737ba1030903130b1b5b2b91760991b60448201526064016104aa565b33600090815260078201602052604090205460ff1680156105ba5760405162461bcd60e51b815260206004820152601260248201527120b63932b0b23c9031b7b73334b936b2b21760711b60448201526064016104aa565b33600090815260066020526040902054806106145760405162461bcd60e51b815260206004820152601a60248201527927379031b7b73a3934b13aba34b7b7103a37903bb2b4b3b43a1760311b60448201526064016104aa565b8315610654578083600201600082825461062e91906119de565b90915550503360009081526007840160205260409020805460ff1916600117905561068a565b8083600301600082825461066891906119de565b90915550503360009081526007840160205260409020805460ff191660021790555b60408051851515815260208101839052339187917f3f094247b8b7264fe7e85f5cef5fec3b382314c865e9656f00b4373e0b3697ec910160405180910390a35050505050565b6003546001600160a01b031633146106fa5760405162461bcd60e51b81526004016104aa906119f1565b60008111801561070c5750600a548111155b6107285760405162461bcd60e51b81526004016104aa9061199b565b6000818152600b60205260409020600681015460ff16156107805760405162461bcd60e51b815260206004820152601260248201527120b63932b0b23c903334b730b634bd32b21760711b60448201526064016104aa565b600060055460ff1660028111156107995761079961195d565b146107b65760405162461bcd60e51b81526004016104aa90611a21565b80600501544210156108055760405162461bcd60e51b81526020600482015260186024820152772b37ba34b733903832b934b7b2103737ba1032b73232b21760411b60448201526064016104aa565b60068101805460ff191660011790556002810154600954819081111561082a57506009545b8260010154811015801561083e5750600081115b15610e38576007548061088b5760405162461bcd60e51b81526020600482015260156024820152742737903130b1b5b2b9399030bb30b4b630b136329760591b60448201526064016104aa565b60008167ffffffffffffffff8111156108a6576108a6611a4f565b6040519080825280602002602001820160405280156108cf578160200160208202803683370190505b509050600060001981805b85811015610a0b576000600782815481106108f7576108f7611a65565b60009182526020808320909101546001600160a01b031680835260078d0190915260409091205490915060ff1660018190036109d5576001600160a01b0382166000908152600660205260408120549081900361097657600088858151811061096257610962611a65565b6020026020010181815250505050506109f9565b60008a8d60010154836109899190611a7b565b6109939190611a92565b9050808986815181106109a8576109a8611a65565b60209081029190910101526109bd81896119de565b9750858211156109ce578195508496505b50506109f6565b60008784815181106109e9576109e9611a65565b6020026020010181815250505b50505b80610a0381611ab4565b9150506108da565b508760010154831015610bad576000838960010154610a2a9190611acd565b90506000198303610a8d5760405162461bcd60e51b815260206004820152602760248201527f4e6f2059455320617070726f76657220617661696c61626c6520666f7220726560448201526636b0b4b73232b960c91b60648201526084016104aa565b600060078481548110610aa257610aa2611a65565b9060005260206000200160009054906101000a90046001600160a01b0316905081868581518110610ad557610ad5611a65565b6020026020010151610ae791906119de565b6001600160a01b0382166000908152600660205260409020541015610b745760405162461bcd60e51b815260206004820152603c60248201527f4c61726765737420617070726f7665722068617320696e73756666696369656e60448201527f7420636f6e747269627574696f6e20666f722072656d61696e6465720000000060648201526084016104aa565b81868581518110610b8757610b87611a65565b60200260200101818151610b9b91906119de565b905250610ba882866119de565b945050505b87600101548314610bf85760405162461bcd60e51b81526020600482015260156024820152742234b9ba3934b13aba32b21036b4b9b6b0ba31b41760591b60448201526064016104aa565b60005b85811015610d3d576000858281518110610c1757610c17611a65565b6020026020010151905080600003610c2f5750610d2b565b600060078381548110610c4457610c44611a65565b60009182526020808320909101546001600160a01b03168083526006909152604090912054909150821115610ccb5760405162461bcd60e51b815260206004820152602760248201527f496e73756666696369656e7420636f6e747269627574696f6e20647572696e676044820152660818dbdb5b5a5d60ca1b60648201526084016104aa565b6001600160a01b03811660009081526006602052604081208054849290610cf3908490611acd565b90915550506001600160a01b03811660009081526006602052604081206001018054849290610d239084906119de565b909155505050505b80610d3581611ab4565b915050610bfb565b50876001015460096000828254610d549190611acd565b909155505060035460018901546040516000926001600160a01b031691908381818185875af1925050503d8060008114610daa576040519150601f19603f3d011682016040523d82523d6000602084013e610daf565b606091505b5050905080610df25760405162461bcd60e51b815260206004820152600f60248201526e151c985b9cd9995c8819985a5b1959608a1b60448201526064016104aa565b60408051600181524260208201528b917f9ba824282ad2989f4ba4e43447c9525dc8260e6c7af56d253be556bac0cd8cdb910160405180910390a2505050505050610e81565b6005805460ff19166002179055604080516000815242602082015285917f9ba824282ad2989f4ba4e43447c9525dc8260e6c7af56d253be556bac0cd8cdb910160405180910390a25b50505050565b6003546001600160a01b03163314610eb15760405162461bcd60e51b81526004016104aa906119f1565b81471015610f015760405162461bcd60e51b815260206004820152601e60248201527f496e73756666696369656e7420636f6e74726163742062616c616e63652e000060448201526064016104aa565b600060055460ff166002811115610f1a57610f1a61195d565b14610f375760405162461bcd60e51b81526004016104aa90611a21565b600a5415610fff57600a546000908152600b60205260409020600681015460ff16610fa45760405162461bcd60e51b815260206004820152601f60248201527f50726576696f75732072657175657374206e6f742066696e616c697a65642e0060448201526064016104aa565b6006810154610100900460ff16610ffd5760405162461bcd60e51b815260206004820152601d60248201527f50726576696f75732070726f6f66206e6f74207375626d69747465642e00000060448201526064016104aa565b505b600a805490600061100f83611ab4565b9091555050600a546000818152600b602052604090209081556001810183905542600482018190556110429083906119de565b6005820181905560068201805460ff19169055600060028301819055600383015581546040805186815260208101939093524290830152907f7c574d63ec06e812da5a420f06baf236f644586e68896b7bc239b0f9e361ac439060600160405180910390a2505050565b6000600260055460ff1660028111156110c7576110c761195d565b036110d457506001611139565b60015b600a548111611137576000818152600b60209081526040808320338452600781019092529091205460ff166002811480611112575060ff8116155b1561112257600193505050611137565b5050808061112f90611ab4565b9150506110d7565b505b8061117c5760405162461bcd60e51b81526020600482015260136024820152722932b33ab732103737ba1030b63637bbb2b21760691b60448201526064016104aa565b33600090815260066020526040902054806111ce5760405162461bcd60e51b81526020600482015260126024820152712737ba3434b733903a37903932b33ab7321760711b60448201526064016104aa565b336000908152600660205260408120819055600980548392906111f2908490611acd565b9091555050604051339082156108fc029083906000818181858888f19350505050158015611224573d6000803e3d6000fd5b5060405181815233907f358fe4192934d3bf28ae181feda1f4bd08ca67f5e2fad55582cce5eb67304ae9906020015b60405180910390a25050565b6007818154811061126f57600080fd5b6000918252602090912001546001600160a01b0316905081565b6003546001600160a01b031633146112b35760405162461bcd60e51b81526004016104aa906119f1565b600060055460ff1660028111156112cc576112cc61195d565b146113135760405162461bcd60e51b815260206004820152601760248201527621b0b6b830b4b3b71030b63932b0b23c9032b73232b21760491b60448201526064016104aa565b600954156113635760405162461bcd60e51b815260206004820152601c60248201527f416c6c2066756e6473206d7573742062652077697468647261776e2e0000000060448201526064016104aa565b6002546004541061137d576005805460ff19166001179055565b6005805460ff19166002179055565b6001805461139990611ae0565b80601f01602080910402602001604051908101604052809291908181526020018280546113c590611ae0565b80156114125780601f106113e757610100808354040283529160200191611412565b820191906000526020600020905b8154815290600101906020018083116113f557829003601f168201915b505050505081565b6000805461139990611ae0565b6003546001600160a01b031633146114515760405162461bcd60e51b81526004016104aa906119f1565b6000811180156114635750600a548111155b61147f5760405162461bcd60e51b81526004016104aa9061199b565b6000818152600b60205260409020600681015460ff166114de5760405162461bcd60e51b815260206004820152601a6024820152792932b8bab2b9ba103737ba103334b730b634bd32b2103cb2ba1760311b60448201526064016104aa565b6006810154610100900460ff16156115335760405162461bcd60e51b8152602060048201526018602482015277283937b7b31030b63932b0b23c9039bab136b4ba3a32b21760411b60448201526064016104aa565b60068101805461ff00191661010017905560405182907f824ddbbefe407d851761448beac466ca7e56672a30c317ab610c38e8caf95b77906112539042815260200190565b600034116115c85760405162461bcd60e51b815260206004820181905260248201527f4d7573742066756e6420616d6f756e742067726561746572207468616e20302e60448201526064016104aa565b3360009081526008602052604090205460ff1661163c57336000818152600860205260408120805460ff191660019081179091556007805491820181559091527fa66cc928b5edb82af9bd49922954155ab7b0942694bea4ce44661d9a8736c6880180546001600160a01b03191690911790555b336000908152600660205260408120805434929061165b9084906119de565b92505081905550346009600082825461167491906119de565b92505081905550346004600082825461168d91906119de565b90915550506040805134815242602082015233917f4b0304ab2f313234b1cea012339c8f8c3bf2c8bb357d81a579cfdb35d2e3d030910160405180910390a2565b600080831180156116e15750600a548311155b6116fd5760405162461bcd60e51b81526004016104aa90611b1a565b506000828152600b602090815260408083206001600160a01b038516845260070190915290205460ff165b92915050565b60008060008060008060008060008911801561174c5750600a548911155b6117685760405162461bcd60e51b81526004016104aa90611b1a565b50505060009586525050600b602052505060409091208054600182015460028301546003840154600485015460058601546006909601549497939650919490939192909160ff808216926101009092041690565b60075460009082106118075760405162461bcd60e51b815260206004820152601460248201527324b73232bc1037baba1037b3103137bab732399760611b60448201526064016104aa565b6007828154811061181a5761181a611a65565b6000918252602090912001546001600160a01b031692915050565b6000806040838503121561184857600080fd5b823591506020830135801515811461185f57600080fd5b809150509250929050565b60006020828403121561187c57600080fd5b5035919050565b6000806040838503121561189657600080fd5b50508035926020909101359150565b600060208083528351808285015260005b818110156118d2578581018301518582016040015282016118b6565b506000604082860101526040601f19601f8301168501019250505092915050565b80356001600160a01b038116811461190a57600080fd5b919050565b60006020828403121561192157600080fd5b61192a826118f3565b9392505050565b6000806040838503121561194457600080fd5b82359150611954602084016118f3565b90509250929050565b634e487b7160e01b600052602160045260246000fd5b602081016003831061199557634e487b7160e01b600052602160045260246000fd5b91905290565b60208082526013908201527224b73b30b634b2103932b8bab2b9ba1034b21760691b604082015260600190565b634e487b7160e01b600052601160045260246000fd5b80820180821115611728576117286119c8565b6020808252601690820152752cb7ba9030b932903737ba103a34329037bbb732b91760511b604082015260600190565b60208082526014908201527321b0b6b830b4b3b7103737ba1030b1ba34bb329760611b604082015260600190565b634e487b7160e01b600052604160045260246000fd5b634e487b7160e01b600052603260045260246000fd5b8082028115828204841417611728576117286119c8565b600082611aaf57634e487b7160e01b600052601260045260246000fd5b500490565b600060018201611ac657611ac66119c8565b5060010190565b81810381811115611728576117286119c8565b600181811c90821680611af457607f821691505b602082108103611b1457634e487b7160e01b600052602260045260246000fd5b50919050565b6020808252600b908201526a24b73b30b634b21034b21760a91b60408201526060019056fea2646970667358221220f25019a5ddc5e75ebbb3a371386d5d9224247703caa25636895d4ace510d83cf64736f6c63430008140033a2646970667358221220f628e870a1caec22fe502f0eedb83f5b24bea7d9ebe0b6ac9c25c0a466e6fa1364736f6c63430008140033",
  "linkReferences": {},
  "deployedLinkReferences": {}
}