{
  "_format": "hh-sol-artifact-1",
  "contractName": "Crowdfunding",
  "sourceName": "contracts/Crowdfunding.sol",
  "abi": [
    {
      "inputs": [
        {
          "internalType": "address",
          "name": "_owner",
          "type": "address"
        },
        {
          "internalType": "string",
          "name": "_name",
          "type": "string"
        },
        {
          "internalType": "string",
          "name": "_description",
          "type": "string"
        },
        {
          "internalType": "uint256",
          "name": "_goal",
          "type": "uint256"
        }
      ],
      "stateMutability": "nonpayable",
      "type": "constructor"
    },
    {
      "anonymous": false,
      "inputs": [
        {
          "indexed": true,
          "internalType": "address",
          "name": "backer",
          "type": "address"
        },
        {
          "indexed": false,
          "internalType": "uint256",
          "name": "amount",
          "type": "uint256"
        },
        {
          "indexed": false,
          "internalType": "uint256",
          "name": "tierIndex",
          "type": "uint256"
        },
        {
          "indexed": false,
          "internalType": "uint256",
          "name": "timestamp",
          "type": "uint256"
        }
      ],
      "name": "DonationReceived",
      "type": "event"
    },
    {
      "anonymous": false,
      "inputs": [
        {
          "indexed": true,
          "internalType": "uint256",
          "name": "requestId",
          "type": "uint256"
        },
        {
          "indexed": false,
          "internalType": "uint256",
          "name": "timestamp",
          "type": "uint256"
        }
      ],
      "name": "ProofSubmitted",
      "type": "event"
    },
    {
      "anonymous": false,
      "inputs": [
        {
          "indexed": true,
          "internalType": "address",
          "name": "backer",
          "type": "address"
        },
        {
          "indexed": false,
          "internalType": "uint256",
          "name": "amount",
          "type": "uint256"
        }
      ],
      "name": "RefundClaimed",
      "type": "event"
    },
    {
      "anonymous": false,
      "inputs": [
        {
          "indexed": true,
          "internalType": "uint256",
          "name": "requestId",
          "type": "uint256"
        },
        {
          "indexed": true,
          "internalType": "address",
          "name": "backer",
          "type": "address"
        },
        {
          "indexed": false,
          "internalType": "bool",
          "name": "approve",
          "type": "bool"
        },
        {
          "indexed": false,
          "internalType": "uint256",
          "name": "weight",
          "type": "uint256"
        }
      ],
      "name": "WithdrawConfirmed",
      "type": "event"
    },
    {
      "anonymous": false,
      "inputs": [
        {
          "indexed": true,
          "internalType": "uint256",
          "name": "requestId",
          "type": "uint256"
        },
        {
          "indexed": false,
          "internalType": "bool",
          "name": "success",
          "type": "bool"
        },
        {
          "indexed": false,
          "internalType": "uint256",
          "name": "timestamp",
          "type": "uint256"
        }
      ],
      "name": "WithdrawFinalized",
      "type": "event"
    },
    {
      "anonymous": false,
      "inputs": [
        {
          "indexed": true,
          "internalType": "uint256",
          "name": "requestId",
          "type": "uint256"
        },
        {
          "indexed": false,
          "internalType": "uint256",
          "name": "amount",
          "type": "uint256"
        },
        {
          "indexed": false,
          "internalType": "uint256",
          "name": "deadline",
          "type": "uint256"
        },
        {
          "indexed": false,
          "internalType": "uint256",
          "name": "timestamp",
          "type": "uint256"
        }
      ],
      "name": "WithdrawRequested",
      "type": "event"
    },
    {
      "inputs": [
        {
          "internalType": "string",
          "name": "_name",
          "type": "string"
        },
        {
          "internalType": "uint256",
          "name": "_amount",
          "type": "uint256"
        }
      ],
      "name": "addTier",
      "outputs": [],
      "stateMutability": "nonpayable",
      "type": "function"
    },
    {
      "inputs": [
        {
          "internalType": "address",
          "name": "",
          "type": "address"
        }
      ],
      "name": "backers",
      "outputs": [
        {
          "internalType": "uint256",
          "name": "totalContribution",
          "type": "uint256"
        },
        {
          "internalType": "uint256",
          "name": "usedContribution",
          "type": "uint256"
        }
      ],
      "stateMutability": "view",
      "type": "function"
    },
    {
      "inputs": [
        {
          "internalType": "uint256",
          "name": "",
          "type": "uint256"
        }
      ],
      "name": "backersList",
      "outputs": [
        {
          "internalType": "address",
          "name": "",
          "type": "address"
        }
      ],
      "stateMutability": "view",
      "type": "function"
    },
    {
      "inputs": [],
      "name": "campaign",
      "outputs": [
        {
          "internalType": "string",
          "name": "",
          "type": "string"
        }
      ],
      "stateMutability": "view",
      "type": "function"
    },
    {
      "inputs": [
        {
          "internalType": "uint256",
          "name": "_id",
          "type": "uint256"
        },
        {
          "internalType": "bool",
          "name": "approve",
          "type": "bool"
        }
      ],
      "name": "confirmWithdrawRequest",
      "outputs": [],
      "stateMutability": "nonpayable",
      "type": "function"
    },
    {
      "inputs": [
        {
          "internalType": "uint256",
          "name": "_amount",
          "type": "uint256"
        },
        {
          "internalType": "uint256",
          "name": "_votingDuration",
          "type": "uint256"
        }
      ],
      "name": "createWithdrawRequest",
      "outputs": [],
      "stateMutability": "nonpayable",
      "type": "function"
    },
    {
      "inputs": [],
      "name": "description",
      "outputs": [
        {
          "internalType": "string",
          "name": "",
          "type": "string"
        }
      ],
      "stateMutability": "view",
      "type": "function"
    },
    {
      "inputs": [],
      "name": "endCampaign",
      "outputs": [],
      "stateMutability": "nonpayable",
      "type": "function"
    },
    {
      "inputs": [
        {
          "internalType": "uint256",
          "name": "_id",
          "type": "uint256"
        }
      ],
      "name": "finalizeWithdrawRequest",
      "outputs": [],
      "stateMutability": "nonpayable",
      "type": "function"
    },
    {
      "inputs": [
        {
          "internalType": "uint256",
          "name": "_tierIndex",
          "type": "uint256"
        }
      ],
      "name": "fund",
      "outputs": [],
      "stateMutability": "payable",
      "type": "function"
    },
    {
      "inputs": [
        {
          "internalType": "uint256",
          "name": "i",
          "type": "uint256"
        }
      ],
      "name": "getBackerAt",
      "outputs": [
        {
          "internalType": "address",
          "name": "",
          "type": "address"
        }
      ],
      "stateMutability": "view",
      "type": "function"
    },
    {
      "inputs": [],
      "name": "getBackersCount",
      "outputs": [
        {
          "internalType": "uint256",
          "name": "",
          "type": "uint256"
        }
      ],
      "stateMutability": "view",
      "type": "function"
    },
    {
      "inputs": [],
      "name": "getContractBalance",
      "outputs": [
        {
          "internalType": "uint256",
          "name": "",
          "type": "uint256"
        }
      ],
      "stateMutability": "view",
      "type": "function"
    },
    {
      "inputs": [],
      "name": "getTiers",
      "outputs": [
        {
          "components": [
            {
              "internalType": "string",
              "name": "name",
              "type": "string"
            },
            {
              "internalType": "uint256",
              "name": "amount",
              "type": "uint256"
            },
            {
              "internalType": "uint256",
              "name": "backers",
              "type": "uint256"
            }
          ],
          "internalType": "struct Crowdfunding.Tier[]",
          "name": "",
          "type": "tuple[]"
        }
      ],
      "stateMutability": "view",
      "type": "function"
    },
    {
      "inputs": [
        {
          "internalType": "uint256",
          "name": "_id",
          "type": "uint256"
        },
        {
          "internalType": "address",
          "name": "_voter",
          "type": "address"
        }
      ],
      "name": "getVote",
      "outputs": [
        {
          "internalType": "uint8",
          "name": "",
          "type": "uint8"
        }
      ],
      "stateMutability": "view",
      "type": "function"
    },
    {
      "inputs": [
        {
          "internalType": "uint256",
          "name": "_id",
          "type": "uint256"
        }
      ],
      "name": "getWithdrawRequest",
      "outputs": [
        {
          "internalType": "uint256",
          "name": "id",
          "type": "uint256"
        },
        {
          "internalType": "uint256",
          "name": "amount",
          "type": "uint256"
        },
        {
          "internalType": "uint256",
          "name": "yesWeight",
          "type": "uint256"
        },
        {
          "internalType": "uint256",
          "name": "noWeight",
          "type": "uint256"
        },
        {
          "internalType": "uint256",
          "name": "createdAt",
          "type": "uint256"
        },
        {
          "internalType": "uint256",
          "name": "votingDeadline",
          "type": "uint256"
        },
        {
          "internalType": "bool",
          "name": "finalized",
          "type": "bool"
        },
        {
          "internalType": "bool",
          "name": "proofSubmitted",
          "type": "bool"
        }
      ],
      "stateMutability": "view",
      "type": "function"
    },
    {
      "inputs": [],
      "name": "goal",
      "outputs": [
        {
          "internalType": "uint256",
          "name": "",
          "type": "uint256"
        }
      ],
      "stateMutability": "view",
      "type": "function"
    },
    {
      "inputs": [
        {
          "internalType": "address",
          "name": "",
          "type": "address"
        }
      ],
      "name": "isBacker",
      "outputs": [
        {
          "internalType": "bool",
          "name": "",
          "type": "bool"
        }
      ],
      "stateMutability": "view",
      "type": "function"
    },
    {
      "inputs": [],
      "name": "owner",
      "outputs": [
        {
          "internalType": "address",
          "name": "",
          "type": "address"
        }
      ],
      "stateMutability": "view",
      "type": "function"
    },
    {
      "inputs": [],
      "name": "refund",
      "outputs": [],
      "stateMutability": "nonpayable",
      "type": "function"
    },
    {
      "inputs": [
        {
          "internalType": "uint256",
          "name": "_index",
          "type": "uint256"
        }
      ],
      "name": "removeTier",
      "outputs": [],
      "stateMutability": "nonpayable",
      "type": "function"
    },
    {
      "inputs": [],
      "name": "state",
      "outputs": [
        {
          "internalType": "enum Crowdfunding.CampaignState",
          "name": "",
          "type": "uint8"
        }
      ],
      "stateMutability": "view",
      "type": "function"
    },
    {
      "inputs": [
        {
          "internalType": "uint256",
          "name": "_id",
          "type": "uint256"
        }
      ],
      "name": "submitProof",
      "outputs": [],
      "stateMutability": "nonpayable",
      "type": "function"
    },
    {
      "inputs": [
        {
          "internalType": "uint256",
          "name": "",
          "type": "uint256"
        }
      ],
      "name": "tiers",
      "outputs": [
        {
          "internalType": "string",
          "name": "name",
          "type": "string"
        },
        {
          "internalType": "uint256",
          "name": "amount",
          "type": "uint256"
        },
        {
          "internalType": "uint256",
          "name": "backers",
          "type": "uint256"
        }
      ],
      "stateMutability": "view",
      "type": "function"
    },
    {
      "inputs": [],
      "name": "totalContributions",
      "outputs": [
        {
          "internalType": "uint256",
          "name": "",
          "type": "uint256"
        }
      ],
      "stateMutability": "view",
      "type": "function"
    },
    {
      "inputs": [],
      "name": "withdrawRequestCount",
      "outputs": [
        {
          "internalType": "uint256",
          "name": "",
          "type": "uint256"
        }
      ],
      "stateMutability": "view",
      "type": "function"
    }
  ],
  "bytecode": "0x60806040523480156200001157600080fd5b50604051620026d6380380620026d6833981016040819052620000349162000142565b600062000042848262000263565b50600162000051838262000263565b506002555050600380546001600160a81b0319166001600160a01b03929092169190911790556200032f565b634e487b7160e01b600052604160045260246000fd5b600082601f830112620000a557600080fd5b81516001600160401b0380821115620000c257620000c26200007d565b604051601f8301601f19908116603f01168101908282118183101715620000ed57620000ed6200007d565b816040528381526020925086838588010111156200010a57600080fd5b600091505b838210156200012e57858201830151818301840152908201906200010f565b600093810190920192909252949350505050565b600080600080608085870312156200015957600080fd5b84516001600160a01b03811681146200017157600080fd5b60208601519094506001600160401b03808211156200018f57600080fd5b6200019d8883890162000093565b94506040870151915080821115620001b457600080fd5b50620001c38782880162000093565b606096909601519497939650505050565b600181811c90821680620001e957607f821691505b6020821081036200020a57634e487b7160e01b600052602260045260246000fd5b50919050565b601f8211156200025e57600081815260208120601f850160051c81016020861015620002395750805b601f850160051c820191505b818110156200025a5782815560010162000245565b5050505b505050565b81516001600160401b038111156200027f576200027f6200007d565b6200029781620002908454620001d4565b8462000210565b602080601f831160018114620002cf5760008415620002b65750858301515b600019600386901b1c1916600185901b1785556200025a565b600085815260208120601f198616915b828110156200030057888601518255948401946001909101908401620002df565b50858210156200031f5787850151600019600388901b60f8161c191681555b5050505050600190811b01905550565b612397806200033f6000396000f3fe6080604052600436106101415760003560e01c8063807f0971116100b1578063807f097114610311578063811e539c14610327578063869a5e2b1461033c5780638da5cb5b1461035c5780638ece7b911461037c578063936009e91461039c578063b85dfb80146103b1578063bc3f931f146103fa578063c19d93fb1461042c578063ca1d209d1461045a578063cc0fe4a41461046d578063dc3724e6146104cc578063de170570146104ec57600080fd5b8063039af9eb146101465780630ba1173b1461017e57806337c08923146101a057806340193883146101c457806351d6e9b1146101da5780635461b7b5146101fa578063590e1ae31461021a5780636d362e0a1461022f5780636f9fb98a1461026757806371aac7f91461027a5780637284e4161461028f578063746fcab7146102b15780637497211b146102f1575b600080fd5b34801561015257600080fd5b50610166610161366004611ce8565b61050e565b60405161017593929190611d47565b60405180910390f35b34801561018a57600080fd5b5061019e610199366004611d6c565b6105d0565b005b3480156101ac57600080fd5b506101b660085481565b604051908152602001610175565b3480156101d057600080fd5b506101b660025481565b3480156101e657600080fd5b5061019e6101f5366004611ce8565b610824565b34801561020657600080fd5b5061019e610215366004611da1565b610ef8565b34801561022657600080fd5b5061019e611124565b34801561023b57600080fd5b5061024f61024a366004611ce8565b6112cd565b6040516001600160a01b039091168152602001610175565b34801561027357600080fd5b50476101b6565b34801561028657600080fd5b5061019e6112f7565b34801561029b57600080fd5b506102a461140d565b6040516101759190611dc3565b3480156102bd57600080fd5b506102e16102cc366004611df9565b60076020526000908152604090205460ff1681565b6040519015158152602001610175565b3480156102fd57600080fd5b5061019e61030c366004611ce8565b61149b565b34801561031d57600080fd5b506101b660095481565b34801561033357600080fd5b506102a46115c3565b34801561034857600080fd5b5061019e610357366004611ce8565b6115d0565b34801561036857600080fd5b5060035461024f906001600160a01b031681565b34801561038857600080fd5b5061019e610397366004611e2a565b611721565b3480156103a857600080fd5b506006546101b6565b3480156103bd57600080fd5b506103e56103cc366004611df9565b6005602052600090815260409020805460019091015482565b60408051928352602083019190915201610175565b34801561040657600080fd5b5061041a610415366004611edf565b611814565b60405160ff9091168152602001610175565b34801561043857600080fd5b5060035461044d90600160a01b900460ff1681565b6040516101759190611f21565b61019e610468366004611ce8565b611874565b34801561047957600080fd5b5061048d610488366004611ce8565b611a86565b604080519889526020890197909752958701949094526060860192909252608085015260a0840152151560c0830152151560e082015261010001610175565b3480156104d857600080fd5b5061024f6104e7366004611ce8565b611b14565b3480156104f857600080fd5b50610501611b8d565b6040516101759190611f49565b6004818154811061051e57600080fd5b906000526020600020906003020160009150905080600001805461054190611fca565b80601f016020809104026020016040519081016040528092919081815260200182805461056d90611fca565b80156105ba5780601f1061058f576101008083540402835291602001916105ba565b820191906000526020600020905b81548152906001019060200180831161059d57829003601f168201915b5050505050908060010154908060020154905083565b6000821180156105e257506009548211155b6106075760405162461bcd60e51b81526004016105fe90612004565b60405180910390fd5b6000828152600a60205260409020600681015460ff16156106675760405162461bcd60e51b815260206004820152601a6024820152792932b8bab2b9ba1030b63932b0b23c903334b730b634bd32b21760311b60448201526064016105fe565b3360009081526007602052604090205460ff166106b65760405162461bcd60e51b815260206004820152600d60248201526c2737ba1030903130b1b5b2b91760991b60448201526064016105fe565b33600090815260078201602052604090205460ff16801561070e5760405162461bcd60e51b815260206004820152601260248201527120b63932b0b23c9031b7b73334b936b2b21760711b60448201526064016105fe565b33600090815260056020526040902054806107685760405162461bcd60e51b815260206004820152601a60248201527927379031b7b73a3934b13aba34b7b7103a37903bb2b4b3b43a1760311b60448201526064016105fe565b83156107a857808360020160008282546107829190612047565b90915550503360009081526007840160205260409020805460ff191660011790556107de565b808360030160008282546107bc9190612047565b90915550503360009081526007840160205260409020805460ff191660021790555b60408051851515815260208101839052339187917f3f094247b8b7264fe7e85f5cef5fec3b382314c865e9656f00b4373e0b3697ec910160405180910390a35050505050565b6003546001600160a01b0316331461084e5760405162461bcd60e51b81526004016105fe9061205a565b60008111801561086057506009548111155b61087c5760405162461bcd60e51b81526004016105fe90612004565b6000818152600a60205260409020600681015460ff16156108d45760405162461bcd60e51b815260206004820152601260248201527120b63932b0b23c903334b730b634bd32b21760711b60448201526064016105fe565b6000600354600160a01b900460ff1660028111156108f4576108f4611f0b565b146109115760405162461bcd60e51b81526004016105fe9061208a565b80600501544210156109605760405162461bcd60e51b81526020600482015260186024820152772b37ba34b733903832b934b7b2103737ba1032b73232b21760411b60448201526064016105fe565b60068101805460ff191660011790556002810154600382015460006109858284612047565b905060006008548210156109a857816008546109a191906120b8565b90506109ac565b5060005b60006109b88286612047565b90506008548111156109c957506008545b85600101548110610ea157600060001981805b600654811015610a7c576000600682815481106109fb576109fb6120cb565b60009182526020808320909101546001600160a01b031680835260078e0190915260409091205490915060ff166001811480610a38575060ff8116155b15610a67576001600160a01b03821660009081526005602052604090205484811115610a65578094508395505b505b50508080610a74906120e1565b9150506109dc565b5060005b600654811015610bae57600060068281548110610a9f57610a9f6120cb565b60009182526020808320909101546001600160a01b031680835260078e0190915260409091205490915060ff166001811480610adc575060ff8116155b15610b99576001600160a01b03821660009081526005602052604081205490819003610b0a57505050610b9c565b6000888e6001015483610b1d91906120fa565b610b279190612111565b6001600160a01b038516600090815260056020526040812080549293508392909190610b549084906120b8565b90915550506001600160a01b03841660009081526005602052604081206001018054839290610b84908490612047565b90915550610b9490508189612047565b975050505b50505b80610ba6816120e1565b915050610a80565b508860010154831015610d5e576000838a60010154610bcd91906120b8565b90506000198314610cfa57600060068481548110610bed57610bed6120cb565b60009182526020808320909101546001600160a01b03168083526005909152604090912054909150821115610c8a5760405162461bcd60e51b815260206004820152603d60248201527f4c61726765737420617070726f7665722068617320696e73756666696369656e60448201527f7420636f6e747269627574696f6e20666f722072656d61696e6465722e00000060648201526084016105fe565b6001600160a01b03811660009081526005602052604081208054849290610cb29084906120b8565b90915550506001600160a01b03811660009081526005602052604081206001018054849290610ce2908490612047565b90915550610cf290508286612047565b945050610d5c565b60405162461bcd60e51b815260206004820152603160248201527f4e6f20617070726f76657220617661696c61626c6520666f722072656d61696e6044820152703232b9103234b9ba3934b13aba34b7b71760791b60648201526084016105fe565b505b88600101548314610da95760405162461bcd60e51b81526020600482015260156024820152742234b9ba3934b13aba32b21036b4b9b6b0ba31b41760591b60448201526064016105fe565b886001015460086000828254610dbf91906120b8565b909155505060035460018a01546040516000926001600160a01b031691908381818185875af1925050503d8060008114610e15576040519150601f19603f3d011682016040523d82523d6000602084013e610e1a565b606091505b5050905080610e5d5760405162461bcd60e51b815260206004820152600f60248201526e151c985b9cd9995c8819985a5b1959608a1b60448201526064016105fe565b60408051600181524260208201528c917f9ba824282ad2989f4ba4e43447c9525dc8260e6c7af56d253be556bac0cd8cdb910160405180910390a250505050610eef565b6003805460ff60a01b1916600160a11b1790556040805160008152426020820152815189927f9ba824282ad2989f4ba4e43447c9525dc8260e6c7af56d253be556bac0cd8cdb928290030190a25b50505050505050565b6003546001600160a01b03163314610f225760405162461bcd60e51b81526004016105fe9061205a565b81471015610f725760405162461bcd60e51b815260206004820152601e60248201527f496e73756666696369656e7420636f6e74726163742062616c616e63652e000060448201526064016105fe565b6000600354600160a01b900460ff166002811115610f9257610f92611f0b565b14610faf5760405162461bcd60e51b81526004016105fe9061208a565b60095415611077576009546000908152600a60205260409020600681015460ff1661101c5760405162461bcd60e51b815260206004820152601f60248201527f50726576696f75732072657175657374206e6f742066696e616c697a65642e0060448201526064016105fe565b6006810154610100900460ff166110755760405162461bcd60e51b815260206004820152601d60248201527f50726576696f75732070726f6f66206e6f74207375626d69747465642e00000060448201526064016105fe565b505b60098054906000611087836120e1565b90915550506009546000818152600a602052604090209081556001810183905542600482018190556110ba908390612047565b6005820181905560068201805460ff19169055600060028301819055600383015581546040805186815260208101939093524290830152907f7c574d63ec06e812da5a420f06baf236f644586e68896b7bc239b0f9e361ac439060600160405180910390a2505050565b60006002600354600160a01b900460ff16600281111561114657611146611f0b565b03611153575060016111a7565b60015b60095481116111a5576000818152600a60209081526040808320338452600781019092529091205460ff166002036111925760019250506111a5565b508061119d816120e1565b915050611156565b505b806111ea5760405162461bcd60e51b81526020600482015260136024820152722932b33ab732103737ba1030b63637bbb2b21760691b60448201526064016105fe565b336000908152600560205260409020548061123c5760405162461bcd60e51b81526020600482015260126024820152712737ba3434b733903a37903932b33ab7321760711b60448201526064016105fe565b336000908152600560205260408120819055600880548392906112609084906120b8565b9091555050604051339082156108fc029083906000818181858888f19350505050158015611292573d6000803e3d6000fd5b5060405181815233907f358fe4192934d3bf28ae181feda1f4bd08ca67f5e2fad55582cce5eb67304ae9906020015b60405180910390a25050565b600681815481106112dd57600080fd5b6000918252602090912001546001600160a01b0316905081565b6003546001600160a01b031633146113215760405162461bcd60e51b81526004016105fe9061205a565b6000600354600160a01b900460ff16600281111561134157611341611f0b565b146113885760405162461bcd60e51b815260206004820152601760248201527621b0b6b830b4b3b71030b63932b0b23c9032b73232b21760491b60448201526064016105fe565b600854156113d85760405162461bcd60e51b815260206004820152601c60248201527f416c6c2066756e6473206d7573742062652077697468647261776e2e0000000060448201526064016105fe565b600160095410156113f8576003805460ff60a01b1916600160a11b179055565b6003805460ff60a01b1916600160a01b179055565b6001805461141a90611fca565b80601f016020809104026020016040519081016040528092919081815260200182805461144690611fca565b80156114935780601f1061146857610100808354040283529160200191611493565b820191906000526020600020905b81548152906001019060200180831161147657829003601f168201915b505050505081565b6003546001600160a01b031633146114c55760405162461bcd60e51b81526004016105fe9061205a565b600454811061150d5760405162461bcd60e51b81526020600482015260146024820152732a34b2b9103237b2b9903737ba1032bc34b9ba1760611b60448201526064016105fe565b6004805461151d906001906120b8565b8154811061152d5761152d6120cb565b90600052602060002090600302016004828154811061154e5761154e6120cb565b60009182526020909120600390910201806115698382612197565b5060018281015490820155600291820154910155600480548061158e5761158e612272565b600082815260208120600019909201916003830201906115ae8282611c92565b50600060018201819055600290910155905550565b6000805461141a90611fca565b6003546001600160a01b031633146115fa5760405162461bcd60e51b81526004016105fe9061205a565b60008111801561160c57506009548111155b6116285760405162461bcd60e51b81526004016105fe90612004565b6000818152600a60205260409020600681015460ff166116875760405162461bcd60e51b815260206004820152601a6024820152792932b8bab2b9ba103737ba103334b730b634bd32b2103cb2ba1760311b60448201526064016105fe565b6006810154610100900460ff16156116dc5760405162461bcd60e51b8152602060048201526018602482015277283937b7b31030b63932b0b23c9039bab136b4ba3a32b21760411b60448201526064016105fe565b60068101805461ff00191661010017905560405182907f824ddbbefe407d851761448beac466ca7e56672a30c317ab610c38e8caf95b77906112c19042815260200190565b6003546001600160a01b0316331461174b5760405162461bcd60e51b81526004016105fe9061205a565b6000811161179b5760405162461bcd60e51b815260206004820152601e60248201527f416d6f756e74206d7573742062652067726561746572207468616e20302e000060448201526064016105fe565b60408051606081018252838152602081018390526000918101829052600480546001810182559252805190916003027f8a35acfbc15ff81a39ae7d344fd709f28e8600b4aa8c65c6b64bfe7fe36bd19b019081906117f99082612288565b50602082015181600101556040820151816002015550505050565b6000808311801561182757506009548311155b6118435760405162461bcd60e51b81526004016105fe9061233c565b506000828152600a602090815260408083206001600160a01b038516845260070190915290205460ff165b92915050565b600034116118c45760405162461bcd60e51b815260206004820181905260248201527f4d7573742066756e6420616d6f756e742067726561746572207468616e20302e60448201526064016105fe565b60045481101561199057600481815481106118e1576118e16120cb565b90600052602060002090600302016001015434146119315760405162461bcd60e51b815260206004820152600d60248201526c24b73b30b634b2103a34b2b91760991b60448201526064016105fe565b60048181548110611944576119446120cb565b600091825260208220600260039092020101805491611962836120e1565b90915550503360009081526005602090815260408083208484526002019091529020805460ff191660011790555b3360009081526007602052604090205460ff16611a0457336000818152600760205260408120805460ff191660019081179091556006805491820181559091527ff652222313e28459528d920b65115c16c04f3efc82aaedc97be59f3f377c0d3f0180546001600160a01b03191690911790555b3360009081526005602052604081208054349290611a23908490612047565b925050819055503460086000828254611a3c9190612047565b909155505060408051348152602081018390524281830152905133917f3168ca6b1e292883c0668008556fb887f7cce92bcd3c1c57c15a34dcdccd5892919081900360600190a250565b600080600080600080600080600089118015611aa457506009548911155b611ac05760405162461bcd60e51b81526004016105fe9061233c565b50505060009586525050600a602052505060409091208054600182015460028301546003840154600485015460058601546006909601549497939650919490939192909160ff808216926101009092041690565b6006546000908210611b5f5760405162461bcd60e51b815260206004820152601460248201527324b73232bc1037baba1037b3103137bab732399760611b60448201526064016105fe565b60068281548110611b7257611b726120cb565b6000918252602090912001546001600160a01b031692915050565b60606004805480602002602001604051908101604052809291908181526020016000905b82821015611c895783829060005260206000209060030201604051806060016040529081600082018054611be490611fca565b80601f0160208091040260200160405190810160405280929190818152602001828054611c1090611fca565b8015611c5d5780601f10611c3257610100808354040283529160200191611c5d565b820191906000526020600020905b815481529060010190602001808311611c4057829003601f168201915b505050505081526020016001820154815260200160028201548152505081526020019060010190611bb1565b50505050905090565b508054611c9e90611fca565b6000825580601f10611cae575050565b601f016020900490600052602060002090810190611ccc9190611ccf565b50565b5b80821115611ce45760008155600101611cd0565b5090565b600060208284031215611cfa57600080fd5b5035919050565b6000815180845260005b81811015611d2757602081850181015186830182015201611d0b565b506000602082860101526020601f19601f83011685010191505092915050565b606081526000611d5a6060830186611d01565b60208301949094525060400152919050565b60008060408385031215611d7f57600080fd5b8235915060208301358015158114611d9657600080fd5b809150509250929050565b60008060408385031215611db457600080fd5b50508035926020909101359150565b602081526000611dd66020830184611d01565b9392505050565b80356001600160a01b0381168114611df457600080fd5b919050565b600060208284031215611e0b57600080fd5b611dd682611ddd565b634e487b7160e01b600052604160045260246000fd5b60008060408385031215611e3d57600080fd5b823567ffffffffffffffff80821115611e5557600080fd5b818501915085601f830112611e6957600080fd5b813581811115611e7b57611e7b611e14565b604051601f8201601f19908116603f01168101908382118183101715611ea357611ea3611e14565b81604052828152886020848701011115611ebc57600080fd5b826020860160208301376000602093820184015298969091013596505050505050565b60008060408385031215611ef257600080fd5b82359150611f0260208401611ddd565b90509250929050565b634e487b7160e01b600052602160045260246000fd5b6020810160038310611f4357634e487b7160e01b600052602160045260246000fd5b91905290565b60006020808301818452808551808352604092508286019150828160051b87010184880160005b83811015611fbc57603f19898403018552815160608151818652611f9682870182611d01565b838b0151878c015292890151958901959095525094870194925090860190600101611f70565b509098975050505050505050565b600181811c90821680611fde57607f821691505b602082108103611ffe57634e487b7160e01b600052602260045260246000fd5b50919050565b60208082526013908201527224b73b30b634b2103932b8bab2b9ba1034b21760691b604082015260600190565b634e487b7160e01b600052601160045260246000fd5b8082018082111561186e5761186e612031565b6020808252601690820152752cb7ba9030b932903737ba103a34329037bbb732b91760511b604082015260600190565b60208082526014908201527321b0b6b830b4b3b7103737ba1030b1ba34bb329760611b604082015260600190565b8181038181111561186e5761186e612031565b634e487b7160e01b600052603260045260246000fd5b6000600182016120f3576120f3612031565b5060010190565b808202811582820484141761186e5761186e612031565b60008261212e57634e487b7160e01b600052601260045260246000fd5b500490565b601f82111561217d57600081815260208120601f850160051c8101602086101561215a5750805b601f850160051c820191505b8181101561217957828155600101612166565b5050505b505050565b600019600383901b1c191660019190911b1790565b8181036121a2575050565b6121ac8254611fca565b67ffffffffffffffff8111156121c4576121c4611e14565b6121d8816121d28454611fca565b84612133565b6000601f82116001811461220657600083156121f45750848201545b6121fe8482612182565b85555061226b565b600085815260209020601f19841690600086815260209020845b838110156122405782860154825560019586019590910190602001612220565b508583101561225e5781850154600019600388901b60f8161c191681555b50505060018360011b0184555b5050505050565b634e487b7160e01b600052603160045260246000fd5b815167ffffffffffffffff8111156122a2576122a2611e14565b6122b0816121d28454611fca565b602080601f8311600181146122df57600084156122cd5750858301515b6122d78582612182565b865550612179565b600085815260208120601f198616915b8281101561230e578886015182559484019460019091019084016122ef565b508582101561232c5787850151600019600388901b60f8161c191681555b5050505050600190811b01905550565b6020808252600b908201526a24b73b30b634b21034b21760a91b60408201526060019056fea2646970667358221220006ec5e90f1dd9aed242d017b910ef646b2d32d42e7a9cecbcaa6f15b7e0e99864736f6c63430008140033",
  "linkReferences": {},
  "deployedLinkReferences": {}
}