{
  "_format": "hh-sol-artifact-1",
  "contractName": "CrowdfundingFactory",
  "sourceName": "contracts/CrowdfundingFactory.sol",
  "abi": [
    {
      "inputs": [],
      "stateMutability": "nonpayable",
      "type": "constructor"
    },
    {
      "inputs": [
        {
          "internalType": "uint256",
          "name": "",
          "type": "uint256"
        }
      ],
      "name": "campaigns",
      "outputs": [
        {
          "internalType": "address",
          "name": "campaignAddress",
          "type": "address"
        },
        {
          "internalType": "address",
          "name": "owner",
          "type": "address"
        },
        {
          "internalType": "string",
          "name": "name",
          "type": "string"
        },
        {
          "internalType": "uint256",
          "name": "creationTime",
          "type": "uint256"
        }
      ],
      "stateMutability": "view",
      "type": "function"
    },
    {
      "inputs": [
        {
          "internalType": "string",
          "name": "_name",
          "type": "string"
        },
        {
          "internalType": "string",
          "name": "_description",
          "type": "string"
        },
        {
          "internalType": "uint256",
          "name": "_goal",
          "type": "uint256"
        },
        {
          "internalType": "uint256",
          "name": "_deadline",
          "type": "uint256"
        }
      ],
      "name": "createCampaign",
      "outputs": [],
      "stateMutability": "nonpayable",
      "type": "function"
    },
    {
      "inputs": [],
      "name": "getAllCampaigns",
      "outputs": [
        {
          "components": [
            {
              "internalType": "address",
              "name": "campaignAddress",
              "type": "address"
            },
            {
              "internalType": "address",
              "name": "owner",
              "type": "address"
            },
            {
              "internalType": "string",
              "name": "name",
              "type": "string"
            },
            {
              "internalType": "uint256",
              "name": "creationTime",
              "type": "uint256"
            }
          ],
          "internalType": "struct CrowdfundingFactory.Campaign[]",
          "name": "",
          "type": "tuple[]"
        }
      ],
      "stateMutability": "view",
      "type": "function"
    },
    {
      "inputs": [
        {
          "internalType": "address",
          "name": "_user",
          "type": "address"
        }
      ],
      "name": "getUserCampaigns",
      "outputs": [
        {
          "components": [
            {
              "internalType": "address",
              "name": "campaignAddress",
              "type": "address"
            },
            {
              "internalType": "address",
              "name": "owner",
              "type": "address"
            },
            {
              "internalType": "string",
              "name": "name",
              "type": "string"
            },
            {
              "internalType": "uint256",
              "name": "creationTime",
              "type": "uint256"
            }
          ],
          "internalType": "struct CrowdfundingFactory.Campaign[]",
          "name": "",
          "type": "tuple[]"
        }
      ],
      "stateMutability": "view",
      "type": "function"
    },
    {
      "inputs": [],
      "name": "owner",
      "outputs": [
        {
          "internalType": "address",
          "name": "",
          "type": "address"
        }
      ],
      "stateMutability": "view",
      "type": "function"
    },
    {
      "inputs": [],
      "name": "paused",
      "outputs": [
        {
          "internalType": "bool",
          "name": "",
          "type": "bool"
        }
      ],
      "stateMutability": "view",
      "type": "function"
    },
    {
      "inputs": [],
      "name": "togglePause",
      "outputs": [],
      "stateMutability": "nonpayable",
      "type": "function"
    },
    {
      "inputs": [
        {
          "internalType": "address",
          "name": "",
          "type": "address"
        },
        {
          "internalType": "uint256",
          "name": "",
          "type": "uint256"
        }
      ],
      "name": "userCampaigns",
      "outputs": [
        {
          "internalType": "address",
          "name": "campaignAddress",
          "type": "address"
        },
        {
          "internalType": "address",
          "name": "owner",
          "type": "address"
        },
        {
          "internalType": "string",
          "name": "name",
          "type": "string"
        },
        {
          "internalType": "uint256",
          "name": "creationTime",
          "type": "uint256"
        }
      ],
      "stateMutability": "view",
      "type": "function"
    }
  ],
  "bytecode": "0x608060405234801561001057600080fd5b50600080546001600160a01b03191633179055612c02806100326000396000f3fe60806040523480156200001157600080fd5b5060043610620000825760003560e01c8063141961bc146200008757806319ac74bd14620000b95780635c975abb14620000d057806386cdf60414620000f65780638da5cb5b146200010f578063a1e5084c146200013c578063a318f2691462000153578063c4ae3168146200016c575b600080fd5b6200009e6200009836600462000799565b62000176565b604051620000b09493929190620007fb565b60405180910390f35b6200009e620000ca36600462000857565b62000251565b600054620000e590600160a01b900460ff1681565b6040519015158152602001620000b0565b62000100620002a9565b604051620000b0919062000884565b60005462000123906001600160a01b031681565b6040516001600160a01b039091168152602001620000b0565b620001006200014d36600462000922565b620003d1565b6200016a62000164366004620009f2565b6200050f565b005b6200016a62000721565b600181815481106200018757600080fd5b60009182526020909120600490910201805460018201546002830180546001600160a01b039384169550929091169291620001c29062000a6d565b80601f0160208091040260200160405190810160405280929190818152602001828054620001f09062000a6d565b8015620002415780601f10620002155761010080835404028352916020019162000241565b820191906000526020600020905b8154815290600101906020018083116200022357829003601f168201915b5050505050908060030154905084565b600260205281600052604060002081815481106200026e57600080fd5b60009182526020909120600490910201805460018201546002830180546001600160a01b039384169650919092169350620001c29062000a6d565b60606001805480602002602001604051908101604052809291908181526020016000905b82821015620003c8576000848152602090819020604080516080810182526004860290920180546001600160a01b0390811684526001820154169383019390935260028301805492939291840191620003269062000a6d565b80601f0160208091040260200160405190810160405280929190818152602001828054620003549062000a6d565b8015620003a55780601f106200037957610100808354040283529160200191620003a5565b820191906000526020600020905b8154815290600101906020018083116200038757829003601f168201915b5050505050815260200160038201548152505081526020019060010190620002cd565b50505050905090565b6001600160a01b0381166000908152600260209081526040808320805482518185028101850190935280835260609492939192909184015b8282101562000504576000848152602090819020604080516080810182526004860290920180546001600160a01b0390811684526001820154169383019390935260028301805492939291840191620004629062000a6d565b80601f0160208091040260200160405190810160405280929190818152602001828054620004909062000a6d565b8015620004e15780601f10620004b557610100808354040283529160200191620004e1565b820191906000526020600020905b815481529060010190602001808311620004c357829003601f168201915b505050505081526020016003820154815250508152602001906001019062000409565b505050509050919050565b600054600160a01b900460ff1615620005645760405162461bcd60e51b81526020600482015260126024820152712330b1ba37b93c9034b9903830bab9b2b21760711b60448201526064015b60405180910390fd5b6000338585858560405162000579906200078b565b6200058995949392919062000aa9565b604051809103906000f080158015620005a6573d6000803e3d6000fd5b50604080516080810182526001600160a01b0380841682523360208301908152928201898152426060840152600180548082018255600091909152835160049091027fb10e2d527612073b26eecdfd717e6a320cf44b4afac2b0732d9fcbe2b7fa0cf6810180549285166001600160a01b031993841617815595517fb10e2d527612073b26eecdfd717e6a320cf44b4afac2b0732d9fcbe2b7fa0cf782018054919095169216919091179092555193945084939192839290917fb10e2d527612073b26eecdfd717e6a320cf44b4afac2b0732d9fcbe2b7fa0cf801906200068e908262000b4b565b506060919091015160039091015533600090815260026020818152604080842080546001808201835591865294839020865160049096020180546001600160a01b03199081166001600160a01b0397881617825593870151918101805490941691909516179091558301518392918201906200070b908262000b4b565b5060608201518160030155505050505050505050565b6000546001600160a01b031633146200076a5760405162461bcd60e51b815260206004820152600a6024820152692737ba1037bbb732b91760b11b60448201526064016200055b565b6000805460ff60a01b198116600160a01b9182900460ff1615909102179055565b611fb48062000c1983390190565b600060208284031215620007ac57600080fd5b5035919050565b6000815180845260005b81811015620007db57602081850181015186830182015201620007bd565b506000602082860101526020601f19601f83011685010191505092915050565b6001600160a01b038581168252841660208201526080604082018190526000906200082990830185620007b3565b905082606083015295945050505050565b80356001600160a01b03811681146200085257600080fd5b919050565b600080604083850312156200086b57600080fd5b62000876836200083a565b946020939093013593505050565b60006020808301818452808551808352604092508286019150828160051b87010184880160005b838110156200091457888303603f19018552815180516001600160a01b03908116855288820151168885015286810151608088860181905290620008f282870182620007b3565b60609384015196909301959095525094870194925090860190600101620008ab565b509098975050505050505050565b6000602082840312156200093557600080fd5b62000940826200083a565b9392505050565b634e487b7160e01b600052604160045260246000fd5b600082601f8301126200096f57600080fd5b813567ffffffffffffffff808211156200098d576200098d62000947565b604051601f8301601f19908116603f01168101908282118183101715620009b857620009b862000947565b81604052838152866020858801011115620009d257600080fd5b836020870160208301376000602085830101528094505050505092915050565b6000806000806080858703121562000a0957600080fd5b843567ffffffffffffffff8082111562000a2257600080fd5b62000a30888389016200095d565b9550602087013591508082111562000a4757600080fd5b5062000a56878288016200095d565b949794965050505060408301359260600135919050565b600181811c9082168062000a8257607f821691505b60208210810362000aa357634e487b7160e01b600052602260045260246000fd5b50919050565b6001600160a01b038616815260a06020820181905260009062000acf90830187620007b3565b828103604084015262000ae38187620007b3565b60608401959095525050608001529392505050565b601f82111562000b4657600081815260208120601f850160051c8101602086101562000b215750805b601f850160051c820191505b8181101562000b425782815560010162000b2d565b5050505b505050565b815167ffffffffffffffff81111562000b685762000b6862000947565b62000b808162000b79845462000a6d565b8462000af8565b602080601f83116001811462000bb8576000841562000b9f5750858301515b600019600386901b1c1916600185901b17855562000b42565b600085815260208120601f198616915b8281101562000be95788860151825594840194600190910190840162000bc8565b508582101562000c085787850151600019600388901b60f8161c191681555b5050505050600190811b0190555056fe60806040523480156200001157600080fd5b5060405162001fb438038062001fb48339810160408190526200003491620001b9565b6000620000428582620002e5565b506001620000518482620002e5565b506002829055600380546001600160a01b0319166001600160a01b0387161790558015620000d857428111620000cd5760405162461bcd60e51b815260206004820152601e60248201527f446561646c696e65206d75737420626520696e20746865206675747572650000604482015260640160405180910390fd5b6005819055620000de565b60006005555b50506006805460ff1916905550620003b1915050565b634e487b7160e01b600052604160045260246000fd5b600082601f8301126200011c57600080fd5b81516001600160401b0380821115620001395762000139620000f4565b604051601f8301601f19908116603f01168101908282118183101715620001645762000164620000f4565b816040528381526020925086838588010111156200018157600080fd5b600091505b83821015620001a5578582018301518183018401529082019062000186565b600093810190920192909252949350505050565b600080600080600060a08688031215620001d257600080fd5b85516001600160a01b0381168114620001ea57600080fd5b60208701519095506001600160401b03808211156200020857600080fd5b6200021689838a016200010a565b955060408801519150808211156200022d57600080fd5b506200023c888289016200010a565b606088015160809098015196999598509695949350505050565b600181811c908216806200026b57607f821691505b6020821081036200028c57634e487b7160e01b600052602260045260246000fd5b50919050565b601f821115620002e057600081815260208120601f850160051c81016020861015620002bb5750805b601f850160051c820191505b81811015620002dc57828155600101620002c7565b5050505b505050565b81516001600160401b03811115620003015762000301620000f4565b620003198162000312845462000256565b8462000292565b602080601f831160018114620003515760008415620003385750858301515b600019600386901b1c1916600185901b178555620002dc565b600085815260208120601f198616915b82811015620003825788860151825594840194600190910190840162000361565b5085821015620003a15787850151600019600388901b60f8161c191681555b5050505050600190811b01905550565b611bf380620003c16000396000f3fe6080604052600436106101365760003560e01c8063807f0971116100b1578063807f0971146102c9578063811e539c146102df578063869a5e2b146102f45780638da5cb5b14610314578063936009e9146103345780639e7387f114610349578063b60d42881461035f578063b85dfb8014610367578063bc3f931f146103b0578063c19d93fb146103e2578063cc0fe4a414610409578063cc3e433f14610468578063dc3724e61461047d57600080fd5b80630ba1173b1461013b57806329dcb0cf1461015d57806337c0892314610186578063401938831461019c57806351d6e9b1146101b25780635461b7b5146101d2578063590e1ae3146101f25780636d362e0a146102075780636f9fb98a1461023f57806371aac7f9146102525780637284e41614610267578063746fcab714610289575b600080fd5b34801561014757600080fd5b5061015b6101563660046118b3565b61049d565b005b34801561016957600080fd5b5061017360055481565b6040519081526020015b60405180910390f35b34801561019257600080fd5b50610173600a5481565b3480156101a857600080fd5b5061017360025481565b3480156101be57600080fd5b5061015b6101cd3660046118e8565b6106f1565b3480156101de57600080fd5b5061015b6101ed366004611901565b610ea8565b3480156101fe57600080fd5b5061015b6110cd565b34801561021357600080fd5b506102276102223660046118e8565b61122d565b6040516001600160a01b03909116815260200161017d565b34801561024b57600080fd5b5047610173565b34801561025e57600080fd5b5061015b611257565b34801561027357600080fd5b5061027c6113b0565b60405161017d9190611923565b34801561029557600080fd5b506102b96102a436600461198d565b60096020526000908152604090205460ff1681565b604051901515815260200161017d565b3480156102d557600080fd5b50610173600b5481565b3480156102eb57600080fd5b5061027c61143e565b34801561030057600080fd5b5061015b61030f3660046118e8565b61144b565b34801561032057600080fd5b50600354610227906001600160a01b031681565b34801561034057600080fd5b50600854610173565b34801561035557600080fd5b5061017360045481565b61015b61159c565b34801561037357600080fd5b5061039b61038236600461198d565b6007602052600090815260409020805460019091015482565b6040805192835260208301919091520161017d565b3480156103bc57600080fd5b506103d06103cb3660046119af565b61174c565b60405160ff909116815260200161017d565b3480156103ee57600080fd5b506006546103fc9060ff1681565b60405161017d91906119f1565b34801561041557600080fd5b506104296104243660046118e8565b6117ac565b604080519889526020890197909752958701949094526060860192909252608085015260a0840152151560c0830152151560e08201526101000161017d565b34801561047457600080fd5b50600454610173565b34801561048957600080fd5b506102276104983660046118e8565b61183a565b6000821180156104af5750600b548211155b6104d45760405162461bcd60e51b81526004016104cb90611a19565b60405180910390fd5b6000828152600c60205260409020600681015460ff16156105345760405162461bcd60e51b815260206004820152601a6024820152792932b8bab2b9ba1030b63932b0b23c903334b730b634bd32b21760311b60448201526064016104cb565b3360009081526009602052604090205460ff166105835760405162461bcd60e51b815260206004820152600d60248201526c2737ba1030903130b1b5b2b91760991b60448201526064016104cb565b33600090815260078201602052604090205460ff1680156105db5760405162461bcd60e51b815260206004820152601260248201527120b63932b0b23c9031b7b73334b936b2b21760711b60448201526064016104cb565b33600090815260076020526040902054806106355760405162461bcd60e51b815260206004820152601a60248201527927379031b7b73a3934b13aba34b7b7103a37903bb2b4b3b43a1760311b60448201526064016104cb565b8315610675578083600201600082825461064f9190611a5c565b90915550503360009081526007840160205260409020805460ff191660011790556106ab565b808360030160008282546106899190611a5c565b90915550503360009081526007840160205260409020805460ff191660021790555b60408051851515815260208101839052339187917f3f094247b8b7264fe7e85f5cef5fec3b382314c865e9656f00b4373e0b3697ec910160405180910390a35050505050565b6003546001600160a01b0316331461071b5760405162461bcd60e51b81526004016104cb90611a6f565b60008111801561072d5750600b548111155b6107495760405162461bcd60e51b81526004016104cb90611a19565b6000818152600c60205260409020600681015460ff16156107a15760405162461bcd60e51b815260206004820152601260248201527120b63932b0b23c903334b730b634bd32b21760711b60448201526064016104cb565b600060065460ff1660028111156107ba576107ba6119db565b146107d75760405162461bcd60e51b81526004016104cb90611a9f565b80600501544210156108265760405162461bcd60e51b81526020600482015260186024820152772b37ba34b733903832b934b7b2103737ba1032b73232b21760411b60448201526064016104cb565b60068101805460ff191660011790556002810154600a54819081111561084b5750600a545b8260010154811015801561085f5750600081115b15610e5957600854806108ac5760405162461bcd60e51b81526020600482015260156024820152742737903130b1b5b2b9399030bb30b4b630b136329760591b60448201526064016104cb565b60008167ffffffffffffffff8111156108c7576108c7611acd565b6040519080825280602002602001820160405280156108f0578160200160208202803683370190505b509050600060001981805b85811015610a2c5760006008828154811061091857610918611ae3565b60009182526020808320909101546001600160a01b031680835260078d0190915260409091205490915060ff1660018190036109f6576001600160a01b0382166000908152600760205260408120549081900361099757600088858151811061098357610983611ae3565b602002602001018181525050505050610a1a565b60008a8d60010154836109aa9190611af9565b6109b49190611b10565b9050808986815181106109c9576109c9611ae3565b60209081029190910101526109de8189611a5c565b9750858211156109ef578195508496505b5050610a17565b6000878481518110610a0a57610a0a611ae3565b6020026020010181815250505b50505b80610a2481611b32565b9150506108fb565b508760010154831015610bce576000838960010154610a4b9190611b4b565b90506000198303610aae5760405162461bcd60e51b815260206004820152602760248201527f4e6f2059455320617070726f76657220617661696c61626c6520666f7220726560448201526636b0b4b73232b960c91b60648201526084016104cb565b600060088481548110610ac357610ac3611ae3565b9060005260206000200160009054906101000a90046001600160a01b0316905081868581518110610af657610af6611ae3565b6020026020010151610b089190611a5c565b6001600160a01b0382166000908152600760205260409020541015610b955760405162461bcd60e51b815260206004820152603c60248201527f4c61726765737420617070726f7665722068617320696e73756666696369656e60448201527f7420636f6e747269627574696f6e20666f722072656d61696e6465720000000060648201526084016104cb565b81868581518110610ba857610ba8611ae3565b60200260200101818151610bbc9190611a5c565b905250610bc98286611a5c565b945050505b87600101548314610c195760405162461bcd60e51b81526020600482015260156024820152742234b9ba3934b13aba32b21036b4b9b6b0ba31b41760591b60448201526064016104cb565b60005b85811015610d5e576000858281518110610c3857610c38611ae3565b6020026020010151905080600003610c505750610d4c565b600060088381548110610c6557610c65611ae3565b60009182526020808320909101546001600160a01b03168083526007909152604090912054909150821115610cec5760405162461bcd60e51b815260206004820152602760248201527f496e73756666696369656e7420636f6e747269627574696f6e20647572696e676044820152660818dbdb5b5a5d60ca1b60648201526084016104cb565b6001600160a01b03811660009081526007602052604081208054849290610d14908490611b4b565b90915550506001600160a01b03811660009081526007602052604081206001018054849290610d44908490611a5c565b909155505050505b80610d5681611b32565b915050610c1c565b508760010154600a6000828254610d759190611b4b565b909155505060035460018901546040516000926001600160a01b031691908381818185875af1925050503d8060008114610dcb576040519150601f19603f3d011682016040523d82523d6000602084013e610dd0565b606091505b5050905080610e135760405162461bcd60e51b815260206004820152600f60248201526e151c985b9cd9995c8819985a5b1959608a1b60448201526064016104cb565b60408051600181524260208201528b917f9ba824282ad2989f4ba4e43447c9525dc8260e6c7af56d253be556bac0cd8cdb910160405180910390a2505050505050610ea2565b6006805460ff19166002179055604080516000815242602082015285917f9ba824282ad2989f4ba4e43447c9525dc8260e6c7af56d253be556bac0cd8cdb910160405180910390a25b50505050565b6003546001600160a01b03163314610ed25760405162461bcd60e51b81526004016104cb90611a6f565b81471015610f225760405162461bcd60e51b815260206004820152601e60248201527f496e73756666696369656e7420636f6e74726163742062616c616e63652e000060448201526064016104cb565b600060065460ff166002811115610f3b57610f3b6119db565b14610f585760405162461bcd60e51b81526004016104cb90611a9f565b600b541561102057600b546000908152600c60205260409020600681015460ff16610fc55760405162461bcd60e51b815260206004820152601f60248201527f50726576696f75732072657175657374206e6f742066696e616c697a65642e0060448201526064016104cb565b6006810154610100900460ff1661101e5760405162461bcd60e51b815260206004820152601d60248201527f50726576696f75732070726f6f66206e6f74207375626d69747465642e00000060448201526064016104cb565b505b600b805490600061103083611b32565b9091555050600b546000818152600c60205260409020908155600181018390554260048201819055611063908390611a5c565b6005820181905560068201805460ff19169055600060028301819055600383015581546040805186815260208101939093524290830152907f7c574d63ec06e812da5a420f06baf236f644586e68896b7bc239b0f9e361ac439060600160405180910390a2505050565b336000908152600760205260409020548061111f5760405162461bcd60e51b81526020600482015260126024820152712737ba3434b733903a37903932b33ab7321760711b60448201526064016104cb565b336000908152600760205260408120819055600a8054839290611143908490611b4b565b92505081905550806004600082825461115c9190611b4b565b9091555050604051600090339083908381818185875af1925050503d80600081146111a3576040519150601f19603f3d011682016040523d82523d6000602084013e6111a8565b606091505b50509050806111f35760405162461bcd60e51b81526020600482015260176024820152762932b33ab732103a3930b739b332b9103330b4b632b21760491b60448201526064016104cb565b60405182815233907f358fe4192934d3bf28ae181feda1f4bd08ca67f5e2fad55582cce5eb67304ae9906020015b60405180910390a25050565b6008818154811061123d57600080fd5b6000918252602090912001546001600160a01b0316905081565b6003546001600160a01b031633146112815760405162461bcd60e51b81526004016104cb90611a6f565b600060065460ff16600281111561129a5761129a6119db565b146112e15760405162461bcd60e51b815260206004820152601760248201527621b0b6b830b4b3b71030b63932b0b23c9032b73232b21760491b60448201526064016104cb565b600a54156113315760405162461bcd60e51b815260206004820152601c60248201527f416c6c2066756e6473206d7573742062652077697468647261776e2e0000000060448201526064016104cb565b600554156113875760055442116113875760405162461bcd60e51b815260206004820152601a6024820152792237b730ba34b7b7103832b934b7b2103737ba1032b73232b21760311b60448201526064016104cb565b600254600454106113a1576006805460ff19166001179055565b6006805460ff19166002179055565b600180546113bd90611b5e565b80601f01602080910402602001604051908101604052809291908181526020018280546113e990611b5e565b80156114365780601f1061140b57610100808354040283529160200191611436565b820191906000526020600020905b81548152906001019060200180831161141957829003601f168201915b505050505081565b600080546113bd90611b5e565b6003546001600160a01b031633146114755760405162461bcd60e51b81526004016104cb90611a6f565b6000811180156114875750600b548111155b6114a35760405162461bcd60e51b81526004016104cb90611a19565b6000818152600c60205260409020600681015460ff166115025760405162461bcd60e51b815260206004820152601a6024820152792932b8bab2b9ba103737ba103334b730b634bd32b2103cb2ba1760311b60448201526064016104cb565b6006810154610100900460ff16156115575760405162461bcd60e51b8152602060048201526018602482015277283937b7b31030b63932b0b23c9039bab136b4ba3a32b21760411b60448201526064016104cb565b60068101805461ff00191661010017905560405182907f824ddbbefe407d851761448beac466ca7e56672a30c317ab610c38e8caf95b77906112219042815260200190565b60055415806115ad57506005544211155b6115f65760405162461bcd60e51b815260206004820152601a6024820152792237b730ba34b7b7103832b934b7b2103430b99032b73232b21760311b60448201526064016104cb565b600034116116465760405162461bcd60e51b815260206004820181905260248201527f4d7573742066756e6420616d6f756e742067726561746572207468616e20302e60448201526064016104cb565b3360009081526009602052604090205460ff166116ba57336000818152600960205260408120805460ff191660019081179091556008805491820181559091527ff3f7a9fe364faab93b216da50a3214154f22a0a2b415b23a84c8169e8b636ee30180546001600160a01b03191690911790555b33600090815260076020526040812080543492906116d9908490611a5c565b9250508190555034600a60008282546116f29190611a5c565b92505081905550346004600082825461170b9190611a5c565b90915550506040805134815242602082015233917f4b0304ab2f313234b1cea012339c8f8c3bf2c8bb357d81a579cfdb35d2e3d030910160405180910390a2565b6000808311801561175f5750600b548311155b61177b5760405162461bcd60e51b81526004016104cb90611b98565b506000828152600c602090815260408083206001600160a01b038516845260070190915290205460ff165b92915050565b6000806000806000806000806000891180156117ca5750600b548911155b6117e65760405162461bcd60e51b81526004016104cb90611b98565b50505060009586525050600c602052505060409091208054600182015460028301546003840154600485015460058601546006909601549497939650919490939192909160ff808216926101009092041690565b60085460009082106118855760405162461bcd60e51b815260206004820152601460248201527324b73232bc1037baba1037b3103137bab732399760611b60448201526064016104cb565b6008828154811061189857611898611ae3565b6000918252602090912001546001600160a01b031692915050565b600080604083850312156118c657600080fd5b82359150602083013580151581146118dd57600080fd5b809150509250929050565b6000602082840312156118fa57600080fd5b5035919050565b6000806040838503121561191457600080fd5b50508035926020909101359150565b600060208083528351808285015260005b8181101561195057858101830151858201604001528201611934565b506000604082860101526040601f19601f8301168501019250505092915050565b80356001600160a01b038116811461198857600080fd5b919050565b60006020828403121561199f57600080fd5b6119a882611971565b9392505050565b600080604083850312156119c257600080fd5b823591506119d260208401611971565b90509250929050565b634e487b7160e01b600052602160045260246000fd5b6020810160038310611a1357634e487b7160e01b600052602160045260246000fd5b91905290565b60208082526013908201527224b73b30b634b2103932b8bab2b9ba1034b21760691b604082015260600190565b634e487b7160e01b600052601160045260246000fd5b808201808211156117a6576117a6611a46565b6020808252601690820152752cb7ba9030b932903737ba103a34329037bbb732b91760511b604082015260600190565b60208082526014908201527321b0b6b830b4b3b7103737ba1030b1ba34bb329760611b604082015260600190565b634e487b7160e01b600052604160045260246000fd5b634e487b7160e01b600052603260045260246000fd5b80820281158282048414176117a6576117a6611a46565b600082611b2d57634e487b7160e01b600052601260045260246000fd5b500490565b600060018201611b4457611b44611a46565b5060010190565b818103818111156117a6576117a6611a46565b600181811c90821680611b7257607f821691505b602082108103611b9257634e487b7160e01b600052602260045260246000fd5b50919050565b6020808252600b908201526a24b73b30b634b21034b21760a91b60408201526060019056fea26469706673582212208d9791ff2306edfad5498a031173d2e9029612e774254977531835efc2715bca64736f6c63430008140033a2646970667358221220a0468df7286e44f496b8a9eb6f5ba77e81434677988336dd750ea4e9f17bacf264736f6c63430008140033",
  "linkReferences": {},
  "deployedLinkReferences": {}
}