{
  "_format": "hh-sol-artifact-1",
  "contractName": "Crowdfunding",
  "sourceName": "contracts/Crowdfunding.sol",
  "abi": [
    {
      "inputs": [
        {
          "internalType": "address",
          "name": "_owner",
          "type": "address"
        },
        {
          "internalType": "string",
          "name": "_name",
          "type": "string"
        },
        {
          "internalType": "string",
          "name": "_description",
          "type": "string"
        },
        {
          "internalType": "uint256",
          "name": "_goal",
          "type": "uint256"
        }
      ],
      "stateMutability": "nonpayable",
      "type": "constructor"
    },
    {
      "anonymous": false,
      "inputs": [
        {
          "indexed": true,
          "internalType": "address",
          "name": "backer",
          "type": "address"
        },
        {
          "indexed": false,
          "internalType": "uint256",
          "name": "amount",
          "type": "uint256"
        },
        {
          "indexed": false,
          "internalType": "uint256",
          "name": "timestamp",
          "type": "uint256"
        }
      ],
      "name": "DonationReceived",
      "type": "event"
    },
    {
      "anonymous": false,
      "inputs": [
        {
          "indexed": true,
          "internalType": "uint256",
          "name": "requestId",
          "type": "uint256"
        },
        {
          "indexed": false,
          "internalType": "uint256",
          "name": "timestamp",
          "type": "uint256"
        }
      ],
      "name": "ProofSubmitted",
      "type": "event"
    },
    {
      "anonymous": false,
      "inputs": [
        {
          "indexed": true,
          "internalType": "address",
          "name": "backer",
          "type": "address"
        },
        {
          "indexed": false,
          "internalType": "uint256",
          "name": "amount",
          "type": "uint256"
        }
      ],
      "name": "RefundClaimed",
      "type": "event"
    },
    {
      "anonymous": false,
      "inputs": [
        {
          "indexed": true,
          "internalType": "uint256",
          "name": "requestId",
          "type": "uint256"
        },
        {
          "indexed": true,
          "internalType": "address",
          "name": "backer",
          "type": "address"
        },
        {
          "indexed": false,
          "internalType": "bool",
          "name": "approve",
          "type": "bool"
        },
        {
          "indexed": false,
          "internalType": "uint256",
          "name": "weight",
          "type": "uint256"
        }
      ],
      "name": "WithdrawConfirmed",
      "type": "event"
    },
    {
      "anonymous": false,
      "inputs": [
        {
          "indexed": true,
          "internalType": "uint256",
          "name": "requestId",
          "type": "uint256"
        },
        {
          "indexed": false,
          "internalType": "bool",
          "name": "success",
          "type": "bool"
        },
        {
          "indexed": false,
          "internalType": "uint256",
          "name": "timestamp",
          "type": "uint256"
        }
      ],
      "name": "WithdrawFinalized",
      "type": "event"
    },
    {
      "anonymous": false,
      "inputs": [
        {
          "indexed": true,
          "internalType": "uint256",
          "name": "requestId",
          "type": "uint256"
        },
        {
          "indexed": false,
          "internalType": "uint256",
          "name": "amount",
          "type": "uint256"
        },
        {
          "indexed": false,
          "internalType": "uint256",
          "name": "deadline",
          "type": "uint256"
        },
        {
          "indexed": false,
          "internalType": "uint256",
          "name": "timestamp",
          "type": "uint256"
        }
      ],
      "name": "WithdrawRequested",
      "type": "event"
    },
    {
      "inputs": [
        {
          "internalType": "address",
          "name": "",
          "type": "address"
        }
      ],
      "name": "backers",
      "outputs": [
        {
          "internalType": "uint256",
          "name": "totalContribution",
          "type": "uint256"
        },
        {
          "internalType": "uint256",
          "name": "usedContribution",
          "type": "uint256"
        }
      ],
      "stateMutability": "view",
      "type": "function"
    },
    {
      "inputs": [
        {
          "internalType": "uint256",
          "name": "",
          "type": "uint256"
        }
      ],
      "name": "backersList",
      "outputs": [
        {
          "internalType": "address",
          "name": "",
          "type": "address"
        }
      ],
      "stateMutability": "view",
      "type": "function"
    },
    {
      "inputs": [],
      "name": "campaign",
      "outputs": [
        {
          "internalType": "string",
          "name": "",
          "type": "string"
        }
      ],
      "stateMutability": "view",
      "type": "function"
    },
    {
      "inputs": [],
      "name": "compoundingContributions",
      "outputs": [
        {
          "internalType": "uint256",
          "name": "",
          "type": "uint256"
        }
      ],
      "stateMutability": "view",
      "type": "function"
    },
    {
      "inputs": [
        {
          "internalType": "uint256",
          "name": "_id",
          "type": "uint256"
        },
        {
          "internalType": "bool",
          "name": "approve",
          "type": "bool"
        }
      ],
      "name": "confirmWithdrawRequest",
      "outputs": [],
      "stateMutability": "nonpayable",
      "type": "function"
    },
    {
      "inputs": [
        {
          "internalType": "uint256",
          "name": "_amount",
          "type": "uint256"
        },
        {
          "internalType": "uint256",
          "name": "_votingDuration",
          "type": "uint256"
        }
      ],
      "name": "createWithdrawRequest",
      "outputs": [],
      "stateMutability": "nonpayable",
      "type": "function"
    },
    {
      "inputs": [],
      "name": "description",
      "outputs": [
        {
          "internalType": "string",
          "name": "",
          "type": "string"
        }
      ],
      "stateMutability": "view",
      "type": "function"
    },
    {
      "inputs": [],
      "name": "endCampaign",
      "outputs": [],
      "stateMutability": "nonpayable",
      "type": "function"
    },
    {
      "inputs": [
        {
          "internalType": "uint256",
          "name": "_id",
          "type": "uint256"
        }
      ],
      "name": "finalizeWithdrawRequest",
      "outputs": [],
      "stateMutability": "nonpayable",
      "type": "function"
    },
    {
      "inputs": [],
      "name": "fund",
      "outputs": [],
      "stateMutability": "payable",
      "type": "function"
    },
    {
      "inputs": [
        {
          "internalType": "uint256",
          "name": "i",
          "type": "uint256"
        }
      ],
      "name": "getBackerAt",
      "outputs": [
        {
          "internalType": "address",
          "name": "",
          "type": "address"
        }
      ],
      "stateMutability": "view",
      "type": "function"
    },
    {
      "inputs": [],
      "name": "getBackersCount",
      "outputs": [
        {
          "internalType": "uint256",
          "name": "",
          "type": "uint256"
        }
      ],
      "stateMutability": "view",
      "type": "function"
    },
    {
      "inputs": [],
      "name": "getCompoundingContributions",
      "outputs": [
        {
          "internalType": "uint256",
          "name": "",
          "type": "uint256"
        }
      ],
      "stateMutability": "view",
      "type": "function"
    },
    {
      "inputs": [],
      "name": "getContractBalance",
      "outputs": [
        {
          "internalType": "uint256",
          "name": "",
          "type": "uint256"
        }
      ],
      "stateMutability": "view",
      "type": "function"
    },
    {
      "inputs": [
        {
          "internalType": "uint256",
          "name": "_id",
          "type": "uint256"
        },
        {
          "internalType": "address",
          "name": "_voter",
          "type": "address"
        }
      ],
      "name": "getVote",
      "outputs": [
        {
          "internalType": "uint8",
          "name": "",
          "type": "uint8"
        }
      ],
      "stateMutability": "view",
      "type": "function"
    },
    {
      "inputs": [
        {
          "internalType": "uint256",
          "name": "_id",
          "type": "uint256"
        }
      ],
      "name": "getWithdrawRequest",
      "outputs": [
        {
          "internalType": "uint256",
          "name": "id",
          "type": "uint256"
        },
        {
          "internalType": "uint256",
          "name": "amount",
          "type": "uint256"
        },
        {
          "internalType": "uint256",
          "name": "yesWeight",
          "type": "uint256"
        },
        {
          "internalType": "uint256",
          "name": "noWeight",
          "type": "uint256"
        },
        {
          "internalType": "uint256",
          "name": "createdAt",
          "type": "uint256"
        },
        {
          "internalType": "uint256",
          "name": "votingDeadline",
          "type": "uint256"
        },
        {
          "internalType": "bool",
          "name": "finalized",
          "type": "bool"
        },
        {
          "internalType": "bool",
          "name": "proofSubmitted",
          "type": "bool"
        }
      ],
      "stateMutability": "view",
      "type": "function"
    },
    {
      "inputs": [],
      "name": "goal",
      "outputs": [
        {
          "internalType": "uint256",
          "name": "",
          "type": "uint256"
        }
      ],
      "stateMutability": "view",
      "type": "function"
    },
    {
      "inputs": [
        {
          "internalType": "address",
          "name": "",
          "type": "address"
        }
      ],
      "name": "isBacker",
      "outputs": [
        {
          "internalType": "bool",
          "name": "",
          "type": "bool"
        }
      ],
      "stateMutability": "view",
      "type": "function"
    },
    {
      "inputs": [],
      "name": "owner",
      "outputs": [
        {
          "internalType": "address",
          "name": "",
          "type": "address"
        }
      ],
      "stateMutability": "view",
      "type": "function"
    },
    {
      "inputs": [],
      "name": "refund",
      "outputs": [],
      "stateMutability": "nonpayable",
      "type": "function"
    },
    {
      "inputs": [],
      "name": "state",
      "outputs": [
        {
          "internalType": "enum Crowdfunding.CampaignState",
          "name": "",
          "type": "uint8"
        }
      ],
      "stateMutability": "view",
      "type": "function"
    },
    {
      "inputs": [
        {
          "internalType": "uint256",
          "name": "_id",
          "type": "uint256"
        }
      ],
      "name": "submitProof",
      "outputs": [],
      "stateMutability": "nonpayable",
      "type": "function"
    },
    {
      "inputs": [],
      "name": "totalContributions",
      "outputs": [
        {
          "internalType": "uint256",
          "name": "",
          "type": "uint256"
        }
      ],
      "stateMutability": "view",
      "type": "function"
    },
    {
      "inputs": [],
      "name": "withdrawRequestCount",
      "outputs": [
        {
          "internalType": "uint256",
          "name": "",
          "type": "uint256"
        }
      ],
      "stateMutability": "view",
      "type": "function"
    }
  ],
  "bytecode": "0x60806040523480156200001157600080fd5b5060405162001da738038062001da783398101604081905262000034916200014c565b60006200004284826200026d565b5060016200005183826200026d565b506002555050600380546001600160a01b0319166001600160a01b03929092169190911790556005805460ff1916905562000339565b634e487b7160e01b600052604160045260246000fd5b600082601f830112620000af57600080fd5b81516001600160401b0380821115620000cc57620000cc62000087565b604051601f8301601f19908116603f01168101908282118183101715620000f757620000f762000087565b816040528381526020925086838588010111156200011457600080fd5b600091505b8382101562000138578582018301518183018401529082019062000119565b600093810190920192909252949350505050565b600080600080608085870312156200016357600080fd5b84516001600160a01b03811681146200017b57600080fd5b60208601519094506001600160401b03808211156200019957600080fd5b620001a7888389016200009d565b94506040870151915080821115620001be57600080fd5b50620001cd878288016200009d565b606096909601519497939650505050565b600181811c90821680620001f357607f821691505b6020821081036200021457634e487b7160e01b600052602260045260246000fd5b50919050565b601f8211156200026857600081815260208120601f850160051c81016020861015620002435750805b601f850160051c820191505b8181101562000264578281556001016200024f565b5050505b505050565b81516001600160401b0381111562000289576200028962000087565b620002a1816200029a8454620001de565b846200021a565b602080601f831160018114620002d95760008415620002c05750858301515b600019600386901b1c1916600185901b17855562000264565b600085815260208120601f198616915b828110156200030a57888601518255948401946001909101908401620002e9565b5085821015620003295787850151600019600388901b60f8161c191681555b5050505050600190811b01905550565b611a5e80620003496000396000f3fe60806040526004361061012b5760003560e01c8063811e539c116100a6578063811e539c146102be578063869a5e2b146102d35780638da5cb5b146102f3578063936009e9146103135780639e7387f114610328578063b60d42881461033e578063b85dfb8014610346578063bc3f931f1461038f578063c19d93fb146103c1578063cc0fe4a4146103e8578063cc3e433f14610447578063dc3724e61461045c57600080fd5b80630ba1173b1461013057806337c0892314610152578063401938831461017b57806351d6e9b1146101915780635461b7b5146101b1578063590e1ae3146101d15780636d362e0a146101e65780636f9fb98a1461021e57806371aac7f9146102315780637284e41614610246578063746fcab714610268578063807f0971146102a8575b600080fd5b34801561013c57600080fd5b5061015061014b366004611734565b61047c565b005b34801561015e57600080fd5b5061016860095481565b6040519081526020015b60405180910390f35b34801561018757600080fd5b5061016860025481565b34801561019d57600080fd5b506101506101ac366004611769565b6106d0565b3480156101bd57600080fd5b506101506101cc366004611782565b610d97565b3480156101dd57600080fd5b50610150610fbc565b3480156101f257600080fd5b50610206610201366004611769565b61115e565b6040516001600160a01b039091168152602001610172565b34801561022a57600080fd5b5047610168565b34801561023d57600080fd5b50610150611188565b34801561025257600080fd5b5061025b61128b565b60405161017291906117a4565b34801561027457600080fd5b5061029861028336600461180e565b60086020526000908152604090205460ff1681565b6040519015158152602001610172565b3480156102b457600080fd5b50610168600a5481565b3480156102ca57600080fd5b5061025b611319565b3480156102df57600080fd5b506101506102ee366004611769565b611326565b3480156102ff57600080fd5b50600354610206906001600160a01b031681565b34801561031f57600080fd5b50600754610168565b34801561033457600080fd5b5061016860045481565b610150611477565b34801561035257600080fd5b5061037a61036136600461180e565b6006602052600090815260409020805460019091015482565b60408051928352602083019190915201610172565b34801561039b57600080fd5b506103af6103aa366004611830565b6115cd565b60405160ff9091168152602001610172565b3480156103cd57600080fd5b506005546103db9060ff1681565b6040516101729190611872565b3480156103f457600080fd5b50610408610403366004611769565b61162d565b604080519889526020890197909752958701949094526060860192909252608085015260a0840152151560c0830152151560e082015261010001610172565b34801561045357600080fd5b50600454610168565b34801561046857600080fd5b50610206610477366004611769565b6116bb565b60008211801561048e5750600a548211155b6104b35760405162461bcd60e51b81526004016104aa9061189a565b60405180910390fd5b6000828152600b60205260409020600681015460ff16156105135760405162461bcd60e51b815260206004820152601a6024820152792932b8bab2b9ba1030b63932b0b23c903334b730b634bd32b21760311b60448201526064016104aa565b3360009081526008602052604090205460ff166105625760405162461bcd60e51b815260206004820152600d60248201526c2737ba1030903130b1b5b2b91760991b60448201526064016104aa565b33600090815260078201602052604090205460ff1680156105ba5760405162461bcd60e51b815260206004820152601260248201527120b63932b0b23c9031b7b73334b936b2b21760711b60448201526064016104aa565b33600090815260066020526040902054806106145760405162461bcd60e51b815260206004820152601a60248201527927379031b7b73a3934b13aba34b7b7103a37903bb2b4b3b43a1760311b60448201526064016104aa565b8315610654578083600201600082825461062e91906118dd565b90915550503360009081526007840160205260409020805460ff1916600117905561068a565b8083600301600082825461066891906118dd565b90915550503360009081526007840160205260409020805460ff191660021790555b60408051851515815260208101839052339187917f3f094247b8b7264fe7e85f5cef5fec3b382314c865e9656f00b4373e0b3697ec910160405180910390a35050505050565b6003546001600160a01b031633146106fa5760405162461bcd60e51b81526004016104aa906118f0565b60008111801561070c5750600a548111155b6107285760405162461bcd60e51b81526004016104aa9061189a565b6000818152600b60205260409020600681015460ff16156107805760405162461bcd60e51b815260206004820152601260248201527120b63932b0b23c903334b730b634bd32b21760711b60448201526064016104aa565b600060055460ff1660028111156107995761079961185c565b146107b65760405162461bcd60e51b81526004016104aa90611920565b80600501544210156108055760405162461bcd60e51b81526020600482015260186024820152772b37ba34b733903832b934b7b2103737ba1032b73232b21760411b60448201526064016104aa565b60068101805460ff1916600117905560028101546003820154600061082a82846118dd565b9050600060095482101561084d5781600954610846919061194e565b9050610851565b5060005b600061085d82866118dd565b905060095481111561086e57506009545b85600101548110610d4557600060001981805b600754811015610921576000600782815481106108a0576108a0611961565b60009182526020808320909101546001600160a01b031680835260078e0190915260409091205490915060ff1660018114806108dd575060ff8116155b1561090c576001600160a01b0382166000908152600660205260409020548481111561090a578094508395505b505b5050808061091990611977565b915050610881565b5060005b600754811015610a535760006007828154811061094457610944611961565b60009182526020808320909101546001600160a01b031680835260078e0190915260409091205490915060ff166001811480610981575060ff8116155b15610a3e576001600160a01b038216600090815260066020526040812054908190036109af57505050610a41565b6000888e60010154836109c29190611990565b6109cc91906119a7565b6001600160a01b0385166000908152600660205260408120805492935083929091906109f990849061194e565b90915550506001600160a01b03841660009081526006602052604081206001018054839290610a299084906118dd565b90915550610a39905081896118dd565b975050505b50505b80610a4b81611977565b915050610925565b508860010154831015610c02576000838a60010154610a72919061194e565b90506000198314610b9f57600060078481548110610a9257610a92611961565b60009182526020808320909101546001600160a01b03168083526006909152604090912054909150821115610b2f5760405162461bcd60e51b815260206004820152603c60248201527f4c61726765737420617070726f7665722068617320696e73756666696369656e60448201527f7420636f6e747269627574696f6e20666f722072656d61696e6465720000000060648201526084016104aa565b6001600160a01b03811660009081526006602052604081208054849290610b5790849061194e565b90915550506001600160a01b03811660009081526006602052604081206001018054849290610b879084906118dd565b90915550610b97905082866118dd565b945050610c00565b60405162461bcd60e51b815260206004820152603060248201527f4e6f20617070726f76657220617661696c61626c6520666f722072656d61696e60448201526f3232b9103234b9ba3934b13aba34b7b760811b60648201526084016104aa565b505b88600101548314610c4d5760405162461bcd60e51b81526020600482015260156024820152742234b9ba3934b13aba32b21036b4b9b6b0ba31b41760591b60448201526064016104aa565b886001015460096000828254610c63919061194e565b909155505060035460018a01546040516000926001600160a01b031691908381818185875af1925050503d8060008114610cb9576040519150601f19603f3d011682016040523d82523d6000602084013e610cbe565b606091505b5050905080610d015760405162461bcd60e51b815260206004820152600f60248201526e151c985b9cd9995c8819985a5b1959608a1b60448201526064016104aa565b60408051600181524260208201528c917f9ba824282ad2989f4ba4e43447c9525dc8260e6c7af56d253be556bac0cd8cdb910160405180910390a250505050610d8e565b6005805460ff19166002179055604080516000815242602082015288917f9ba824282ad2989f4ba4e43447c9525dc8260e6c7af56d253be556bac0cd8cdb910160405180910390a25b50505050505050565b6003546001600160a01b03163314610dc15760405162461bcd60e51b81526004016104aa906118f0565b81471015610e115760405162461bcd60e51b815260206004820152601e60248201527f496e73756666696369656e7420636f6e74726163742062616c616e63652e000060448201526064016104aa565b600060055460ff166002811115610e2a57610e2a61185c565b14610e475760405162461bcd60e51b81526004016104aa90611920565b600a5415610f0f57600a546000908152600b60205260409020600681015460ff16610eb45760405162461bcd60e51b815260206004820152601f60248201527f50726576696f75732072657175657374206e6f742066696e616c697a65642e0060448201526064016104aa565b6006810154610100900460ff16610f0d5760405162461bcd60e51b815260206004820152601d60248201527f50726576696f75732070726f6f66206e6f74207375626d69747465642e00000060448201526064016104aa565b505b600a8054906000610f1f83611977565b9091555050600a546000818152600b60205260409020908155600181018390554260048201819055610f529083906118dd565b6005820181905560068201805460ff19169055600060028301819055600383015581546040805186815260208101939093524290830152907f7c574d63ec06e812da5a420f06baf236f644586e68896b7bc239b0f9e361ac439060600160405180910390a2505050565b6000600260055460ff166002811115610fd757610fd761185c565b03610fe457506001611038565b60015b600a548111611036576000818152600b60209081526040808320338452600781019092529091205460ff16600203611023576001925050611036565b508061102e81611977565b915050610fe7565b505b8061107b5760405162461bcd60e51b81526020600482015260136024820152722932b33ab732103737ba1030b63637bbb2b21760691b60448201526064016104aa565b33600090815260066020526040902054806110cd5760405162461bcd60e51b81526020600482015260126024820152712737ba3434b733903a37903932b33ab7321760711b60448201526064016104aa565b336000908152600660205260408120819055600980548392906110f190849061194e565b9091555050604051339082156108fc029083906000818181858888f19350505050158015611123573d6000803e3d6000fd5b5060405181815233907f358fe4192934d3bf28ae181feda1f4bd08ca67f5e2fad55582cce5eb67304ae9906020015b60405180910390a25050565b6007818154811061116e57600080fd5b6000918252602090912001546001600160a01b0316905081565b6003546001600160a01b031633146111b25760405162461bcd60e51b81526004016104aa906118f0565b600060055460ff1660028111156111cb576111cb61185c565b146112125760405162461bcd60e51b815260206004820152601760248201527621b0b6b830b4b3b71030b63932b0b23c9032b73232b21760491b60448201526064016104aa565b600954156112625760405162461bcd60e51b815260206004820152601c60248201527f416c6c2066756e6473206d7573742062652077697468647261776e2e0000000060448201526064016104aa565b6001600a54101561127c576005805460ff19166002179055565b6005805460ff19166001179055565b60018054611298906119c9565b80601f01602080910402602001604051908101604052809291908181526020018280546112c4906119c9565b80156113115780601f106112e657610100808354040283529160200191611311565b820191906000526020600020905b8154815290600101906020018083116112f457829003601f168201915b505050505081565b60008054611298906119c9565b6003546001600160a01b031633146113505760405162461bcd60e51b81526004016104aa906118f0565b6000811180156113625750600a548111155b61137e5760405162461bcd60e51b81526004016104aa9061189a565b6000818152600b60205260409020600681015460ff166113dd5760405162461bcd60e51b815260206004820152601a6024820152792932b8bab2b9ba103737ba103334b730b634bd32b2103cb2ba1760311b60448201526064016104aa565b6006810154610100900460ff16156114325760405162461bcd60e51b8152602060048201526018602482015277283937b7b31030b63932b0b23c9039bab136b4ba3a32b21760411b60448201526064016104aa565b60068101805461ff00191661010017905560405182907f824ddbbefe407d851761448beac466ca7e56672a30c317ab610c38e8caf95b77906111529042815260200190565b600034116114c75760405162461bcd60e51b815260206004820181905260248201527f4d7573742066756e6420616d6f756e742067726561746572207468616e20302e60448201526064016104aa565b3360009081526008602052604090205460ff1661153b57336000818152600860205260408120805460ff191660019081179091556007805491820181559091527fa66cc928b5edb82af9bd49922954155ab7b0942694bea4ce44661d9a8736c6880180546001600160a01b03191690911790555b336000908152600660205260408120805434929061155a9084906118dd565b92505081905550346009600082825461157391906118dd565b92505081905550346004600082825461158c91906118dd565b90915550506040805134815242602082015233917f4b0304ab2f313234b1cea012339c8f8c3bf2c8bb357d81a579cfdb35d2e3d030910160405180910390a2565b600080831180156115e05750600a548311155b6115fc5760405162461bcd60e51b81526004016104aa90611a03565b506000828152600b602090815260408083206001600160a01b038516845260070190915290205460ff165b92915050565b60008060008060008060008060008911801561164b5750600a548911155b6116675760405162461bcd60e51b81526004016104aa90611a03565b50505060009586525050600b602052505060409091208054600182015460028301546003840154600485015460058601546006909601549497939650919490939192909160ff808216926101009092041690565b60075460009082106117065760405162461bcd60e51b815260206004820152601460248201527324b73232bc1037baba1037b3103137bab732399760611b60448201526064016104aa565b6007828154811061171957611719611961565b6000918252602090912001546001600160a01b031692915050565b6000806040838503121561174757600080fd5b823591506020830135801515811461175e57600080fd5b809150509250929050565b60006020828403121561177b57600080fd5b5035919050565b6000806040838503121561179557600080fd5b50508035926020909101359150565b600060208083528351808285015260005b818110156117d1578581018301518582016040015282016117b5565b506000604082860101526040601f19601f8301168501019250505092915050565b80356001600160a01b038116811461180957600080fd5b919050565b60006020828403121561182057600080fd5b611829826117f2565b9392505050565b6000806040838503121561184357600080fd5b82359150611853602084016117f2565b90509250929050565b634e487b7160e01b600052602160045260246000fd5b602081016003831061189457634e487b7160e01b600052602160045260246000fd5b91905290565b60208082526013908201527224b73b30b634b2103932b8bab2b9ba1034b21760691b604082015260600190565b634e487b7160e01b600052601160045260246000fd5b80820180821115611627576116276118c7565b6020808252601690820152752cb7ba9030b932903737ba103a34329037bbb732b91760511b604082015260600190565b60208082526014908201527321b0b6b830b4b3b7103737ba1030b1ba34bb329760611b604082015260600190565b81810381811115611627576116276118c7565b634e487b7160e01b600052603260045260246000fd5b600060018201611989576119896118c7565b5060010190565b8082028115828204841417611627576116276118c7565b6000826119c457634e487b7160e01b600052601260045260246000fd5b500490565b600181811c908216806119dd57607f821691505b6020821081036119fd57634e487b7160e01b600052602260045260246000fd5b50919050565b6020808252600b908201526a24b73b30b634b21034b21760a91b60408201526060019056fea2646970667358221220759aec15a45da46614fe85d43eb65b068530c7a5974cdf57c04b4b6bfac6f85064736f6c63430008140033",
  "linkReferences": {},
  "deployedLinkReferences": {}
}