{
  "_format": "hh-sol-artifact-1",
  "contractName": "Crowdfunding",
  "sourceName": "contracts/Crowdfunding.sol",
  "abi": [
    {
      "inputs": [
        {
          "internalType": "address",
          "name": "_owner",
          "type": "address"
        },
        {
          "internalType": "string",
          "name": "_name",
          "type": "string"
        },
        {
          "internalType": "string",
          "name": "_description",
          "type": "string"
        },
        {
          "internalType": "uint256",
          "name": "_goal",
          "type": "uint256"
        }
      ],
      "stateMutability": "nonpayable",
      "type": "constructor"
    },
    {
      "anonymous": false,
      "inputs": [
        {
          "indexed": true,
          "internalType": "address",
          "name": "backer",
          "type": "address"
        },
        {
          "indexed": false,
          "internalType": "uint256",
          "name": "amount",
          "type": "uint256"
        },
        {
          "indexed": false,
          "internalType": "uint256",
          "name": "tierIndex",
          "type": "uint256"
        },
        {
          "indexed": false,
          "internalType": "uint256",
          "name": "timestamp",
          "type": "uint256"
        }
      ],
      "name": "DonationReceived",
      "type": "event"
    },
    {
      "anonymous": false,
      "inputs": [
        {
          "indexed": true,
          "internalType": "uint256",
          "name": "requestId",
          "type": "uint256"
        },
        {
          "indexed": false,
          "internalType": "uint256",
          "name": "timestamp",
          "type": "uint256"
        }
      ],
      "name": "ProofSubmitted",
      "type": "event"
    },
    {
      "anonymous": false,
      "inputs": [
        {
          "indexed": true,
          "internalType": "address",
          "name": "backer",
          "type": "address"
        },
        {
          "indexed": false,
          "internalType": "uint256",
          "name": "amount",
          "type": "uint256"
        }
      ],
      "name": "RefundClaimed",
      "type": "event"
    },
    {
      "anonymous": false,
      "inputs": [
        {
          "indexed": true,
          "internalType": "uint256",
          "name": "requestId",
          "type": "uint256"
        },
        {
          "indexed": false,
          "internalType": "bool",
          "name": "success",
          "type": "bool"
        },
        {
          "indexed": false,
          "internalType": "uint256",
          "name": "timestamp",
          "type": "uint256"
        }
      ],
      "name": "WithdrawFinalized",
      "type": "event"
    },
    {
      "anonymous": false,
      "inputs": [
        {
          "indexed": true,
          "internalType": "uint256",
          "name": "requestId",
          "type": "uint256"
        },
        {
          "indexed": false,
          "internalType": "uint256",
          "name": "amount",
          "type": "uint256"
        },
        {
          "indexed": false,
          "internalType": "uint256",
          "name": "deadline",
          "type": "uint256"
        },
        {
          "indexed": false,
          "internalType": "uint256",
          "name": "timestamp",
          "type": "uint256"
        }
      ],
      "name": "WithdrawRequested",
      "type": "event"
    },
    {
      "anonymous": false,
      "inputs": [
        {
          "indexed": true,
          "internalType": "uint256",
          "name": "requestId",
          "type": "uint256"
        },
        {
          "indexed": true,
          "internalType": "address",
          "name": "voter",
          "type": "address"
        },
        {
          "indexed": false,
          "internalType": "bool",
          "name": "approve",
          "type": "bool"
        },
        {
          "indexed": false,
          "internalType": "uint256",
          "name": "weight",
          "type": "uint256"
        }
      ],
      "name": "WithdrawVoted",
      "type": "event"
    },
    {
      "inputs": [
        {
          "internalType": "string",
          "name": "_name",
          "type": "string"
        },
        {
          "internalType": "uint256",
          "name": "_amount",
          "type": "uint256"
        }
      ],
      "name": "addTier",
      "outputs": [],
      "stateMutability": "nonpayable",
      "type": "function"
    },
    {
      "inputs": [
        {
          "internalType": "address",
          "name": "",
          "type": "address"
        }
      ],
      "name": "backers",
      "outputs": [
        {
          "internalType": "uint256",
          "name": "totalContribution",
          "type": "uint256"
        }
      ],
      "stateMutability": "view",
      "type": "function"
    },
    {
      "inputs": [
        {
          "internalType": "uint256",
          "name": "",
          "type": "uint256"
        }
      ],
      "name": "backersList",
      "outputs": [
        {
          "internalType": "address",
          "name": "",
          "type": "address"
        }
      ],
      "stateMutability": "view",
      "type": "function"
    },
    {
      "inputs": [],
      "name": "campaign",
      "outputs": [
        {
          "internalType": "string",
          "name": "",
          "type": "string"
        }
      ],
      "stateMutability": "view",
      "type": "function"
    },
    {
      "inputs": [],
      "name": "claimRefund",
      "outputs": [],
      "stateMutability": "nonpayable",
      "type": "function"
    },
    {
      "inputs": [
        {
          "internalType": "uint256",
          "name": "_amount",
          "type": "uint256"
        },
        {
          "internalType": "uint256",
          "name": "_votingDuration",
          "type": "uint256"
        }
      ],
      "name": "createWithdrawRequest",
      "outputs": [],
      "stateMutability": "nonpayable",
      "type": "function"
    },
    {
      "inputs": [],
      "name": "description",
      "outputs": [
        {
          "internalType": "string",
          "name": "",
          "type": "string"
        }
      ],
      "stateMutability": "view",
      "type": "function"
    },
    {
      "inputs": [
        {
          "internalType": "uint256",
          "name": "_id",
          "type": "uint256"
        }
      ],
      "name": "finalizeWithdrawRequest",
      "outputs": [],
      "stateMutability": "nonpayable",
      "type": "function"
    },
    {
      "inputs": [
        {
          "internalType": "uint256",
          "name": "_tierIndex",
          "type": "uint256"
        }
      ],
      "name": "fund",
      "outputs": [],
      "stateMutability": "payable",
      "type": "function"
    },
    {
      "inputs": [
        {
          "internalType": "uint256",
          "name": "i",
          "type": "uint256"
        }
      ],
      "name": "getBackerAt",
      "outputs": [
        {
          "internalType": "address",
          "name": "",
          "type": "address"
        }
      ],
      "stateMutability": "view",
      "type": "function"
    },
    {
      "inputs": [],
      "name": "getBackersCount",
      "outputs": [
        {
          "internalType": "uint256",
          "name": "",
          "type": "uint256"
        }
      ],
      "stateMutability": "view",
      "type": "function"
    },
    {
      "inputs": [],
      "name": "getContractBalance",
      "outputs": [
        {
          "internalType": "uint256",
          "name": "",
          "type": "uint256"
        }
      ],
      "stateMutability": "view",
      "type": "function"
    },
    {
      "inputs": [],
      "name": "getTiers",
      "outputs": [
        {
          "components": [
            {
              "internalType": "string",
              "name": "name",
              "type": "string"
            },
            {
              "internalType": "uint256",
              "name": "amount",
              "type": "uint256"
            },
            {
              "internalType": "uint256",
              "name": "backers",
              "type": "uint256"
            }
          ],
          "internalType": "struct Crowdfunding.Tier[]",
          "name": "",
          "type": "tuple[]"
        }
      ],
      "stateMutability": "view",
      "type": "function"
    },
    {
      "inputs": [
        {
          "internalType": "uint256",
          "name": "_id",
          "type": "uint256"
        },
        {
          "internalType": "address",
          "name": "_voter",
          "type": "address"
        }
      ],
      "name": "getVote",
      "outputs": [
        {
          "internalType": "uint8",
          "name": "",
          "type": "uint8"
        }
      ],
      "stateMutability": "view",
      "type": "function"
    },
    {
      "inputs": [
        {
          "internalType": "uint256",
          "name": "_id",
          "type": "uint256"
        }
      ],
      "name": "getWithdrawRequest",
      "outputs": [
        {
          "internalType": "uint256",
          "name": "id",
          "type": "uint256"
        },
        {
          "internalType": "uint256",
          "name": "amount",
          "type": "uint256"
        },
        {
          "internalType": "uint256",
          "name": "yesWeight",
          "type": "uint256"
        },
        {
          "internalType": "uint256",
          "name": "noWeight",
          "type": "uint256"
        },
        {
          "internalType": "uint256",
          "name": "createdAt",
          "type": "uint256"
        },
        {
          "internalType": "bool",
          "name": "finalized",
          "type": "bool"
        },
        {
          "internalType": "bool",
          "name": "proofSubmitted",
          "type": "bool"
        }
      ],
      "stateMutability": "view",
      "type": "function"
    },
    {
      "inputs": [],
      "name": "goal",
      "outputs": [
        {
          "internalType": "uint256",
          "name": "",
          "type": "uint256"
        }
      ],
      "stateMutability": "view",
      "type": "function"
    },
    {
      "inputs": [
        {
          "internalType": "address",
          "name": "_backer",
          "type": "address"
        },
        {
          "internalType": "uint256",
          "name": "_tierIndex",
          "type": "uint256"
        }
      ],
      "name": "hasFundedTiers",
      "outputs": [
        {
          "internalType": "bool",
          "name": "",
          "type": "bool"
        }
      ],
      "stateMutability": "view",
      "type": "function"
    },
    {
      "inputs": [
        {
          "internalType": "address",
          "name": "",
          "type": "address"
        }
      ],
      "name": "isBacker",
      "outputs": [
        {
          "internalType": "bool",
          "name": "",
          "type": "bool"
        }
      ],
      "stateMutability": "view",
      "type": "function"
    },
    {
      "inputs": [],
      "name": "owner",
      "outputs": [
        {
          "internalType": "address",
          "name": "",
          "type": "address"
        }
      ],
      "stateMutability": "view",
      "type": "function"
    },
    {
      "inputs": [],
      "name": "paused",
      "outputs": [
        {
          "internalType": "bool",
          "name": "",
          "type": "bool"
        }
      ],
      "stateMutability": "view",
      "type": "function"
    },
    {
      "inputs": [
        {
          "internalType": "uint256",
          "name": "_index",
          "type": "uint256"
        }
      ],
      "name": "removeTier",
      "outputs": [],
      "stateMutability": "nonpayable",
      "type": "function"
    },
    {
      "inputs": [],
      "name": "state",
      "outputs": [
        {
          "internalType": "enum Crowdfunding.CampaignState",
          "name": "",
          "type": "uint8"
        }
      ],
      "stateMutability": "view",
      "type": "function"
    },
    {
      "inputs": [
        {
          "internalType": "uint256",
          "name": "_id",
          "type": "uint256"
        }
      ],
      "name": "submitProof",
      "outputs": [],
      "stateMutability": "nonpayable",
      "type": "function"
    },
    {
      "inputs": [
        {
          "internalType": "uint256",
          "name": "",
          "type": "uint256"
        }
      ],
      "name": "tiers",
      "outputs": [
        {
          "internalType": "string",
          "name": "name",
          "type": "string"
        },
        {
          "internalType": "uint256",
          "name": "amount",
          "type": "uint256"
        },
        {
          "internalType": "uint256",
          "name": "backers",
          "type": "uint256"
        }
      ],
      "stateMutability": "view",
      "type": "function"
    },
    {
      "inputs": [],
      "name": "togglePause",
      "outputs": [],
      "stateMutability": "nonpayable",
      "type": "function"
    },
    {
      "inputs": [],
      "name": "totalContributions",
      "outputs": [
        {
          "internalType": "uint256",
          "name": "",
          "type": "uint256"
        }
      ],
      "stateMutability": "view",
      "type": "function"
    },
    {
      "inputs": [
        {
          "internalType": "uint256",
          "name": "_id",
          "type": "uint256"
        },
        {
          "internalType": "bool",
          "name": "approve",
          "type": "bool"
        }
      ],
      "name": "voteWithdrawRequest",
      "outputs": [],
      "stateMutability": "nonpayable",
      "type": "function"
    },
    {
      "inputs": [],
      "name": "withdrawRequestCount",
      "outputs": [
        {
          "internalType": "uint256",
          "name": "",
          "type": "uint256"
        }
      ],
      "stateMutability": "view",
      "type": "function"
    }
  ],
  "bytecode": "0x60806040523480156200001157600080fd5b50604051620049473803806200494783398181016040528101906200003791906200030e565b8260009081620000489190620005ff565b5081600190816200005a9190620005ff565b508060028190555083600360006101000a81548173ffffffffffffffffffffffffffffffffffffffff021916908373ffffffffffffffffffffffffffffffffffffffff1602179055506000600360156101000a81548160ff02191690836002811115620000cc57620000cb620006e6565b5b02179055505050505062000715565b6000604051905090565b600080fd5b600080fd5b600073ffffffffffffffffffffffffffffffffffffffff82169050919050565b60006200011c82620000ef565b9050919050565b6200012e816200010f565b81146200013a57600080fd5b50565b6000815190506200014e8162000123565b92915050565b600080fd5b600080fd5b6000601f19601f8301169050919050565b7f4e487b7100000000000000000000000000000000000000000000000000000000600052604160045260246000fd5b620001a9826200015e565b810181811067ffffffffffffffff82111715620001cb57620001ca6200016f565b5b80604052505050565b6000620001e0620000db565b9050620001ee82826200019e565b919050565b600067ffffffffffffffff8211156200021157620002106200016f565b5b6200021c826200015e565b9050602081019050919050565b60005b83811015620002495780820151818401526020810190506200022c565b60008484015250505050565b60006200026c6200026684620001f3565b620001d4565b9050828152602081018484840111156200028b576200028a62000159565b5b6200029884828562000229565b509392505050565b600082601f830112620002b857620002b762000154565b5b8151620002ca84826020860162000255565b91505092915050565b6000819050919050565b620002e881620002d3565b8114620002f457600080fd5b50565b6000815190506200030881620002dd565b92915050565b600080600080608085870312156200032b576200032a620000e5565b5b60006200033b878288016200013d565b945050602085015167ffffffffffffffff8111156200035f576200035e620000ea565b5b6200036d87828801620002a0565b935050604085015167ffffffffffffffff811115620003915762000390620000ea565b5b6200039f87828801620002a0565b9250506060620003b287828801620002f7565b91505092959194509250565b600081519050919050565b7f4e487b7100000000000000000000000000000000000000000000000000000000600052602260045260246000fd5b600060028204905060018216806200041157607f821691505b602082108103620004275762000426620003c9565b5b50919050565b60008190508160005260206000209050919050565b60006020601f8301049050919050565b600082821b905092915050565b600060088302620004917fffffffffffffffffffffffffffffffffffffffffffffffffffffffffffffffff8262000452565b6200049d868362000452565b95508019841693508086168417925050509392505050565b6000819050919050565b6000620004e0620004da620004d484620002d3565b620004b5565b620002d3565b9050919050565b6000819050919050565b620004fc83620004bf565b620005146200050b82620004e7565b8484546200045f565b825550505050565b600090565b6200052b6200051c565b62000538818484620004f1565b505050565b5b8181101562000560576200055460008262000521565b6001810190506200053e565b5050565b601f821115620005af5762000579816200042d565b620005848462000442565b8101602085101562000594578190505b620005ac620005a38562000442565b8301826200053d565b50505b505050565b600082821c905092915050565b6000620005d460001984600802620005b4565b1980831691505092915050565b6000620005ef8383620005c1565b9150826002028217905092915050565b6200060a82620003be565b67ffffffffffffffff8111156200062657620006256200016f565b5b620006328254620003f8565b6200063f82828562000564565b600060209050601f83116001811462000677576000841562000662578287015190505b6200066e8582620005e1565b865550620006de565b601f19841662000687866200042d565b60005b82811015620006b1578489015182556001820191506020850194506020810190506200068a565b86831015620006d15784890151620006cd601f891682620005c1565b8355505b6001600288020188555050505b505050505050565b7f4e487b7100000000000000000000000000000000000000000000000000000000600052602160045260246000fd5b61422280620007256000396000f3fe6080604052600436106101b75760003560e01c8063869a5e2b116100ec578063c19d93fb1161008a578063ca1d209d11610064578063ca1d209d146105fe578063cc0fe4a41461061a578063dc3724e61461065d578063de1705701461069a576101b7565b8063c19d93fb14610593578063c4ae3168146105be578063c4f276d4146105d5576101b7565b8063936009e9116100c6578063936009e9146104d7578063b5545a3c14610502578063b85dfb8014610519578063bc3f931f14610556576101b7565b8063869a5e2b1461045a5780638da5cb5b146104835780638ece7b91146104ae576101b7565b80636d362e0a11610159578063746fcab711610133578063746fcab71461039e5780637497211b146103db578063807f097114610404578063811e539c1461042f576101b7565b80636d362e0a1461030b5780636f9fb98a146103485780637284e41614610373576101b7565b806351d6e9b11161019557806351d6e9b1146102515780635461b7b51461027a5780635c975abb146102a3578063663a48ee146102ce576101b7565b8063039af9eb146101bc57806337c08923146101fb5780634019388314610226575b600080fd5b3480156101c857600080fd5b506101e360048036038101906101de919061286d565b6106c5565b6040516101f293929190612939565b60405180910390f35b34801561020757600080fd5b50610210610787565b60405161021d9190612977565b60405180910390f35b34801561023257600080fd5b5061023b61078d565b6040516102489190612977565b60405180910390f35b34801561025d57600080fd5b506102786004803603810190610273919061286d565b610793565b005b34801561028657600080fd5b506102a1600480360381019061029c9190612992565b61107c565b005b3480156102af57600080fd5b506102b8611369565b6040516102c591906129ed565b60405180910390f35b3480156102da57600080fd5b506102f560048036038101906102f09190612a66565b61137c565b60405161030291906129ed565b60405180910390f35b34801561031757600080fd5b50610332600480360381019061032d919061286d565b6113e7565b60405161033f9190612ab5565b60405180910390f35b34801561035457600080fd5b5061035d611426565b60405161036a9190612977565b60405180910390f35b34801561037f57600080fd5b5061038861142e565b6040516103959190612ad0565b60405180910390f35b3480156103aa57600080fd5b506103c560048036038101906103c09190612af2565b6114bc565b6040516103d291906129ed565b60405180910390f35b3480156103e757600080fd5b5061040260048036038101906103fd919061286d565b6114dc565b005b34801561041057600080fd5b50610419611682565b6040516104269190612977565b60405180910390f35b34801561043b57600080fd5b50610444611688565b6040516104519190612ad0565b60405180910390f35b34801561046657600080fd5b50610481600480360381019061047c919061286d565b611716565b005b34801561048f57600080fd5b5061049861190a565b6040516104a59190612ab5565b60405180910390f35b3480156104ba57600080fd5b506104d560048036038101906104d09190612c54565b611930565b005b3480156104e357600080fd5b506104ec611a7a565b6040516104f99190612977565b60405180910390f35b34801561050e57600080fd5b50610517611a87565b005b34801561052557600080fd5b50610540600480360381019061053b9190612af2565b611c7f565b60405161054d9190612977565b60405180910390f35b34801561056257600080fd5b5061057d60048036038101906105789190612cb0565b611c9d565b60405161058a9190612d0c565b60405180910390f35b34801561059f57600080fd5b506105a8611d5e565b6040516105b59190612d9e565b60405180910390f35b3480156105ca57600080fd5b506105d3611d71565b005b3480156105e157600080fd5b506105fc60048036038101906105f79190612de5565b611e2d565b005b6106186004803603810190610613919061286d565b6121e6565b005b34801561062657600080fd5b50610641600480360381019061063c919061286d565b612569565b6040516106549796959493929190612e25565b60405180910390f35b34801561066957600080fd5b50610684600480360381019061067f919061286d565b612632565b6040516106919190612ab5565b60405180910390f35b3480156106a657600080fd5b506106af6126c1565b6040516106bc9190612fff565b60405180910390f35b600481815481106106d557600080fd5b90600052602060002090600302016000915090508060000180546106f890613050565b80601f016020809104026020016040519081016040528092919081815260200182805461072490613050565b80156107715780601f1061074657610100808354040283529160200191610771565b820191906000526020600020905b81548152906001019060200180831161075457829003601f168201915b5050505050908060010154908060020154905083565b60085481565b60025481565b6000811180156107a557506009548111155b6107e4576040517f08c379a00000000000000000000000000000000000000000000000000000000081526004016107db906130cd565b60405180910390fd5b6000600a600083815260200190815260200160002090508060060160009054906101000a900460ff161561084d576040517f08c379a000000000000000000000000000000000000000000000000000000000815260040161084490613139565b60405180910390fd5b6000600281111561086157610860612d27565b5b600360159054906101000a900460ff16600281111561088357610882612d27565b5b146108c3576040517f08c379a00000000000000000000000000000000000000000000000000000000081526004016108ba906131a5565b60405180910390fd5b806005015442101561090a576040517f08c379a000000000000000000000000000000000000000000000000000000000815260040161090190613211565b60405180910390fd5b60018160060160006101000a81548160ff02191690831515021790555060008160020154905060008260030154905060085481836109489190613260565b1115610989576040517f08c379a0000000000000000000000000000000000000000000000000000000008152600401610980906132e0565b60405180910390fd5b600081836109979190613260565b6008546109a49190613300565b9050600081846109b49190613260565b90508460010154811061100d576000807fffffffffffffffffffffffffffffffffffffffffffffffffffffffffffffffff90506000805b600680549050811015610b1557600060068281548110610a0e57610a0d613334565b5b9060005260206000200160009054906101000a900473ffffffffffffffffffffffffffffffffffffffff16905060008a60070160008373ffffffffffffffffffffffffffffffffffffffff1673ffffffffffffffffffffffffffffffffffffffff16815260200190815260200160002060009054906101000a900460ff16905060018160ff161480610aa3575060008160ff16145b15610b00576000600560008473ffffffffffffffffffffffffffffffffffffffff1673ffffffffffffffffffffffffffffffffffffffff16815260200190815260200160002060000154905084811115610afe578094508395505b505b50508080610b0d90613363565b9150506109eb565b5060005b600680549050811015610d4057600060068281548110610b3c57610b3b613334565b5b9060005260206000200160009054906101000a900473ffffffffffffffffffffffffffffffffffffffff16905060008a60070160008373ffffffffffffffffffffffffffffffffffffffff1673ffffffffffffffffffffffffffffffffffffffff16815260200190815260200160002060009054906101000a900460ff16905060018160ff161480610bd1575060008160ff16145b15610d2a576000600560008473ffffffffffffffffffffffffffffffffffffffff1673ffffffffffffffffffffffffffffffffffffffff16815260200190815260200160002060000154905060008103610c2d57505050610d2d565b6000888d6001015483610c4091906133ab565b610c4a919061341c565b9050868503610cbf5780600560008673ffffffffffffffffffffffffffffffffffffffff1673ffffffffffffffffffffffffffffffffffffffff1681526020019081526020016000206000016000828254610ca59190613300565b925050819055508088610cb89190613260565b9750610d27565b80600560008673ffffffffffffffffffffffffffffffffffffffff1673ffffffffffffffffffffffffffffffffffffffff1681526020019081526020016000206000016000828254610d119190613300565b925050819055508088610d249190613260565b97505b50505b50505b8080610d3890613363565b915050610b19565b508760010154831015610efa576000838960010154610d5f9190613300565b90507fffffffffffffffffffffffffffffffffffffffffffffffffffffffffffffffff8314610ebd57600060068481548110610d9e57610d9d613334565b5b9060005260206000200160009054906101000a900473ffffffffffffffffffffffffffffffffffffffff16905081600560008373ffffffffffffffffffffffffffffffffffffffff1673ffffffffffffffffffffffffffffffffffffffff168152602001908152602001600020600001541015610e50576040517f08c379a0000000000000000000000000000000000000000000000000000000008152600401610e47906134bf565b60405180910390fd5b81600560008373ffffffffffffffffffffffffffffffffffffffff1673ffffffffffffffffffffffffffffffffffffffff1681526020019081526020016000206000016000828254610ea29190613300565b925050819055508185610eb59190613260565b945050610ef8565b6040517f08c379a0000000000000000000000000000000000000000000000000000000008152600401610eef90613551565b60405180910390fd5b505b87600101548314610f40576040517f08c379a0000000000000000000000000000000000000000000000000000000008152600401610f37906135bd565b60405180910390fd5b876001015460086000828254610f569190613300565b92505081905550600360009054906101000a900473ffffffffffffffffffffffffffffffffffffffff1673ffffffffffffffffffffffffffffffffffffffff166108fc89600101549081150290604051600060405180830381858888f19350505050158015610fc9573d6000803e3d6000fd5b50887f9ba824282ad2989f4ba4e43447c9525dc8260e6c7af56d253be556bac0cd8cdb600142604051610ffd9291906135dd565b60405180910390a2505050611074565b6002600360156101000a81548160ff0219169083600281111561103357611032612d27565b5b0217905550857f9ba824282ad2989f4ba4e43447c9525dc8260e6c7af56d253be556bac0cd8cdb60004260405161106b9291906135dd565b60405180910390a25b505050505050565b600360009054906101000a900473ffffffffffffffffffffffffffffffffffffffff1673ffffffffffffffffffffffffffffffffffffffff163373ffffffffffffffffffffffffffffffffffffffff161461110c576040517f08c379a000000000000000000000000000000000000000000000000000000000815260040161110390613652565b60405180910390fd5b8147101561114f576040517f08c379a0000000000000000000000000000000000000000000000000000000008152600401611146906136be565b60405180910390fd5b6000600281111561116357611162612d27565b5b600360159054906101000a900460ff16600281111561118557611184612d27565b5b146111c5576040517f08c379a00000000000000000000000000000000000000000000000000000000081526004016111bc906131a5565b60405180910390fd5b6000600954111561128d576000600a6000600954815260200190815260200160002090508060060160009054906101000a900460ff1661123a576040517f08c379a00000000000000000000000000000000000000000000000000000000081526004016112319061372a565b60405180910390fd5b8060060160019054906101000a900460ff1661128b576040517f08c379a000000000000000000000000000000000000000000000000000000000815260040161128290613796565b60405180910390fd5b505b600960008154809291906112a090613363565b91905055506000600a600060095481526020019081526020016000209050600954816000018190555082816001018190555042816004018190555081426112e79190613260565b816005018190555060008160060160006101000a81548160ff021916908315150217905550600081600201819055506000816003018190555080600001547f7c574d63ec06e812da5a420f06baf236f644586e68896b7bc239b0f9e361ac438483600501544260405161135c939291906137b6565b60405180910390a2505050565b600360149054906101000a900460ff1681565b6000600560008473ffffffffffffffffffffffffffffffffffffffff1673ffffffffffffffffffffffffffffffffffffffff168152602001908152602001600020600101600083815260200190815260200160002060009054906101000a900460ff16905092915050565b600681815481106113f757600080fd5b906000526020600020016000915054906101000a900473ffffffffffffffffffffffffffffffffffffffff1681565b600047905090565b6001805461143b90613050565b80601f016020809104026020016040519081016040528092919081815260200182805461146790613050565b80156114b45780601f10611489576101008083540402835291602001916114b4565b820191906000526020600020905b81548152906001019060200180831161149757829003601f168201915b505050505081565b60076020528060005260406000206000915054906101000a900460ff1681565b600360009054906101000a900473ffffffffffffffffffffffffffffffffffffffff1673ffffffffffffffffffffffffffffffffffffffff163373ffffffffffffffffffffffffffffffffffffffff161461156c576040517f08c379a000000000000000000000000000000000000000000000000000000000815260040161156390613652565b60405180910390fd5b60048054905081106115b3576040517f08c379a00000000000000000000000000000000000000000000000000000000081526004016115aa90613839565b60405180910390fd5b600460016004805490506115c79190613300565b815481106115d8576115d7613334565b5b9060005260206000209060030201600482815481106115fa576115f9613334565b5b90600052602060002090600302016000820181600001908161161c9190613a1b565b506001820154816001015560028201548160020155905050600480548061164657611645613b03565b5b60019003818190600052602060002090600302016000808201600061166b91906127c6565b600182016000905560028201600090555050905550565b60095481565b6000805461169590613050565b80601f01602080910402602001604051908101604052809291908181526020018280546116c190613050565b801561170e5780601f106116e35761010080835404028352916020019161170e565b820191906000526020600020905b8154815290600101906020018083116116f157829003601f168201915b505050505081565b600360009054906101000a900473ffffffffffffffffffffffffffffffffffffffff1673ffffffffffffffffffffffffffffffffffffffff163373ffffffffffffffffffffffffffffffffffffffff16146117a6576040517f08c379a000000000000000000000000000000000000000000000000000000000815260040161179d90613652565b60405180910390fd5b6000811180156117b857506009548111155b6117f7576040517f08c379a00000000000000000000000000000000000000000000000000000000081526004016117ee906130cd565b60405180910390fd5b6000600a600083815260200190815260200160002090508060060160009054906101000a900460ff1661185f576040517f08c379a000000000000000000000000000000000000000000000000000000000815260040161185690613b7e565b60405180910390fd5b8060060160019054906101000a900460ff16156118b1576040517f08c379a00000000000000000000000000000000000000000000000000000000081526004016118a890613bea565b60405180910390fd5b60018160060160016101000a81548160ff021916908315150217905550817f824ddbbefe407d851761448beac466ca7e56672a30c317ab610c38e8caf95b77426040516118fe9190612977565b60405180910390a25050565b600360009054906101000a900473ffffffffffffffffffffffffffffffffffffffff1681565b600360009054906101000a900473ffffffffffffffffffffffffffffffffffffffff1673ffffffffffffffffffffffffffffffffffffffff163373ffffffffffffffffffffffffffffffffffffffff16146119c0576040517f08c379a00000000000000000000000000000000000000000000000000000000081526004016119b790613652565b60405180910390fd5b60008111611a03576040517f08c379a00000000000000000000000000000000000000000000000000000000081526004016119fa90613c56565b60405180910390fd5b60046040518060600160405280848152602001838152602001600081525090806001815401808255809150506001900390600052602060002090600302016000909190919091506000820151816000019081611a5f9190613c76565b50602082015181600101556040820151816002015550505050565b6000600680549050905090565b600280811115611a9a57611a99612d27565b5b600360159054906101000a900460ff166002811115611abc57611abb612d27565b5b14611afc576040517f08c379a0000000000000000000000000000000000000000000000000000000008152600401611af390613d94565b60405180910390fd5b6000600560003373ffffffffffffffffffffffffffffffffffffffff1673ffffffffffffffffffffffffffffffffffffffff16815260200190815260200160002060000154905060008111611b86576040517f08c379a0000000000000000000000000000000000000000000000000000000008152600401611b7d90613e00565b60405180910390fd5b6000600560003373ffffffffffffffffffffffffffffffffffffffff1673ffffffffffffffffffffffffffffffffffffffff168152602001908152602001600020600001819055508060086000828254611be09190613300565b925050819055503373ffffffffffffffffffffffffffffffffffffffff166108fc829081150290604051600060405180830381858888f19350505050158015611c2d573d6000803e3d6000fd5b503373ffffffffffffffffffffffffffffffffffffffff167f358fe4192934d3bf28ae181feda1f4bd08ca67f5e2fad55582cce5eb67304ae982604051611c749190612977565b60405180910390a250565b60056020528060005260406000206000915090508060000154905081565b60008083118015611cb057506009548311155b611cef576040517f08c379a0000000000000000000000000000000000000000000000000000000008152600401611ce690613e6c565b60405180910390fd5b6000600a600085815260200190815260200160002090508060070160008473ffffffffffffffffffffffffffffffffffffffff1673ffffffffffffffffffffffffffffffffffffffff16815260200190815260200160002060009054906101000a900460ff1691505092915050565b600360159054906101000a900460ff1681565b600360009054906101000a900473ffffffffffffffffffffffffffffffffffffffff1673ffffffffffffffffffffffffffffffffffffffff163373ffffffffffffffffffffffffffffffffffffffff1614611e01576040517f08c379a0000000000000000000000000000000000000000000000000000000008152600401611df890613652565b60405180910390fd5b600360149054906101000a900460ff1615600360146101000a81548160ff021916908315150217905550565b600082118015611e3f57506009548211155b611e7e576040517f08c379a0000000000000000000000000000000000000000000000000000000008152600401611e75906130cd565b60405180910390fd5b6000600a600084815260200190815260200160002090508060060160009054906101000a900460ff1615611ee7576040517f08c379a0000000000000000000000000000000000000000000000000000000008152600401611ede90613ed8565b60405180910390fd5b600760003373ffffffffffffffffffffffffffffffffffffffff1673ffffffffffffffffffffffffffffffffffffffff16815260200190815260200160002060009054906101000a900460ff16611f73576040517f08c379a0000000000000000000000000000000000000000000000000000000008152600401611f6a90613f44565b60405180910390fd5b60008160070160003373ffffffffffffffffffffffffffffffffffffffff1673ffffffffffffffffffffffffffffffffffffffff16815260200190815260200160002060009054906101000a900460ff16905060008160ff161461200c576040517f08c379a000000000000000000000000000000000000000000000000000000000815260040161200390613fb0565b60405180910390fd5b6000600560003373ffffffffffffffffffffffffffffffffffffffff1673ffffffffffffffffffffffffffffffffffffffff16815260200190815260200160002060000154905060008111612096576040517f08c379a000000000000000000000000000000000000000000000000000000000815260040161208d9061401c565b60405180910390fd5b831561211757808360020160008282546120b09190613260565b9250508190555060018360070160003373ffffffffffffffffffffffffffffffffffffffff1673ffffffffffffffffffffffffffffffffffffffff16815260200190815260200160002060006101000a81548160ff021916908360ff16021790555061218e565b8083600301600082825461212b9190613260565b9250508190555060028360070160003373ffffffffffffffffffffffffffffffffffffffff1673ffffffffffffffffffffffffffffffffffffffff16815260200190815260200160002060006101000a81548160ff021916908360ff1602179055505b3373ffffffffffffffffffffffffffffffffffffffff16857f95cc9f976446efcfb6e900247f2f77ed7879705426729c3bdccbef5c204a53f586846040516121d79291906135dd565b60405180910390a35050505050565b600360149054906101000a900460ff1615612236576040517f08c379a000000000000000000000000000000000000000000000000000000000815260040161222d90614088565b60405180910390fd5b60003411612279576040517f08c379a0000000000000000000000000000000000000000000000000000000008152600401612270906140f4565b60405180910390fd5b600480549050811015612395576004818154811061229a57612299613334565b5b90600052602060002090600302016001015434146122ed576040517f08c379a00000000000000000000000000000000000000000000000000000000081526004016122e490614160565b60405180910390fd5b6004818154811061230157612300613334565b5b9060005260206000209060030201600201600081548092919061232390613363565b91905055506001600560003373ffffffffffffffffffffffffffffffffffffffff1673ffffffffffffffffffffffffffffffffffffffff168152602001908152602001600020600101600083815260200190815260200160002060006101000a81548160ff0219169083151502179055505b600760003373ffffffffffffffffffffffffffffffffffffffff1673ffffffffffffffffffffffffffffffffffffffff16815260200190815260200160002060009054906101000a900460ff166124a2576001600760003373ffffffffffffffffffffffffffffffffffffffff1673ffffffffffffffffffffffffffffffffffffffff16815260200190815260200160002060006101000a81548160ff0219169083151502179055506006339080600181540180825580915050600190039060005260206000200160009091909190916101000a81548173ffffffffffffffffffffffffffffffffffffffff021916908373ffffffffffffffffffffffffffffffffffffffff1602179055505b34600560003373ffffffffffffffffffffffffffffffffffffffff1673ffffffffffffffffffffffffffffffffffffffff16815260200190815260200160002060000160008282546124f49190613260565b92505081905550346008600082825461250d9190613260565b925050819055503373ffffffffffffffffffffffffffffffffffffffff167f3168ca6b1e292883c0668008556fb887f7cce92bcd3c1c57c15a34dcdccd589234834260405161255e939291906137b6565b60405180910390a250565b6000806000806000806000808811801561258557506009548811155b6125c4576040517f08c379a00000000000000000000000000000000000000000000000000000000081526004016125bb90613e6c565b60405180910390fd5b6000600a60008a8152602001908152602001600020905080600001549750806001015496508060020154955080600301549450806004015493508060060160009054906101000a900460ff1692508060060160019054906101000a900460ff16915050919395979092949650565b6000600680549050821061267b576040517f08c379a0000000000000000000000000000000000000000000000000000000008152600401612672906141cc565b60405180910390fd5b6006828154811061268f5761268e613334565b5b9060005260206000200160009054906101000a900473ffffffffffffffffffffffffffffffffffffffff169050919050565b60606004805480602002602001604051908101604052809291908181526020016000905b828210156127bd578382906000526020600020906003020160405180606001604052908160008201805461271890613050565b80601f016020809104026020016040519081016040528092919081815260200182805461274490613050565b80156127915780601f1061276657610100808354040283529160200191612791565b820191906000526020600020905b81548152906001019060200180831161277457829003601f168201915b5050505050815260200160018201548152602001600282015481525050815260200190600101906126e5565b50505050905090565b5080546127d290613050565b6000825580601f106127e45750612803565b601f0160209004906000526020600020908101906128029190612806565b5b50565b5b8082111561281f576000816000905550600101612807565b5090565b6000604051905090565b600080fd5b600080fd5b6000819050919050565b61284a81612837565b811461285557600080fd5b50565b60008135905061286781612841565b92915050565b6000602082840312156128835761288261282d565b5b600061289184828501612858565b91505092915050565b600081519050919050565b600082825260208201905092915050565b60005b838110156128d45780820151818401526020810190506128b9565b60008484015250505050565b6000601f19601f8301169050919050565b60006128fc8261289a565b61290681856128a5565b93506129168185602086016128b6565b61291f816128e0565b840191505092915050565b61293381612837565b82525050565b6000606082019050818103600083015261295381866128f1565b9050612962602083018561292a565b61296f604083018461292a565b949350505050565b600060208201905061298c600083018461292a565b92915050565b600080604083850312156129a9576129a861282d565b5b60006129b785828601612858565b92505060206129c885828601612858565b9150509250929050565b60008115159050919050565b6129e7816129d2565b82525050565b6000602082019050612a0260008301846129de565b92915050565b600073ffffffffffffffffffffffffffffffffffffffff82169050919050565b6000612a3382612a08565b9050919050565b612a4381612a28565b8114612a4e57600080fd5b50565b600081359050612a6081612a3a565b92915050565b60008060408385031215612a7d57612a7c61282d565b5b6000612a8b85828601612a51565b9250506020612a9c85828601612858565b9150509250929050565b612aaf81612a28565b82525050565b6000602082019050612aca6000830184612aa6565b92915050565b60006020820190508181036000830152612aea81846128f1565b905092915050565b600060208284031215612b0857612b0761282d565b5b6000612b1684828501612a51565b91505092915050565b600080fd5b600080fd5b7f4e487b7100000000000000000000000000000000000000000000000000000000600052604160045260246000fd5b612b61826128e0565b810181811067ffffffffffffffff82111715612b8057612b7f612b29565b5b80604052505050565b6000612b93612823565b9050612b9f8282612b58565b919050565b600067ffffffffffffffff821115612bbf57612bbe612b29565b5b612bc8826128e0565b9050602081019050919050565b82818337600083830152505050565b6000612bf7612bf284612ba4565b612b89565b905082815260208101848484011115612c1357612c12612b24565b5b612c1e848285612bd5565b509392505050565b600082601f830112612c3b57612c3a612b1f565b5b8135612c4b848260208601612be4565b91505092915050565b60008060408385031215612c6b57612c6a61282d565b5b600083013567ffffffffffffffff811115612c8957612c88612832565b5b612c9585828601612c26565b9250506020612ca685828601612858565b9150509250929050565b60008060408385031215612cc757612cc661282d565b5b6000612cd585828601612858565b9250506020612ce685828601612a51565b9150509250929050565b600060ff82169050919050565b612d0681612cf0565b82525050565b6000602082019050612d216000830184612cfd565b92915050565b7f4e487b7100000000000000000000000000000000000000000000000000000000600052602160045260246000fd5b60038110612d6757612d66612d27565b5b50565b6000819050612d7882612d56565b919050565b6000612d8882612d6a565b9050919050565b612d9881612d7d565b82525050565b6000602082019050612db36000830184612d8f565b92915050565b612dc2816129d2565b8114612dcd57600080fd5b50565b600081359050612ddf81612db9565b92915050565b60008060408385031215612dfc57612dfb61282d565b5b6000612e0a85828601612858565b9250506020612e1b85828601612dd0565b9150509250929050565b600060e082019050612e3a600083018a61292a565b612e47602083018961292a565b612e54604083018861292a565b612e61606083018761292a565b612e6e608083018661292a565b612e7b60a08301856129de565b612e8860c08301846129de565b98975050505050505050565b600081519050919050565b600082825260208201905092915050565b6000819050602082019050919050565b600082825260208201905092915050565b6000612edc8261289a565b612ee68185612ec0565b9350612ef68185602086016128b6565b612eff816128e0565b840191505092915050565b612f1381612837565b82525050565b60006060830160008301518482036000860152612f368282612ed1565b9150506020830151612f4b6020860182612f0a565b506040830151612f5e6040860182612f0a565b508091505092915050565b6000612f758383612f19565b905092915050565b6000602082019050919050565b6000612f9582612e94565b612f9f8185612e9f565b935083602082028501612fb185612eb0565b8060005b85811015612fed5784840389528151612fce8582612f69565b9450612fd983612f7d565b925060208a01995050600181019050612fb5565b50829750879550505050505092915050565b600060208201905081810360008301526130198184612f8a565b905092915050565b7f4e487b7100000000000000000000000000000000000000000000000000000000600052602260045260246000fd5b6000600282049050600182168061306857607f821691505b60208210810361307b5761307a613021565b5b50919050565b7f496e76616c696420726571756573742069642e00000000000000000000000000600082015250565b60006130b76013836128a5565b91506130c282613081565b602082019050919050565b600060208201905081810360008301526130e6816130aa565b9050919050565b7f416c72656164792066696e616c697a65642e0000000000000000000000000000600082015250565b60006131236012836128a5565b915061312e826130ed565b602082019050919050565b6000602082019050818103600083015261315281613116565b9050919050565b7f43616d706169676e206e6f74206163746976652e000000000000000000000000600082015250565b600061318f6014836128a5565b915061319a82613159565b602082019050919050565b600060208201905081810360008301526131be81613182565b9050919050565b7f566f74696e6720706572696f64206e6f7420656e6465642e0000000000000000600082015250565b60006131fb6018836128a5565b9150613206826131c5565b602082019050919050565b6000602082019050818103600083015261322a816131ee565b9050919050565b7f4e487b7100000000000000000000000000000000000000000000000000000000600052601160045260246000fd5b600061326b82612837565b915061327683612837565b925082820190508082111561328e5761328d613231565b5b92915050565b7f496e76616c696420776569676874732e00000000000000000000000000000000600082015250565b60006132ca6010836128a5565b91506132d582613294565b602082019050919050565b600060208201905081810360008301526132f9816132bd565b9050919050565b600061330b82612837565b915061331683612837565b925082820390508181111561332e5761332d613231565b5b92915050565b7f4e487b7100000000000000000000000000000000000000000000000000000000600052603260045260246000fd5b600061336e82612837565b91507fffffffffffffffffffffffffffffffffffffffffffffffffffffffffffffffff82036133a05761339f613231565b5b600182019050919050565b60006133b682612837565b91506133c183612837565b92508282026133cf81612837565b915082820484148315176133e6576133e5613231565b5b5092915050565b7f4e487b7100000000000000000000000000000000000000000000000000000000600052601260045260246000fd5b600061342782612837565b915061343283612837565b925082613442576134416133ed565b5b828204905092915050565b7f4c61726765737420617070726f7665722068617320696e73756666696369656e60008201527f7420636f6e747269627574696f6e20666f722072656d61696e6465722e000000602082015250565b60006134a9603d836128a5565b91506134b48261344d565b604082019050919050565b600060208201905081810360008301526134d88161349c565b9050919050565b7f4e6f20617070726f76657220617661696c61626c6520666f722072656d61696e60008201527f64657220646973747269627574696f6e2e000000000000000000000000000000602082015250565b600061353b6031836128a5565b9150613546826134df565b604082019050919050565b6000602082019050818103600083015261356a8161352e565b9050919050565b7f4469737472696275746564206d69736d617463682e0000000000000000000000600082015250565b60006135a76015836128a5565b91506135b282613571565b602082019050919050565b600060208201905081810360008301526135d68161359a565b9050919050565b60006040820190506135f260008301856129de565b6135ff602083018461292a565b9392505050565b7f596f7520617265206e6f7420746865206f776e65722e00000000000000000000600082015250565b600061363c6016836128a5565b915061364782613606565b602082019050919050565b6000602082019050818103600083015261366b8161362f565b9050919050565b7f496e73756666696369656e7420636f6e74726163742062616c616e63652e0000600082015250565b60006136a8601e836128a5565b91506136b382613672565b602082019050919050565b600060208201905081810360008301526136d78161369b565b9050919050565b7f50726576696f75732072657175657374206e6f742066696e616c697a65642e00600082015250565b6000613714601f836128a5565b915061371f826136de565b602082019050919050565b6000602082019050818103600083015261374381613707565b9050919050565b7f50726576696f75732070726f6f66206e6f74207375626d69747465642e000000600082015250565b6000613780601d836128a5565b915061378b8261374a565b602082019050919050565b600060208201905081810360008301526137af81613773565b9050919050565b60006060820190506137cb600083018661292a565b6137d8602083018561292a565b6137e5604083018461292a565b949350505050565b7f5469657220646f6573206e6f742065786973742e000000000000000000000000600082015250565b60006138236014836128a5565b915061382e826137ed565b602082019050919050565b6000602082019050818103600083015261385281613816565b9050919050565b60008154905061386881613050565b9050919050565b60008190508160005260206000209050919050565b60006020601f8301049050919050565b600082821b905092915050565b6000600883026138d17fffffffffffffffffffffffffffffffffffffffffffffffffffffffffffffffff82613894565b6138db8683613894565b95508019841693508086168417925050509392505050565b6000819050919050565b600061391861391361390e84612837565b6138f3565b612837565b9050919050565b6000819050919050565b613932836138fd565b61394661393e8261391f565b8484546138a1565b825550505050565b600090565b61395b61394e565b613966818484613929565b505050565b5b8181101561398a5761397f600082613953565b60018101905061396c565b5050565b601f8211156139cf576139a08161386f565b6139a984613884565b810160208510156139b8578190505b6139cc6139c485613884565b83018261396b565b50505b505050565b600082821c905092915050565b60006139f2600019846008026139d4565b1980831691505092915050565b6000613a0b83836139e1565b9150826002028217905092915050565b818103613a29575050613b01565b613a3282613859565b67ffffffffffffffff811115613a4b57613a4a612b29565b5b613a558254613050565b613a6082828561398e565b6000601f831160018114613a8f5760008415613a7d578287015490505b613a8785826139ff565b865550613afa565b601f198416613a9d8761386f565b9650613aa88661386f565b60005b82811015613ad057848901548255600182019150600185019450602081019050613aab565b86831015613aed5784890154613ae9601f8916826139e1565b8355505b6001600288020188555050505b5050505050505b565b7f4e487b7100000000000000000000000000000000000000000000000000000000600052603160045260246000fd5b7f52657175657374206e6f742066696e616c697a6564207965742e000000000000600082015250565b6000613b68601a836128a5565b9150613b7382613b32565b602082019050919050565b60006020820190508181036000830152613b9781613b5b565b9050919050565b7f50726f6f6620616c7265616479207375626d69747465642e0000000000000000600082015250565b6000613bd46018836128a5565b9150613bdf82613b9e565b602082019050919050565b60006020820190508181036000830152613c0381613bc7565b9050919050565b7f416d6f756e74206d7573742062652067726561746572207468616e20302e0000600082015250565b6000613c40601e836128a5565b9150613c4b82613c0a565b602082019050919050565b60006020820190508181036000830152613c6f81613c33565b9050919050565b613c7f8261289a565b67ffffffffffffffff811115613c9857613c97612b29565b5b613ca28254613050565b613cad82828561398e565b600060209050601f831160018114613ce05760008415613cce578287015190505b613cd885826139ff565b865550613d40565b601f198416613cee8661386f565b60005b82811015613d1657848901518255600182019150602085019450602081019050613cf1565b86831015613d335784890151613d2f601f8916826139e1565b8355505b6001600288020188555050505b505050505050565b7f526566756e6473206e6f7420616c6c6f7765642e000000000000000000000000600082015250565b6000613d7e6014836128a5565b9150613d8982613d48565b602082019050919050565b60006020820190508181036000830152613dad81613d71565b9050919050565b7f4e6f7468696e6720746f20726566756e642e0000000000000000000000000000600082015250565b6000613dea6012836128a5565b9150613df582613db4565b602082019050919050565b60006020820190508181036000830152613e1981613ddd565b9050919050565b7f496e76616c69642069642e000000000000000000000000000000000000000000600082015250565b6000613e56600b836128a5565b9150613e6182613e20565b602082019050919050565b60006020820190508181036000830152613e8581613e49565b9050919050565b7f5265717565737420616c72656164792066696e616c697a65642e000000000000600082015250565b6000613ec2601a836128a5565b9150613ecd82613e8c565b602082019050919050565b60006020820190508181036000830152613ef181613eb5565b9050919050565b7f4e6f742061206261636b65722e00000000000000000000000000000000000000600082015250565b6000613f2e600d836128a5565b9150613f3982613ef8565b602082019050919050565b60006020820190508181036000830152613f5d81613f21565b9050919050565b7f416c726561647920766f7465642e000000000000000000000000000000000000600082015250565b6000613f9a600e836128a5565b9150613fa582613f64565b602082019050919050565b60006020820190508181036000830152613fc981613f8d565b9050919050565b7f4e6f20636f6e747269627574696f6e20746f207765696768742e000000000000600082015250565b6000614006601a836128a5565b915061401182613fd0565b602082019050919050565b6000602082019050818103600083015261403581613ff9565b9050919050565b7f436f6e7472616374206973207061757365642e00000000000000000000000000600082015250565b60006140726013836128a5565b915061407d8261403c565b602082019050919050565b600060208201905081810360008301526140a181614065565b9050919050565b7f4d7573742066756e6420616d6f756e742067726561746572207468616e20302e600082015250565b60006140de6020836128a5565b91506140e9826140a8565b602082019050919050565b6000602082019050818103600083015261410d816140d1565b9050919050565b7f496e76616c696420746965722e00000000000000000000000000000000000000600082015250565b600061414a600d836128a5565b915061415582614114565b602082019050919050565b600060208201905081810360008301526141798161413d565b9050919050565b7f496e646578206f7574206f6620626f756e64732e000000000000000000000000600082015250565b60006141b66014836128a5565b91506141c182614180565b602082019050919050565b600060208201905081810360008301526141e5816141a9565b905091905056fea2646970667358221220d7e4418e73b35f21011d6751d24c1533227c5fd18cbb8c1972f0ea3da68d86fd64736f6c63430008140033",
  "linkReferences": {},
  "deployedLinkReferences": {}
}