{
  "_format": "hh-sol-artifact-1",
  "contractName": "Crowdfunding",
  "sourceName": "contracts/Crowdfunding.sol",
  "abi": [
    {
      "inputs": [
        {
          "internalType": "address",
          "name": "_owner",
          "type": "address"
        },
        {
          "internalType": "string",
          "name": "_name",
          "type": "string"
        },
        {
          "internalType": "string",
          "name": "_description",
          "type": "string"
        },
        {
          "internalType": "uint256",
          "name": "_goal",
          "type": "uint256"
        },
        {
          "internalType": "uint256",
          "name": "_durationDays",
          "type": "uint256"
        }
      ],
      "stateMutability": "nonpayable",
      "type": "constructor"
    },
    {
      "inputs": [
        {
          "internalType": "string",
          "name": "_name",
          "type": "string"
        },
        {
          "internalType": "uint256",
          "name": "_amount",
          "type": "uint256"
        }
      ],
      "name": "addTier",
      "outputs": [],
      "stateMutability": "nonpayable",
      "type": "function"
    },
    {
      "inputs": [
        {
          "internalType": "address",
          "name": "",
          "type": "address"
        }
      ],
      "name": "backers",
      "outputs": [
        {
          "internalType": "uint256",
          "name": "totalContribution",
          "type": "uint256"
        }
      ],
      "stateMutability": "view",
      "type": "function"
    },
    {
      "inputs": [],
      "name": "campaign",
      "outputs": [
        {
          "internalType": "string",
          "name": "",
          "type": "string"
        }
      ],
      "stateMutability": "view",
      "type": "function"
    },
    {
      "inputs": [],
      "name": "deadline",
      "outputs": [
        {
          "internalType": "uint256",
          "name": "",
          "type": "uint256"
        }
      ],
      "stateMutability": "view",
      "type": "function"
    },
    {
      "inputs": [],
      "name": "description",
      "outputs": [
        {
          "internalType": "string",
          "name": "",
          "type": "string"
        }
      ],
      "stateMutability": "view",
      "type": "function"
    },
    {
      "inputs": [
        {
          "internalType": "uint256",
          "name": "_daysToAdd",
          "type": "uint256"
        }
      ],
      "name": "extendDeadline",
      "outputs": [],
      "stateMutability": "nonpayable",
      "type": "function"
    },
    {
      "inputs": [
        {
          "internalType": "uint256",
          "name": "_tierIndex",
          "type": "uint256"
        }
      ],
      "name": "fund",
      "outputs": [],
      "stateMutability": "payable",
      "type": "function"
    },
    {
      "inputs": [],
      "name": "getCampaignStatus",
      "outputs": [
        {
          "internalType": "enum Crowdfunding.CampaignState",
          "name": "",
          "type": "uint8"
        }
      ],
      "stateMutability": "view",
      "type": "function"
    },
    {
      "inputs": [],
      "name": "getContractBalance",
      "outputs": [
        {
          "internalType": "uint256",
          "name": "",
          "type": "uint256"
        }
      ],
      "stateMutability": "view",
      "type": "function"
    },
    {
      "inputs": [],
      "name": "getTiers",
      "outputs": [
        {
          "components": [
            {
              "internalType": "string",
              "name": "name",
              "type": "string"
            },
            {
              "internalType": "uint256",
              "name": "amount",
              "type": "uint256"
            },
            {
              "internalType": "uint256",
              "name": "backers",
              "type": "uint256"
            }
          ],
          "internalType": "struct Crowdfunding.Tier[]",
          "name": "",
          "type": "tuple[]"
        }
      ],
      "stateMutability": "view",
      "type": "function"
    },
    {
      "inputs": [],
      "name": "goal",
      "outputs": [
        {
          "internalType": "uint256",
          "name": "",
          "type": "uint256"
        }
      ],
      "stateMutability": "view",
      "type": "function"
    },
    {
      "inputs": [
        {
          "internalType": "address",
          "name": "_backer",
          "type": "address"
        },
        {
          "internalType": "uint256",
          "name": "_tierIndex",
          "type": "uint256"
        }
      ],
      "name": "hasFundedTiers",
      "outputs": [
        {
          "internalType": "bool",
          "name": "",
          "type": "bool"
        }
      ],
      "stateMutability": "view",
      "type": "function"
    },
    {
      "inputs": [],
      "name": "owner",
      "outputs": [
        {
          "internalType": "address",
          "name": "",
          "type": "address"
        }
      ],
      "stateMutability": "view",
      "type": "function"
    },
    {
      "inputs": [],
      "name": "paused",
      "outputs": [
        {
          "internalType": "bool",
          "name": "",
          "type": "bool"
        }
      ],
      "stateMutability": "view",
      "type": "function"
    },
    {
      "inputs": [],
      "name": "refund",
      "outputs": [],
      "stateMutability": "nonpayable",
      "type": "function"
    },
    {
      "inputs": [
        {
          "internalType": "uint256",
          "name": "_index",
          "type": "uint256"
        }
      ],
      "name": "removeTier",
      "outputs": [],
      "stateMutability": "nonpayable",
      "type": "function"
    },
    {
      "inputs": [],
      "name": "state",
      "outputs": [
        {
          "internalType": "enum Crowdfunding.CampaignState",
          "name": "",
          "type": "uint8"
        }
      ],
      "stateMutability": "view",
      "type": "function"
    },
    {
      "inputs": [
        {
          "internalType": "uint256",
          "name": "",
          "type": "uint256"
        }
      ],
      "name": "tiers",
      "outputs": [
        {
          "internalType": "string",
          "name": "name",
          "type": "string"
        },
        {
          "internalType": "uint256",
          "name": "amount",
          "type": "uint256"
        },
        {
          "internalType": "uint256",
          "name": "backers",
          "type": "uint256"
        }
      ],
      "stateMutability": "view",
      "type": "function"
    },
    {
      "inputs": [],
      "name": "togglePause",
      "outputs": [],
      "stateMutability": "nonpayable",
      "type": "function"
    },
    {
      "inputs": [],
      "name": "withdraw",
      "outputs": [],
      "stateMutability": "nonpayable",
      "type": "function"
    }
  ],
  "bytecode": "0x60806040523480156200001157600080fd5b5060405162002cc438038062002cc4833981810160405281019062000037919062000333565b83600090816200004891906200063a565b5082600190816200005a91906200063a565b5081600281905550620151808162000073919062000750565b426200008091906200079b565b60038190555084600460006101000a81548173ffffffffffffffffffffffffffffffffffffffff021916908373ffffffffffffffffffffffffffffffffffffffff1602179055506000600460156101000a81548160ff02191690836002811115620000f057620000ef620007d6565b5b0217905550505050505062000805565b6000604051905090565b600080fd5b600080fd5b600073ffffffffffffffffffffffffffffffffffffffff82169050919050565b6000620001418262000114565b9050919050565b620001538162000134565b81146200015f57600080fd5b50565b600081519050620001738162000148565b92915050565b600080fd5b600080fd5b6000601f19601f8301169050919050565b7f4e487b7100000000000000000000000000000000000000000000000000000000600052604160045260246000fd5b620001ce8262000183565b810181811067ffffffffffffffff82111715620001f057620001ef62000194565b5b80604052505050565b60006200020562000100565b9050620002138282620001c3565b919050565b600067ffffffffffffffff82111562000236576200023562000194565b5b620002418262000183565b9050602081019050919050565b60005b838110156200026e57808201518184015260208101905062000251565b60008484015250505050565b6000620002916200028b8462000218565b620001f9565b905082815260208101848484011115620002b057620002af6200017e565b5b620002bd8482856200024e565b509392505050565b600082601f830112620002dd57620002dc62000179565b5b8151620002ef8482602086016200027a565b91505092915050565b6000819050919050565b6200030d81620002f8565b81146200031957600080fd5b50565b6000815190506200032d8162000302565b92915050565b600080600080600060a086880312156200035257620003516200010a565b5b6000620003628882890162000162565b955050602086015167ffffffffffffffff8111156200038657620003856200010f565b5b6200039488828901620002c5565b945050604086015167ffffffffffffffff811115620003b857620003b76200010f565b5b620003c688828901620002c5565b9350506060620003d9888289016200031c565b9250506080620003ec888289016200031c565b9150509295509295909350565b600081519050919050565b7f4e487b7100000000000000000000000000000000000000000000000000000000600052602260045260246000fd5b600060028204905060018216806200044c57607f821691505b60208210810362000462576200046162000404565b5b50919050565b60008190508160005260206000209050919050565b60006020601f8301049050919050565b600082821b905092915050565b600060088302620004cc7fffffffffffffffffffffffffffffffffffffffffffffffffffffffffffffffff826200048d565b620004d886836200048d565b95508019841693508086168417925050509392505050565b6000819050919050565b60006200051b620005156200050f84620002f8565b620004f0565b620002f8565b9050919050565b6000819050919050565b6200053783620004fa565b6200054f620005468262000522565b8484546200049a565b825550505050565b600090565b6200056662000557565b620005738184846200052c565b505050565b5b818110156200059b576200058f6000826200055c565b60018101905062000579565b5050565b601f821115620005ea57620005b48162000468565b620005bf846200047d565b81016020851015620005cf578190505b620005e7620005de856200047d565b83018262000578565b50505b505050565b600082821c905092915050565b60006200060f60001984600802620005ef565b1980831691505092915050565b60006200062a8383620005fc565b9150826002028217905092915050565b6200064582620003f9565b67ffffffffffffffff81111562000661576200066062000194565b5b6200066d825462000433565b6200067a8282856200059f565b600060209050601f831160018114620006b257600084156200069d578287015190505b620006a985826200061c565b86555062000719565b601f198416620006c28662000468565b60005b82811015620006ec57848901518255600182019150602085019450602081019050620006c5565b868310156200070c578489015162000708601f891682620005fc565b8355505b6001600288020188555050505b505050505050565b7f4e487b7100000000000000000000000000000000000000000000000000000000600052601160045260246000fd5b60006200075d82620002f8565b91506200076a83620002f8565b92508282026200077a81620002f8565b9150828204841483151762000794576200079362000721565b5b5092915050565b6000620007a882620002f8565b9150620007b583620002f8565b9250828201905080821115620007d057620007cf62000721565b5b92915050565b7f4e487b7100000000000000000000000000000000000000000000000000000000600052602160045260246000fd5b6124af80620008156000396000f3fe60806040526004361061011f5760003560e01c80637284e416116100a0578063b85dfb8011610064578063b85dfb80146103a1578063c19d93fb146103de578063c4ae316814610409578063ca1d209d14610420578063de1705701461043c5761011f565b80637284e416146102ce5780637497211b146102f9578063811e539c146103225780638da5cb5b1461034d5780638ece7b91146103785761011f565b806340193883116100e757806340193883146101f9578063590e1ae3146102245780635c975abb1461023b578063663a48ee146102665780636f9fb98a146102a35761011f565b8063039af9eb14610124578063105505151461016357806329dcb0cf1461018e578063389b7533146101b95780633ccfd60b146101e2575b600080fd5b34801561013057600080fd5b5061014b60048036038101906101469190611458565b610467565b60405161015a93929190611524565b60405180910390f35b34801561016f57600080fd5b50610178610529565b60405161018591906115d9565b60405180910390f35b34801561019a57600080fd5b506101a36105a4565b6040516101b091906115f4565b60405180910390f35b3480156101c557600080fd5b506101e060048036038101906101db9190611458565b6105aa565b005b3480156101ee57600080fd5b506101f7610664565b005b34801561020557600080fd5b5061020e610826565b60405161021b91906115f4565b60405180910390f35b34801561023057600080fd5b5061023961082c565b005b34801561024757600080fd5b506102506109c5565b60405161025d919061162a565b60405180910390f35b34801561027257600080fd5b5061028d600480360381019061028891906116a3565b6109d8565b60405161029a919061162a565b60405180910390f35b3480156102af57600080fd5b506102b8610a43565b6040516102c591906115f4565b60405180910390f35b3480156102da57600080fd5b506102e3610a4b565b6040516102f091906116e3565b60405180910390f35b34801561030557600080fd5b50610320600480360381019061031b9190611458565b610ad9565b005b34801561032e57600080fd5b50610337610c7f565b60405161034491906116e3565b60405180910390f35b34801561035957600080fd5b50610362610d0d565b60405161036f9190611714565b60405180910390f35b34801561038457600080fd5b5061039f600480360381019061039a9190611864565b610d33565b005b3480156103ad57600080fd5b506103c860048036038101906103c391906118c0565b610e7d565b6040516103d591906115f4565b60405180910390f35b3480156103ea57600080fd5b506103f3610e9b565b60405161040091906115d9565b60405180910390f35b34801561041557600080fd5b5061041e610eae565b005b61043a60048036038101906104359190611458565b610f6a565b005b34801561044857600080fd5b506104516111e5565b60405161045e9190611a58565b60405180910390f35b6005818154811061047757600080fd5b906000526020600020906003020160009150905080600001805461049a90611aa9565b80601f01602080910402602001604051908101604052809291908181526020018280546104c690611aa9565b80156105135780601f106104e857610100808354040283529160200191610513565b820191906000526020600020905b8154815290600101906020018083116104f657829003601f168201915b5050505050908060010154908060020154905083565b600080600281111561053e5761053d611562565b5b600460159054906101000a900460ff1660028111156105605761055f611562565b5b14801561056e575060035442115b1561058e57600254471015610584576002610587565b60015b90506105a1565b600460159054906101000a900460ff1690505b90565b60035481565b600460009054906101000a900473ffffffffffffffffffffffffffffffffffffffff1673ffffffffffffffffffffffffffffffffffffffff163373ffffffffffffffffffffffffffffffffffffffff161461063a576040517f08c379a000000000000000000000000000000000000000000000000000000000815260040161063190611b26565b60405180910390fd5b62015180816106499190611b75565b6003600082825461065a9190611bb7565b9250508190555050565b600460009054906101000a900473ffffffffffffffffffffffffffffffffffffffff1673ffffffffffffffffffffffffffffffffffffffff163373ffffffffffffffffffffffffffffffffffffffff16146106f4576040517f08c379a00000000000000000000000000000000000000000000000000000000081526004016106eb90611b26565b60405180910390fd5b6106fc6112ea565b600160028111156107105761070f611562565b5b600460159054906101000a900460ff16600281111561073257610731611562565b5b14610772576040517f08c379a000000000000000000000000000000000000000000000000000000000815260040161076990611c37565b60405180910390fd5b6000479050600081116107ba576040517f08c379a00000000000000000000000000000000000000000000000000000000081526004016107b190611ca3565b60405180910390fd5b600460009054906101000a900473ffffffffffffffffffffffffffffffffffffffff1673ffffffffffffffffffffffffffffffffffffffff166108fc829081150290604051600060405180830381858888f19350505050158015610822573d6000803e3d6000fd5b5050565b60025481565b6108346112ea565b60028081111561084757610846611562565b5b600460159054906101000a900460ff16600281111561086957610868611562565b5b146108a9576040517f08c379a00000000000000000000000000000000000000000000000000000000081526004016108a090611d0f565b60405180910390fd5b6000600660003373ffffffffffffffffffffffffffffffffffffffff1673ffffffffffffffffffffffffffffffffffffffff16815260200190815260200160002060000154905060008111610933576040517f08c379a000000000000000000000000000000000000000000000000000000000815260040161092a90611d7b565b60405180910390fd5b6000600660003373ffffffffffffffffffffffffffffffffffffffff1673ffffffffffffffffffffffffffffffffffffffff168152602001908152602001600020600001819055503373ffffffffffffffffffffffffffffffffffffffff166108fc829081150290604051600060405180830381858888f193505050501580156109c1573d6000803e3d6000fd5b5050565b600460149054906101000a900460ff1681565b6000600660008473ffffffffffffffffffffffffffffffffffffffff1673ffffffffffffffffffffffffffffffffffffffff168152602001908152602001600020600101600083815260200190815260200160002060009054906101000a900460ff16905092915050565b600047905090565b60018054610a5890611aa9565b80601f0160208091040260200160405190810160405280929190818152602001828054610a8490611aa9565b8015610ad15780601f10610aa657610100808354040283529160200191610ad1565b820191906000526020600020905b815481529060010190602001808311610ab457829003601f168201915b505050505081565b600460009054906101000a900473ffffffffffffffffffffffffffffffffffffffff1673ffffffffffffffffffffffffffffffffffffffff163373ffffffffffffffffffffffffffffffffffffffff1614610b69576040517f08c379a0000000000000000000000000000000000000000000000000000000008152600401610b6090611b26565b60405180910390fd5b6005805490508110610bb0576040517f08c379a0000000000000000000000000000000000000000000000000000000008152600401610ba790611de7565b60405180910390fd5b60056001600580549050610bc49190611e07565b81548110610bd557610bd4611e3b565b5b906000526020600020906003020160058281548110610bf757610bf6611e3b565b5b906000526020600020906003020160008201816000019081610c19919061202c565b5060018201548160010155600282015481600201559050506005805480610c4357610c42612114565b5b600190038181906000526020600020906003020160008082016000610c6891906113b1565b600182016000905560028201600090555050905550565b60008054610c8c90611aa9565b80601f0160208091040260200160405190810160405280929190818152602001828054610cb890611aa9565b8015610d055780601f10610cda57610100808354040283529160200191610d05565b820191906000526020600020905b815481529060010190602001808311610ce857829003601f168201915b505050505081565b600460009054906101000a900473ffffffffffffffffffffffffffffffffffffffff1681565b600460009054906101000a900473ffffffffffffffffffffffffffffffffffffffff1673ffffffffffffffffffffffffffffffffffffffff163373ffffffffffffffffffffffffffffffffffffffff1614610dc3576040517f08c379a0000000000000000000000000000000000000000000000000000000008152600401610dba90611b26565b60405180910390fd5b60008111610e06576040517f08c379a0000000000000000000000000000000000000000000000000000000008152600401610dfd9061218f565b60405180910390fd5b60056040518060600160405280848152602001838152602001600081525090806001815401808255809150506001900390600052602060002090600302016000909190919091506000820151816000019081610e6291906121af565b50602082015181600101556040820151816002015550505050565b60066020528060005260406000206000915090508060000154905081565b600460159054906101000a900460ff1681565b600460009054906101000a900473ffffffffffffffffffffffffffffffffffffffff1673ffffffffffffffffffffffffffffffffffffffff163373ffffffffffffffffffffffffffffffffffffffff1614610f3e576040517f08c379a0000000000000000000000000000000000000000000000000000000008152600401610f3590611b26565b60405180910390fd5b600460149054906101000a900460ff1615600460146101000a81548160ff021916908315150217905550565b60006002811115610f7e57610f7d611562565b5b600460159054906101000a900460ff166002811115610fa057610f9f611562565b5b14610fe0576040517f08c379a0000000000000000000000000000000000000000000000000000000008152600401610fd7906122cd565b60405180910390fd5b600460149054906101000a900460ff1615611030576040517f08c379a000000000000000000000000000000000000000000000000000000000815260040161102790612339565b60405180910390fd5b60003411611073576040517f08c379a000000000000000000000000000000000000000000000000000000000815260040161106a906123a5565b60405180910390fd5b6005818154811061108757611086611e3b565b5b90600052602060002090600302016001015434146110da576040517f08c379a00000000000000000000000000000000000000000000000000000000081526004016110d190612411565b60405180910390fd5b600581815481106110ee576110ed611e3b565b5b9060005260206000209060030201600201600081548092919061111090612431565b919050555034600660003373ffffffffffffffffffffffffffffffffffffffff1673ffffffffffffffffffffffffffffffffffffffff16815260200190815260200160002060000160008282546111679190611bb7565b925050819055506001600660003373ffffffffffffffffffffffffffffffffffffffff1673ffffffffffffffffffffffffffffffffffffffff168152602001908152602001600020600101600083815260200190815260200160002060006101000a81548160ff0219169083151502179055506111e26112ea565b50565b60606005805480602002602001604051908101604052809291908181526020016000905b828210156112e1578382906000526020600020906003020160405180606001604052908160008201805461123c90611aa9565b80601f016020809104026020016040519081016040528092919081815260200182805461126890611aa9565b80156112b55780601f1061128a576101008083540402835291602001916112b5565b820191906000526020600020905b81548152906001019060200180831161129857829003601f168201915b505050505081526020016001820154815260200160028201548152505081526020019060010190611209565b50505050905090565b600060028111156112fe576112fd611562565b5b600460159054906101000a900460ff1660028111156113205761131f611562565b5b036113af5760035442106113705760025447101561133f576002611342565b60015b600460156101000a81548160ff0219169083600281111561136657611365611562565b5b02179055506113ae565b600254471015611381576000611384565b60015b600460156101000a81548160ff021916908360028111156113a8576113a7611562565b5b02179055505b5b565b5080546113bd90611aa9565b6000825580601f106113cf57506113ee565b601f0160209004906000526020600020908101906113ed91906113f1565b5b50565b5b8082111561140a5760008160009055506001016113f2565b5090565b6000604051905090565b600080fd5b600080fd5b6000819050919050565b61143581611422565b811461144057600080fd5b50565b6000813590506114528161142c565b92915050565b60006020828403121561146e5761146d611418565b5b600061147c84828501611443565b91505092915050565b600081519050919050565b600082825260208201905092915050565b60005b838110156114bf5780820151818401526020810190506114a4565b60008484015250505050565b6000601f19601f8301169050919050565b60006114e782611485565b6114f18185611490565b93506115018185602086016114a1565b61150a816114cb565b840191505092915050565b61151e81611422565b82525050565b6000606082019050818103600083015261153e81866114dc565b905061154d6020830185611515565b61155a6040830184611515565b949350505050565b7f4e487b7100000000000000000000000000000000000000000000000000000000600052602160045260246000fd5b600381106115a2576115a1611562565b5b50565b60008190506115b382611591565b919050565b60006115c3826115a5565b9050919050565b6115d3816115b8565b82525050565b60006020820190506115ee60008301846115ca565b92915050565b60006020820190506116096000830184611515565b92915050565b60008115159050919050565b6116248161160f565b82525050565b600060208201905061163f600083018461161b565b92915050565b600073ffffffffffffffffffffffffffffffffffffffff82169050919050565b600061167082611645565b9050919050565b61168081611665565b811461168b57600080fd5b50565b60008135905061169d81611677565b92915050565b600080604083850312156116ba576116b9611418565b5b60006116c88582860161168e565b92505060206116d985828601611443565b9150509250929050565b600060208201905081810360008301526116fd81846114dc565b905092915050565b61170e81611665565b82525050565b60006020820190506117296000830184611705565b92915050565b600080fd5b600080fd5b7f4e487b7100000000000000000000000000000000000000000000000000000000600052604160045260246000fd5b611771826114cb565b810181811067ffffffffffffffff821117156117905761178f611739565b5b80604052505050565b60006117a361140e565b90506117af8282611768565b919050565b600067ffffffffffffffff8211156117cf576117ce611739565b5b6117d8826114cb565b9050602081019050919050565b82818337600083830152505050565b6000611807611802846117b4565b611799565b90508281526020810184848401111561182357611822611734565b5b61182e8482856117e5565b509392505050565b600082601f83011261184b5761184a61172f565b5b813561185b8482602086016117f4565b91505092915050565b6000806040838503121561187b5761187a611418565b5b600083013567ffffffffffffffff8111156118995761189861141d565b5b6118a585828601611836565b92505060206118b685828601611443565b9150509250929050565b6000602082840312156118d6576118d5611418565b5b60006118e48482850161168e565b91505092915050565b600081519050919050565b600082825260208201905092915050565b6000819050602082019050919050565b600082825260208201905092915050565b600061193582611485565b61193f8185611919565b935061194f8185602086016114a1565b611958816114cb565b840191505092915050565b61196c81611422565b82525050565b6000606083016000830151848203600086015261198f828261192a565b91505060208301516119a46020860182611963565b5060408301516119b76040860182611963565b508091505092915050565b60006119ce8383611972565b905092915050565b6000602082019050919050565b60006119ee826118ed565b6119f881856118f8565b935083602082028501611a0a85611909565b8060005b85811015611a465784840389528151611a2785826119c2565b9450611a32836119d6565b925060208a01995050600181019050611a0e565b50829750879550505050505092915050565b60006020820190508181036000830152611a7281846119e3565b905092915050565b7f4e487b7100000000000000000000000000000000000000000000000000000000600052602260045260246000fd5b60006002820490506001821680611ac157607f821691505b602082108103611ad457611ad3611a7a565b5b50919050565b7f596f7520617265206e6f7420746865206f776e65722e00000000000000000000600082015250565b6000611b10601683611490565b9150611b1b82611ada565b602082019050919050565b60006020820190508181036000830152611b3f81611b03565b9050919050565b7f4e487b7100000000000000000000000000000000000000000000000000000000600052601160045260246000fd5b6000611b8082611422565b9150611b8b83611422565b9250828202611b9981611422565b91508282048414831517611bb057611baf611b46565b5b5092915050565b6000611bc282611422565b9150611bcd83611422565b9250828201905080821115611be557611be4611b46565b5b92915050565b7f43616d706169676e206973206e6f74207375636365737366756c207965742e00600082015250565b6000611c21601f83611490565b9150611c2c82611beb565b602082019050919050565b60006020820190508181036000830152611c5081611c14565b9050919050565b7f4e6f2062616c616e636520746f2077697468647261772e000000000000000000600082015250565b6000611c8d601783611490565b9150611c9882611c57565b602082019050919050565b60006020820190508181036000830152611cbc81611c80565b9050919050565b7f526566756e6473206e6f7420617661696c61626c652e00000000000000000000600082015250565b6000611cf9601683611490565b9150611d0482611cc3565b602082019050919050565b60006020820190508181036000830152611d2881611cec565b9050919050565b7f4e6f7468696e6720746f20726566756e642e0000000000000000000000000000600082015250565b6000611d65601283611490565b9150611d7082611d2f565b602082019050919050565b60006020820190508181036000830152611d9481611d58565b9050919050565b7f5469657220646f6573206e6f742065786973742e000000000000000000000000600082015250565b6000611dd1601483611490565b9150611ddc82611d9b565b602082019050919050565b60006020820190508181036000830152611e0081611dc4565b9050919050565b6000611e1282611422565b9150611e1d83611422565b9250828203905081811115611e3557611e34611b46565b5b92915050565b7f4e487b7100000000000000000000000000000000000000000000000000000000600052603260045260246000fd5b600081549050611e7981611aa9565b9050919050565b60008190508160005260206000209050919050565b60006020601f8301049050919050565b600082821b905092915050565b600060088302611ee27fffffffffffffffffffffffffffffffffffffffffffffffffffffffffffffffff82611ea5565b611eec8683611ea5565b95508019841693508086168417925050509392505050565b6000819050919050565b6000611f29611f24611f1f84611422565b611f04565b611422565b9050919050565b6000819050919050565b611f4383611f0e565b611f57611f4f82611f30565b848454611eb2565b825550505050565b600090565b611f6c611f5f565b611f77818484611f3a565b505050565b5b81811015611f9b57611f90600082611f64565b600181019050611f7d565b5050565b601f821115611fe057611fb181611e80565b611fba84611e95565b81016020851015611fc9578190505b611fdd611fd585611e95565b830182611f7c565b50505b505050565b600082821c905092915050565b600061200360001984600802611fe5565b1980831691505092915050565b600061201c8383611ff2565b9150826002028217905092915050565b81810361203a575050612112565b61204382611e6a565b67ffffffffffffffff81111561205c5761205b611739565b5b6120668254611aa9565b612071828285611f9f565b6000601f8311600181146120a0576000841561208e578287015490505b6120988582612010565b86555061210b565b601f1984166120ae87611e80565b96506120b986611e80565b60005b828110156120e1578489015482556001820191506001850194506020810190506120bc565b868310156120fe57848901546120fa601f891682611ff2565b8355505b6001600288020188555050505b5050505050505b565b7f4e487b7100000000000000000000000000000000000000000000000000000000600052603160045260246000fd5b7f416d6f756e74206d7573742062652067726561746572207468616e20302e0000600082015250565b6000612179601e83611490565b915061218482612143565b602082019050919050565b600060208201905081810360008301526121a88161216c565b9050919050565b6121b882611485565b67ffffffffffffffff8111156121d1576121d0611739565b5b6121db8254611aa9565b6121e6828285611f9f565b600060209050601f8311600181146122195760008415612207578287015190505b6122118582612010565b865550612279565b601f19841661222786611e80565b60005b8281101561224f5784890151825560018201915060208501945060208101905061222a565b8683101561226c5784890151612268601f891682611ff2565b8355505b6001600288020188555050505b505050505050565b7f43616d706169676e206973206e6f742061637469766500000000000000000000600082015250565b60006122b7601683611490565b91506122c282612281565b602082019050919050565b600060208201905081810360008301526122e6816122aa565b9050919050565b7f436f6e7472616374206973207061757365642e00000000000000000000000000600082015250565b6000612323601383611490565b915061232e826122ed565b602082019050919050565b6000602082019050818103600083015261235281612316565b9050919050565b7f4d7573742066756e6420616d6f756e742067726561746572207468616e20302e600082015250565b600061238f602083611490565b915061239a82612359565b602082019050919050565b600060208201905081810360008301526123be81612382565b9050919050565b7f496e76616c696420746965722e00000000000000000000000000000000000000600082015250565b60006123fb600d83611490565b9150612406826123c5565b602082019050919050565b6000602082019050818103600083015261242a816123ee565b9050919050565b600061243c82611422565b91507fffffffffffffffffffffffffffffffffffffffffffffffffffffffffffffffff820361246e5761246d611b46565b5b60018201905091905056fea2646970667358221220e5c164fbf2cb2b0c2485fc93aeab91deacfac002b251754cd90e9d167ce239fa64736f6c63430008140033",
  "linkReferences": {},
  "deployedLinkReferences": {}
}