{
  "_format": "hh-sol-artifact-1",
  "contractName": "CrowdfundingFactory",
  "sourceName": "contracts/CrowdfundingFactory.sol",
  "abi": [
    {
      "inputs": [],
      "stateMutability": "nonpayable",
      "type": "constructor"
    },
    {
      "inputs": [
        {
          "internalType": "uint256",
          "name": "",
          "type": "uint256"
        }
      ],
      "name": "campaigns",
      "outputs": [
        {
          "internalType": "address",
          "name": "campaignAddress",
          "type": "address"
        },
        {
          "internalType": "address",
          "name": "owner",
          "type": "address"
        },
        {
          "internalType": "string",
          "name": "name",
          "type": "string"
        },
        {
          "internalType": "uint256",
          "name": "creationTime",
          "type": "uint256"
        }
      ],
      "stateMutability": "view",
      "type": "function"
    },
    {
      "inputs": [
        {
          "internalType": "string",
          "name": "_name",
          "type": "string"
        },
        {
          "internalType": "string",
          "name": "_description",
          "type": "string"
        },
        {
          "internalType": "uint256",
          "name": "_goal",
          "type": "uint256"
        },
        {
          "internalType": "uint256",
          "name": "_durationDays",
          "type": "uint256"
        }
      ],
      "name": "createCampaign",
      "outputs": [],
      "stateMutability": "nonpayable",
      "type": "function"
    },
    {
      "inputs": [],
      "name": "getAllCampaigns",
      "outputs": [
        {
          "components": [
            {
              "internalType": "address",
              "name": "campaignAddress",
              "type": "address"
            },
            {
              "internalType": "address",
              "name": "owner",
              "type": "address"
            },
            {
              "internalType": "string",
              "name": "name",
              "type": "string"
            },
            {
              "internalType": "uint256",
              "name": "creationTime",
              "type": "uint256"
            }
          ],
          "internalType": "struct CrowdfundingFactory.Campaign[]",
          "name": "",
          "type": "tuple[]"
        }
      ],
      "stateMutability": "view",
      "type": "function"
    },
    {
      "inputs": [
        {
          "internalType": "address",
          "name": "_user",
          "type": "address"
        }
      ],
      "name": "getUserCampaigns",
      "outputs": [
        {
          "components": [
            {
              "internalType": "address",
              "name": "campaignAddress",
              "type": "address"
            },
            {
              "internalType": "address",
              "name": "owner",
              "type": "address"
            },
            {
              "internalType": "string",
              "name": "name",
              "type": "string"
            },
            {
              "internalType": "uint256",
              "name": "creationTime",
              "type": "uint256"
            }
          ],
          "internalType": "struct CrowdfundingFactory.Campaign[]",
          "name": "",
          "type": "tuple[]"
        }
      ],
      "stateMutability": "view",
      "type": "function"
    },
    {
      "inputs": [],
      "name": "owner",
      "outputs": [
        {
          "internalType": "address",
          "name": "",
          "type": "address"
        }
      ],
      "stateMutability": "view",
      "type": "function"
    },
    {
      "inputs": [],
      "name": "paused",
      "outputs": [
        {
          "internalType": "bool",
          "name": "",
          "type": "bool"
        }
      ],
      "stateMutability": "view",
      "type": "function"
    },
    {
      "inputs": [],
      "name": "togglePause",
      "outputs": [],
      "stateMutability": "nonpayable",
      "type": "function"
    },
    {
      "inputs": [
        {
          "internalType": "address",
          "name": "",
          "type": "address"
        },
        {
          "internalType": "uint256",
          "name": "",
          "type": "uint256"
        }
      ],
      "name": "userCampaigns",
      "outputs": [
        {
          "internalType": "address",
          "name": "campaignAddress",
          "type": "address"
        },
        {
          "internalType": "address",
          "name": "owner",
          "type": "address"
        },
        {
          "internalType": "string",
          "name": "name",
          "type": "string"
        },
        {
          "internalType": "uint256",
          "name": "creationTime",
          "type": "uint256"
        }
      ],
      "stateMutability": "view",
      "type": "function"
    }
  ],
  "bytecode": "0x608060405234801561001057600080fd5b50336000806101000a81548173ffffffffffffffffffffffffffffffffffffffff021916908373ffffffffffffffffffffffffffffffffffffffff16021790555061442c806100606000396000f3fe60806040523480156200001157600080fd5b5060043610620000945760003560e01c80638da5cb5b11620000635780638da5cb5b146200014f578063a1e5084c1462000171578063a318f26914620001a7578063c4ae316814620001c75762000094565b8063141961bc146200009957806319ac74bd14620000d25780635c975abb146200010b57806386cdf604146200012d575b600080fd5b620000b76004803603810190620000b1919062000be4565b620001d3565b604051620000c9949392919062000d06565b60405180910390f35b620000f06004803603810190620000ea919062000d8b565b620002e4565b60405162000102949392919062000d06565b60405180910390f35b6200011562000402565b60405162000124919062000def565b60405180910390f35b6200013762000415565b60405162000146919062000fbb565b60405180910390f35b62000159620005c6565b60405162000168919062000fdf565b60405180910390f35b6200018f600480360381019062000189919062000ffc565b620005ea565b6040516200019e919062000fbb565b60405180910390f35b620001c56004803603810190620001bf91906200117f565b620007da565b005b620001d162000aca565b005b60018181548110620001e457600080fd5b90600052602060002090600402016000915090508060000160009054906101000a900473ffffffffffffffffffffffffffffffffffffffff16908060010160009054906101000a900473ffffffffffffffffffffffffffffffffffffffff169080600201805462000255906200125e565b80601f016020809104026020016040519081016040528092919081815260200182805462000283906200125e565b8015620002d45780601f10620002a857610100808354040283529160200191620002d4565b820191906000526020600020905b815481529060010190602001808311620002b657829003601f168201915b5050505050908060030154905084565b600260205281600052604060002081815481106200030157600080fd5b9060005260206000209060040201600091509150508060000160009054906101000a900473ffffffffffffffffffffffffffffffffffffffff16908060010160009054906101000a900473ffffffffffffffffffffffffffffffffffffffff169080600201805462000373906200125e565b80601f0160208091040260200160405190810160405280929190818152602001828054620003a1906200125e565b8015620003f25780601f10620003c657610100808354040283529160200191620003f2565b820191906000526020600020905b815481529060010190602001808311620003d457829003601f168201915b5050505050908060030154905084565b600060149054906101000a900460ff1681565b60606001805480602002602001604051908101604052809291908181526020016000905b82821015620005bd57838290600052602060002090600402016040518060800160405290816000820160009054906101000a900473ffffffffffffffffffffffffffffffffffffffff1673ffffffffffffffffffffffffffffffffffffffff1673ffffffffffffffffffffffffffffffffffffffff1681526020016001820160009054906101000a900473ffffffffffffffffffffffffffffffffffffffff1673ffffffffffffffffffffffffffffffffffffffff1673ffffffffffffffffffffffffffffffffffffffff1681526020016002820180546200051b906200125e565b80601f016020809104026020016040519081016040528092919081815260200182805462000549906200125e565b80156200059a5780601f106200056e576101008083540402835291602001916200059a565b820191906000526020600020905b8154815290600101906020018083116200057c57829003601f168201915b505050505081526020016003820154815250508152602001906001019062000439565b50505050905090565b60008054906101000a900473ffffffffffffffffffffffffffffffffffffffff1681565b6060600260008373ffffffffffffffffffffffffffffffffffffffff1673ffffffffffffffffffffffffffffffffffffffff168152602001908152602001600020805480602002602001604051908101604052809291908181526020016000905b82821015620007cf57838290600052602060002090600402016040518060800160405290816000820160009054906101000a900473ffffffffffffffffffffffffffffffffffffffff1673ffffffffffffffffffffffffffffffffffffffff1673ffffffffffffffffffffffffffffffffffffffff1681526020016001820160009054906101000a900473ffffffffffffffffffffffffffffffffffffffff1673ffffffffffffffffffffffffffffffffffffffff1673ffffffffffffffffffffffffffffffffffffffff1681526020016002820180546200072d906200125e565b80601f01602080910402602001604051908101604052809291908181526020018280546200075b906200125e565b8015620007ac5780601f106200078057610100808354040283529160200191620007ac565b820191906000526020600020905b8154815290600101906020018083116200078e57829003601f168201915b50505050508152602001600382015481525050815260200190600101906200064b565b505050509050919050565b600060149054906101000a900460ff16156200082d576040517f08c379a00000000000000000000000000000000000000000000000000000000081526004016200082490620012e3565b60405180910390fd5b60003385858585604051620008429062000b87565b6200085295949392919062001305565b604051809103906000f0801580156200086f573d6000803e3d6000fd5b5090506000819050600060405180608001604052808373ffffffffffffffffffffffffffffffffffffffff1681526020013373ffffffffffffffffffffffffffffffffffffffff168152602001888152602001428152509050600181908060018154018082558091505060019003906000526020600020906004020160009091909190915060008201518160000160006101000a81548173ffffffffffffffffffffffffffffffffffffffff021916908373ffffffffffffffffffffffffffffffffffffffff16021790555060208201518160010160006101000a81548173ffffffffffffffffffffffffffffffffffffffff021916908373ffffffffffffffffffffffffffffffffffffffff160217905550604082015181600201908162000999919062001542565b50606082015181600301555050600260003373ffffffffffffffffffffffffffffffffffffffff1673ffffffffffffffffffffffffffffffffffffffff16815260200190815260200160002081908060018154018082558091505060019003906000526020600020906004020160009091909190915060008201518160000160006101000a81548173ffffffffffffffffffffffffffffffffffffffff021916908373ffffffffffffffffffffffffffffffffffffffff16021790555060208201518160010160006101000a81548173ffffffffffffffffffffffffffffffffffffffff021916908373ffffffffffffffffffffffffffffffffffffffff160217905550604082015181600201908162000ab4919062001542565b5060608201518160030155505050505050505050565b60008054906101000a900473ffffffffffffffffffffffffffffffffffffffff1673ffffffffffffffffffffffffffffffffffffffff163373ffffffffffffffffffffffffffffffffffffffff161462000b5b576040517f08c379a000000000000000000000000000000000000000000000000000000000815260040162000b529062001679565b60405180910390fd5b600060149054906101000a900460ff1615600060146101000a81548160ff021916908315150217905550565b612d5b806200169c83390190565b6000604051905090565b600080fd5b600080fd5b6000819050919050565b62000bbe8162000ba9565b811462000bca57600080fd5b50565b60008135905062000bde8162000bb3565b92915050565b60006020828403121562000bfd5762000bfc62000b9f565b5b600062000c0d8482850162000bcd565b91505092915050565b600073ffffffffffffffffffffffffffffffffffffffff82169050919050565b600062000c438262000c16565b9050919050565b62000c558162000c36565b82525050565b600081519050919050565b600082825260208201905092915050565b60005b8381101562000c9757808201518184015260208101905062000c7a565b60008484015250505050565b6000601f19601f8301169050919050565b600062000cc18262000c5b565b62000ccd818562000c66565b935062000cdf81856020860162000c77565b62000cea8162000ca3565b840191505092915050565b62000d008162000ba9565b82525050565b600060808201905062000d1d600083018762000c4a565b62000d2c602083018662000c4a565b818103604083015262000d40818562000cb4565b905062000d51606083018462000cf5565b95945050505050565b62000d658162000c36565b811462000d7157600080fd5b50565b60008135905062000d858162000d5a565b92915050565b6000806040838503121562000da55762000da462000b9f565b5b600062000db58582860162000d74565b925050602062000dc88582860162000bcd565b9150509250929050565b60008115159050919050565b62000de98162000dd2565b82525050565b600060208201905062000e06600083018462000dde565b92915050565b600081519050919050565b600082825260208201905092915050565b6000819050602082019050919050565b62000e438162000c36565b82525050565b600082825260208201905092915050565b600062000e678262000c5b565b62000e73818562000e49565b935062000e8581856020860162000c77565b62000e908162000ca3565b840191505092915050565b62000ea68162000ba9565b82525050565b600060808301600083015162000ec6600086018262000e38565b50602083015162000edb602086018262000e38565b506040830151848203604086015262000ef5828262000e5a565b915050606083015162000f0c606086018262000e9b565b508091505092915050565b600062000f25838362000eac565b905092915050565b6000602082019050919050565b600062000f478262000e0c565b62000f53818562000e17565b93508360208202850162000f678562000e28565b8060005b8581101562000fa9578484038952815162000f87858262000f17565b945062000f948362000f2d565b925060208a0199505060018101905062000f6b565b50829750879550505050505092915050565b6000602082019050818103600083015262000fd7818462000f3a565b905092915050565b600060208201905062000ff6600083018462000c4a565b92915050565b60006020828403121562001015576200101462000b9f565b5b6000620010258482850162000d74565b91505092915050565b600080fd5b600080fd5b7f4e487b7100000000000000000000000000000000000000000000000000000000600052604160045260246000fd5b620010728262000ca3565b810181811067ffffffffffffffff8211171562001094576200109362001038565b5b80604052505050565b6000620010a962000b95565b9050620010b7828262001067565b919050565b600067ffffffffffffffff821115620010da57620010d962001038565b5b620010e58262000ca3565b9050602081019050919050565b82818337600083830152505050565b6000620011186200111284620010bc565b6200109d565b90508281526020810184848401111562001137576200113662001033565b5b62001144848285620010f2565b509392505050565b600082601f8301126200116457620011636200102e565b5b81356200117684826020860162001101565b91505092915050565b600080600080608085870312156200119c576200119b62000b9f565b5b600085013567ffffffffffffffff811115620011bd57620011bc62000ba4565b5b620011cb878288016200114c565b945050602085013567ffffffffffffffff811115620011ef57620011ee62000ba4565b5b620011fd878288016200114c565b9350506040620012108782880162000bcd565b9250506060620012238782880162000bcd565b91505092959194509250565b7f4e487b7100000000000000000000000000000000000000000000000000000000600052602260045260246000fd5b600060028204905060018216806200127757607f821691505b6020821081036200128d576200128c6200122f565b5b50919050565b7f466163746f7279206973207061757365642e0000000000000000000000000000600082015250565b6000620012cb60128362000c66565b9150620012d88262001293565b602082019050919050565b60006020820190508181036000830152620012fe81620012bc565b9050919050565b600060a0820190506200131c600083018862000c4a565b818103602083015262001330818762000cb4565b9050818103604083015262001346818662000cb4565b905062001357606083018562000cf5565b62001366608083018462000cf5565b9695505050505050565b60008190508160005260206000209050919050565b60006020601f8301049050919050565b600082821b905092915050565b600060088302620013d47fffffffffffffffffffffffffffffffffffffffffffffffffffffffffffffffff8262001395565b620013e0868362001395565b95508019841693508086168417925050509392505050565b6000819050919050565b6000620014236200141d620014178462000ba9565b620013f8565b62000ba9565b9050919050565b6000819050919050565b6200143f8362001402565b620014576200144e826200142a565b848454620013a2565b825550505050565b600090565b6200146e6200145f565b6200147b81848462001434565b505050565b5b81811015620014a3576200149760008262001464565b60018101905062001481565b5050565b601f821115620014f257620014bc8162001370565b620014c78462001385565b81016020851015620014d7578190505b620014ef620014e68562001385565b83018262001480565b50505b505050565b600082821c905092915050565b60006200151760001984600802620014f7565b1980831691505092915050565b600062001532838362001504565b9150826002028217905092915050565b6200154d8262000c5b565b67ffffffffffffffff81111562001569576200156862001038565b5b6200157582546200125e565b62001582828285620014a7565b600060209050601f831160018114620015ba5760008415620015a5578287015190505b620015b1858262001524565b86555062001621565b601f198416620015ca8662001370565b60005b82811015620015f457848901518255600182019150602085019450602081019050620015cd565b8683101562001614578489015162001610601f89168262001504565b8355505b6001600288020188555050505b505050505050565b7f4e6f74206f776e65722e00000000000000000000000000000000000000000000600082015250565b600062001661600a8362000c66565b91506200166e8262001629565b602082019050919050565b60006020820190508181036000830152620016948162001652565b905091905056fe60806040523480156200001157600080fd5b5060405162002d5b38038062002d5b833981810160405281019062000037919062000333565b83600090816200004891906200063a565b5082600190816200005a91906200063a565b5081600281905550620151808162000073919062000750565b426200008091906200079b565b60038190555084600460006101000a81548173ffffffffffffffffffffffffffffffffffffffff021916908373ffffffffffffffffffffffffffffffffffffffff1602179055506000600460156101000a81548160ff02191690836002811115620000f057620000ef620007d6565b5b0217905550505050505062000805565b6000604051905090565b600080fd5b600080fd5b600073ffffffffffffffffffffffffffffffffffffffff82169050919050565b6000620001418262000114565b9050919050565b620001538162000134565b81146200015f57600080fd5b50565b600081519050620001738162000148565b92915050565b600080fd5b600080fd5b6000601f19601f8301169050919050565b7f4e487b7100000000000000000000000000000000000000000000000000000000600052604160045260246000fd5b620001ce8262000183565b810181811067ffffffffffffffff82111715620001f057620001ef62000194565b5b80604052505050565b60006200020562000100565b9050620002138282620001c3565b919050565b600067ffffffffffffffff82111562000236576200023562000194565b5b620002418262000183565b9050602081019050919050565b60005b838110156200026e57808201518184015260208101905062000251565b60008484015250505050565b6000620002916200028b8462000218565b620001f9565b905082815260208101848484011115620002b057620002af6200017e565b5b620002bd8482856200024e565b509392505050565b600082601f830112620002dd57620002dc62000179565b5b8151620002ef8482602086016200027a565b91505092915050565b6000819050919050565b6200030d81620002f8565b81146200031957600080fd5b50565b6000815190506200032d8162000302565b92915050565b600080600080600060a086880312156200035257620003516200010a565b5b6000620003628882890162000162565b955050602086015167ffffffffffffffff8111156200038657620003856200010f565b5b6200039488828901620002c5565b945050604086015167ffffffffffffffff811115620003b857620003b76200010f565b5b620003c688828901620002c5565b9350506060620003d9888289016200031c565b9250506080620003ec888289016200031c565b9150509295509295909350565b600081519050919050565b7f4e487b7100000000000000000000000000000000000000000000000000000000600052602260045260246000fd5b600060028204905060018216806200044c57607f821691505b60208210810362000462576200046162000404565b5b50919050565b60008190508160005260206000209050919050565b60006020601f8301049050919050565b600082821b905092915050565b600060088302620004cc7fffffffffffffffffffffffffffffffffffffffffffffffffffffffffffffffff826200048d565b620004d886836200048d565b95508019841693508086168417925050509392505050565b6000819050919050565b60006200051b620005156200050f84620002f8565b620004f0565b620002f8565b9050919050565b6000819050919050565b6200053783620004fa565b6200054f620005468262000522565b8484546200049a565b825550505050565b600090565b6200056662000557565b620005738184846200052c565b505050565b5b818110156200059b576200058f6000826200055c565b60018101905062000579565b5050565b601f821115620005ea57620005b48162000468565b620005bf846200047d565b81016020851015620005cf578190505b620005e7620005de856200047d565b83018262000578565b50505b505050565b600082821c905092915050565b60006200060f60001984600802620005ef565b1980831691505092915050565b60006200062a8383620005fc565b9150826002028217905092915050565b6200064582620003f9565b67ffffffffffffffff81111562000661576200066062000194565b5b6200066d825462000433565b6200067a8282856200059f565b600060209050601f831160018114620006b257600084156200069d578287015190505b620006a985826200061c565b86555062000719565b601f198416620006c28662000468565b60005b82811015620006ec57848901518255600182019150602085019450602081019050620006c5565b868310156200070c578489015162000708601f891682620005fc565b8355505b6001600288020188555050505b505050505050565b7f4e487b7100000000000000000000000000000000000000000000000000000000600052601160045260246000fd5b60006200075d82620002f8565b91506200076a83620002f8565b92508282026200077a81620002f8565b9150828204841483151762000794576200079362000721565b5b5092915050565b6000620007a882620002f8565b9150620007b583620002f8565b9250828201905080821115620007d057620007cf62000721565b5b92915050565b7f4e487b7100000000000000000000000000000000000000000000000000000000600052602160045260246000fd5b61254680620008156000396000f3fe60806040526004361061011f5760003560e01c80637284e416116100a0578063b85dfb8011610064578063b85dfb80146103a1578063c19d93fb146103de578063c4ae316814610409578063ca1d209d14610420578063de1705701461043c5761011f565b80637284e416146102ce5780637497211b146102f9578063811e539c146103225780638da5cb5b1461034d5780638ece7b91146103785761011f565b806340193883116100e757806340193883146101f9578063590e1ae3146102245780635c975abb1461023b578063663a48ee146102665780636f9fb98a146102a35761011f565b8063039af9eb14610124578063105505151461016357806329dcb0cf1461018e578063389b7533146101b95780633ccfd60b146101e2575b600080fd5b34801561013057600080fd5b5061014b600480360381019061014691906114b8565b610467565b60405161015a93929190611584565b60405180910390f35b34801561016f57600080fd5b50610178610529565b6040516101859190611639565b60405180910390f35b34801561019a57600080fd5b506101a36105a4565b6040516101b09190611654565b60405180910390f35b3480156101c557600080fd5b506101e060048036038101906101db91906114b8565b6105aa565b005b3480156101ee57600080fd5b506101f7610664565b005b34801561020557600080fd5b5061020e610826565b60405161021b9190611654565b60405180910390f35b34801561023057600080fd5b5061023961082c565b005b34801561024757600080fd5b506102506109c5565b60405161025d919061168a565b60405180910390f35b34801561027257600080fd5b5061028d60048036038101906102889190611703565b6109d8565b60405161029a919061168a565b60405180910390f35b3480156102af57600080fd5b506102b8610a43565b6040516102c59190611654565b60405180910390f35b3480156102da57600080fd5b506102e3610a4b565b6040516102f09190611743565b60405180910390f35b34801561030557600080fd5b50610320600480360381019061031b91906114b8565b610ad9565b005b34801561032e57600080fd5b50610337610c7f565b6040516103449190611743565b60405180910390f35b34801561035957600080fd5b50610362610d0d565b60405161036f9190611774565b60405180910390f35b34801561038457600080fd5b5061039f600480360381019061039a91906118c4565b610d33565b005b3480156103ad57600080fd5b506103c860048036038101906103c39190611920565b610e7d565b6040516103d59190611654565b60405180910390f35b3480156103ea57600080fd5b506103f3610e9b565b6040516104009190611639565b60405180910390f35b34801561041557600080fd5b5061041e610eae565b005b61043a600480360381019061043591906114b8565b610f6a565b005b34801561044857600080fd5b50610451611245565b60405161045e9190611ab8565b60405180910390f35b6005818154811061047757600080fd5b906000526020600020906003020160009150905080600001805461049a90611b09565b80601f01602080910402602001604051908101604052809291908181526020018280546104c690611b09565b80156105135780601f106104e857610100808354040283529160200191610513565b820191906000526020600020905b8154815290600101906020018083116104f657829003601f168201915b5050505050908060010154908060020154905083565b600080600281111561053e5761053d6115c2565b5b600460159054906101000a900460ff1660028111156105605761055f6115c2565b5b14801561056e575060035442115b1561058e57600254471015610584576002610587565b60015b90506105a1565b600460159054906101000a900460ff1690505b90565b60035481565b600460009054906101000a900473ffffffffffffffffffffffffffffffffffffffff1673ffffffffffffffffffffffffffffffffffffffff163373ffffffffffffffffffffffffffffffffffffffff161461063a576040517f08c379a000000000000000000000000000000000000000000000000000000000815260040161063190611b86565b60405180910390fd5b62015180816106499190611bd5565b6003600082825461065a9190611c17565b9250508190555050565b600460009054906101000a900473ffffffffffffffffffffffffffffffffffffffff1673ffffffffffffffffffffffffffffffffffffffff163373ffffffffffffffffffffffffffffffffffffffff16146106f4576040517f08c379a00000000000000000000000000000000000000000000000000000000081526004016106eb90611b86565b60405180910390fd5b6106fc61134a565b600160028111156107105761070f6115c2565b5b600460159054906101000a900460ff166002811115610732576107316115c2565b5b14610772576040517f08c379a000000000000000000000000000000000000000000000000000000000815260040161076990611c97565b60405180910390fd5b6000479050600081116107ba576040517f08c379a00000000000000000000000000000000000000000000000000000000081526004016107b190611d03565b60405180910390fd5b600460009054906101000a900473ffffffffffffffffffffffffffffffffffffffff1673ffffffffffffffffffffffffffffffffffffffff166108fc829081150290604051600060405180830381858888f19350505050158015610822573d6000803e3d6000fd5b5050565b60025481565b61083461134a565b600280811115610847576108466115c2565b5b600460159054906101000a900460ff166002811115610869576108686115c2565b5b146108a9576040517f08c379a00000000000000000000000000000000000000000000000000000000081526004016108a090611d6f565b60405180910390fd5b6000600660003373ffffffffffffffffffffffffffffffffffffffff1673ffffffffffffffffffffffffffffffffffffffff16815260200190815260200160002060000154905060008111610933576040517f08c379a000000000000000000000000000000000000000000000000000000000815260040161092a90611ddb565b60405180910390fd5b6000600660003373ffffffffffffffffffffffffffffffffffffffff1673ffffffffffffffffffffffffffffffffffffffff168152602001908152602001600020600001819055503373ffffffffffffffffffffffffffffffffffffffff166108fc829081150290604051600060405180830381858888f193505050501580156109c1573d6000803e3d6000fd5b5050565b600460149054906101000a900460ff1681565b6000600660008473ffffffffffffffffffffffffffffffffffffffff1673ffffffffffffffffffffffffffffffffffffffff168152602001908152602001600020600101600083815260200190815260200160002060009054906101000a900460ff16905092915050565b600047905090565b60018054610a5890611b09565b80601f0160208091040260200160405190810160405280929190818152602001828054610a8490611b09565b8015610ad15780601f10610aa657610100808354040283529160200191610ad1565b820191906000526020600020905b815481529060010190602001808311610ab457829003601f168201915b505050505081565b600460009054906101000a900473ffffffffffffffffffffffffffffffffffffffff1673ffffffffffffffffffffffffffffffffffffffff163373ffffffffffffffffffffffffffffffffffffffff1614610b69576040517f08c379a0000000000000000000000000000000000000000000000000000000008152600401610b6090611b86565b60405180910390fd5b6005805490508110610bb0576040517f08c379a0000000000000000000000000000000000000000000000000000000008152600401610ba790611e47565b60405180910390fd5b60056001600580549050610bc49190611e67565b81548110610bd557610bd4611e9b565b5b906000526020600020906003020160058281548110610bf757610bf6611e9b565b5b906000526020600020906003020160008201816000019081610c19919061208c565b5060018201548160010155600282015481600201559050506005805480610c4357610c42612174565b5b600190038181906000526020600020906003020160008082016000610c689190611411565b600182016000905560028201600090555050905550565b60008054610c8c90611b09565b80601f0160208091040260200160405190810160405280929190818152602001828054610cb890611b09565b8015610d055780601f10610cda57610100808354040283529160200191610d05565b820191906000526020600020905b815481529060010190602001808311610ce857829003601f168201915b505050505081565b600460009054906101000a900473ffffffffffffffffffffffffffffffffffffffff1681565b600460009054906101000a900473ffffffffffffffffffffffffffffffffffffffff1673ffffffffffffffffffffffffffffffffffffffff163373ffffffffffffffffffffffffffffffffffffffff1614610dc3576040517f08c379a0000000000000000000000000000000000000000000000000000000008152600401610dba90611b86565b60405180910390fd5b60008111610e06576040517f08c379a0000000000000000000000000000000000000000000000000000000008152600401610dfd906121ef565b60405180910390fd5b60056040518060600160405280848152602001838152602001600081525090806001815401808255809150506001900390600052602060002090600302016000909190919091506000820151816000019081610e62919061220f565b50602082015181600101556040820151816002015550505050565b60066020528060005260406000206000915090508060000154905081565b600460159054906101000a900460ff1681565b600460009054906101000a900473ffffffffffffffffffffffffffffffffffffffff1673ffffffffffffffffffffffffffffffffffffffff163373ffffffffffffffffffffffffffffffffffffffff1614610f3e576040517f08c379a0000000000000000000000000000000000000000000000000000000008152600401610f3590611b86565b60405180910390fd5b600460149054906101000a900460ff1615600460146101000a81548160ff021916908315150217905550565b60006002811115610f7e57610f7d6115c2565b5b600460159054906101000a900460ff166002811115610fa057610f9f6115c2565b5b14610fe0576040517f08c379a0000000000000000000000000000000000000000000000000000000008152600401610fd79061232d565b60405180910390fd5b600460149054906101000a900460ff1615611030576040517f08c379a000000000000000000000000000000000000000000000000000000000815260040161102790612399565b60405180910390fd5b60003411611073576040517f08c379a000000000000000000000000000000000000000000000000000000000815260040161106a90612405565b60405180910390fd5b60058054905081101561118f576005818154811061109457611093611e9b565b5b90600052602060002090600302016001015434146110e7576040517f08c379a00000000000000000000000000000000000000000000000000000000081526004016110de90612471565b60405180910390fd5b600581815481106110fb576110fa611e9b565b5b9060005260206000209060030201600201600081548092919061111d90612491565b91905055506001600660003373ffffffffffffffffffffffffffffffffffffffff1673ffffffffffffffffffffffffffffffffffffffff168152602001908152602001600020600101600083815260200190815260200160002060006101000a81548160ff0219169083151502179055505b34600660003373ffffffffffffffffffffffffffffffffffffffff1673ffffffffffffffffffffffffffffffffffffffff16815260200190815260200160002060000160008282546111e19190611c17565b925050819055503373ffffffffffffffffffffffffffffffffffffffff167f3168ca6b1e292883c0668008556fb887f7cce92bcd3c1c57c15a34dcdccd5892348342604051611232939291906124d9565b60405180910390a261124261134a565b50565b60606005805480602002602001604051908101604052809291908181526020016000905b82821015611341578382906000526020600020906003020160405180606001604052908160008201805461129c90611b09565b80601f01602080910402602001604051908101604052809291908181526020018280546112c890611b09565b80156113155780601f106112ea57610100808354040283529160200191611315565b820191906000526020600020905b8154815290600101906020018083116112f857829003601f168201915b505050505081526020016001820154815260200160028201548152505081526020019060010190611269565b50505050905090565b6000600281111561135e5761135d6115c2565b5b600460159054906101000a900460ff1660028111156113805761137f6115c2565b5b0361140f5760035442106113d05760025447101561139f5760026113a2565b60015b600460156101000a81548160ff021916908360028111156113c6576113c56115c2565b5b021790555061140e565b6002544710156113e15760006113e4565b60015b600460156101000a81548160ff02191690836002811115611408576114076115c2565b5b02179055505b5b565b50805461141d90611b09565b6000825580601f1061142f575061144e565b601f01602090049060005260206000209081019061144d9190611451565b5b50565b5b8082111561146a576000816000905550600101611452565b5090565b6000604051905090565b600080fd5b600080fd5b6000819050919050565b61149581611482565b81146114a057600080fd5b50565b6000813590506114b28161148c565b92915050565b6000602082840312156114ce576114cd611478565b5b60006114dc848285016114a3565b91505092915050565b600081519050919050565b600082825260208201905092915050565b60005b8381101561151f578082015181840152602081019050611504565b60008484015250505050565b6000601f19601f8301169050919050565b6000611547826114e5565b61155181856114f0565b9350611561818560208601611501565b61156a8161152b565b840191505092915050565b61157e81611482565b82525050565b6000606082019050818103600083015261159e818661153c565b90506115ad6020830185611575565b6115ba6040830184611575565b949350505050565b7f4e487b7100000000000000000000000000000000000000000000000000000000600052602160045260246000fd5b60038110611602576116016115c2565b5b50565b6000819050611613826115f1565b919050565b600061162382611605565b9050919050565b61163381611618565b82525050565b600060208201905061164e600083018461162a565b92915050565b60006020820190506116696000830184611575565b92915050565b60008115159050919050565b6116848161166f565b82525050565b600060208201905061169f600083018461167b565b92915050565b600073ffffffffffffffffffffffffffffffffffffffff82169050919050565b60006116d0826116a5565b9050919050565b6116e0816116c5565b81146116eb57600080fd5b50565b6000813590506116fd816116d7565b92915050565b6000806040838503121561171a57611719611478565b5b6000611728858286016116ee565b9250506020611739858286016114a3565b9150509250929050565b6000602082019050818103600083015261175d818461153c565b905092915050565b61176e816116c5565b82525050565b60006020820190506117896000830184611765565b92915050565b600080fd5b600080fd5b7f4e487b7100000000000000000000000000000000000000000000000000000000600052604160045260246000fd5b6117d18261152b565b810181811067ffffffffffffffff821117156117f0576117ef611799565b5b80604052505050565b600061180361146e565b905061180f82826117c8565b919050565b600067ffffffffffffffff82111561182f5761182e611799565b5b6118388261152b565b9050602081019050919050565b82818337600083830152505050565b600061186761186284611814565b6117f9565b90508281526020810184848401111561188357611882611794565b5b61188e848285611845565b509392505050565b600082601f8301126118ab576118aa61178f565b5b81356118bb848260208601611854565b91505092915050565b600080604083850312156118db576118da611478565b5b600083013567ffffffffffffffff8111156118f9576118f861147d565b5b61190585828601611896565b9250506020611916858286016114a3565b9150509250929050565b60006020828403121561193657611935611478565b5b6000611944848285016116ee565b91505092915050565b600081519050919050565b600082825260208201905092915050565b6000819050602082019050919050565b600082825260208201905092915050565b6000611995826114e5565b61199f8185611979565b93506119af818560208601611501565b6119b88161152b565b840191505092915050565b6119cc81611482565b82525050565b600060608301600083015184820360008601526119ef828261198a565b9150506020830151611a0460208601826119c3565b506040830151611a1760408601826119c3565b508091505092915050565b6000611a2e83836119d2565b905092915050565b6000602082019050919050565b6000611a4e8261194d565b611a588185611958565b935083602082028501611a6a85611969565b8060005b85811015611aa65784840389528151611a878582611a22565b9450611a9283611a36565b925060208a01995050600181019050611a6e565b50829750879550505050505092915050565b60006020820190508181036000830152611ad28184611a43565b905092915050565b7f4e487b7100000000000000000000000000000000000000000000000000000000600052602260045260246000fd5b60006002820490506001821680611b2157607f821691505b602082108103611b3457611b33611ada565b5b50919050565b7f596f7520617265206e6f7420746865206f776e65722e00000000000000000000600082015250565b6000611b706016836114f0565b9150611b7b82611b3a565b602082019050919050565b60006020820190508181036000830152611b9f81611b63565b9050919050565b7f4e487b7100000000000000000000000000000000000000000000000000000000600052601160045260246000fd5b6000611be082611482565b9150611beb83611482565b9250828202611bf981611482565b91508282048414831517611c1057611c0f611ba6565b5b5092915050565b6000611c2282611482565b9150611c2d83611482565b9250828201905080821115611c4557611c44611ba6565b5b92915050565b7f43616d706169676e206973206e6f74207375636365737366756c207965742e00600082015250565b6000611c81601f836114f0565b9150611c8c82611c4b565b602082019050919050565b60006020820190508181036000830152611cb081611c74565b9050919050565b7f4e6f2062616c616e636520746f2077697468647261772e000000000000000000600082015250565b6000611ced6017836114f0565b9150611cf882611cb7565b602082019050919050565b60006020820190508181036000830152611d1c81611ce0565b9050919050565b7f526566756e6473206e6f7420617661696c61626c652e00000000000000000000600082015250565b6000611d596016836114f0565b9150611d6482611d23565b602082019050919050565b60006020820190508181036000830152611d8881611d4c565b9050919050565b7f4e6f7468696e6720746f20726566756e642e0000000000000000000000000000600082015250565b6000611dc56012836114f0565b9150611dd082611d8f565b602082019050919050565b60006020820190508181036000830152611df481611db8565b9050919050565b7f5469657220646f6573206e6f742065786973742e000000000000000000000000600082015250565b6000611e316014836114f0565b9150611e3c82611dfb565b602082019050919050565b60006020820190508181036000830152611e6081611e24565b9050919050565b6000611e7282611482565b9150611e7d83611482565b9250828203905081811115611e9557611e94611ba6565b5b92915050565b7f4e487b7100000000000000000000000000000000000000000000000000000000600052603260045260246000fd5b600081549050611ed981611b09565b9050919050565b60008190508160005260206000209050919050565b60006020601f8301049050919050565b600082821b905092915050565b600060088302611f427fffffffffffffffffffffffffffffffffffffffffffffffffffffffffffffffff82611f05565b611f4c8683611f05565b95508019841693508086168417925050509392505050565b6000819050919050565b6000611f89611f84611f7f84611482565b611f64565b611482565b9050919050565b6000819050919050565b611fa383611f6e565b611fb7611faf82611f90565b848454611f12565b825550505050565b600090565b611fcc611fbf565b611fd7818484611f9a565b505050565b5b81811015611ffb57611ff0600082611fc4565b600181019050611fdd565b5050565b601f8211156120405761201181611ee0565b61201a84611ef5565b81016020851015612029578190505b61203d61203585611ef5565b830182611fdc565b50505b505050565b600082821c905092915050565b600061206360001984600802612045565b1980831691505092915050565b600061207c8383612052565b9150826002028217905092915050565b81810361209a575050612172565b6120a382611eca565b67ffffffffffffffff8111156120bc576120bb611799565b5b6120c68254611b09565b6120d1828285611fff565b6000601f83116001811461210057600084156120ee578287015490505b6120f88582612070565b86555061216b565b601f19841661210e87611ee0565b965061211986611ee0565b60005b828110156121415784890154825560018201915060018501945060208101905061211c565b8683101561215e578489015461215a601f891682612052565b8355505b6001600288020188555050505b5050505050505b565b7f4e487b7100000000000000000000000000000000000000000000000000000000600052603160045260246000fd5b7f416d6f756e74206d7573742062652067726561746572207468616e20302e0000600082015250565b60006121d9601e836114f0565b91506121e4826121a3565b602082019050919050565b60006020820190508181036000830152612208816121cc565b9050919050565b612218826114e5565b67ffffffffffffffff81111561223157612230611799565b5b61223b8254611b09565b612246828285611fff565b600060209050601f8311600181146122795760008415612267578287015190505b6122718582612070565b8655506122d9565b601f19841661228786611ee0565b60005b828110156122af5784890151825560018201915060208501945060208101905061228a565b868310156122cc57848901516122c8601f891682612052565b8355505b6001600288020188555050505b505050505050565b7f43616d706169676e206973206e6f742061637469766500000000000000000000600082015250565b60006123176016836114f0565b9150612322826122e1565b602082019050919050565b600060208201905081810360008301526123468161230a565b9050919050565b7f436f6e7472616374206973207061757365642e00000000000000000000000000600082015250565b60006123836013836114f0565b915061238e8261234d565b602082019050919050565b600060208201905081810360008301526123b281612376565b9050919050565b7f4d7573742066756e6420616d6f756e742067726561746572207468616e20302e600082015250565b60006123ef6020836114f0565b91506123fa826123b9565b602082019050919050565b6000602082019050818103600083015261241e816123e2565b9050919050565b7f496e76616c696420746965722e00000000000000000000000000000000000000600082015250565b600061245b600d836114f0565b915061246682612425565b602082019050919050565b6000602082019050818103600083015261248a8161244e565b9050919050565b600061249c82611482565b91507fffffffffffffffffffffffffffffffffffffffffffffffffffffffffffffffff82036124ce576124cd611ba6565b5b600182019050919050565b60006060820190506124ee6000830186611575565b6124fb6020830185611575565b6125086040830184611575565b94935050505056fea2646970667358221220001b110b204e127278934bf1e0b63b585f2d5ea85fd6e2aa6ea376987d9c975f64736f6c63430008140033a2646970667358221220446cb63e2bf6f7e434628235445857c7342303c6e18e043be4b0f8e65eec4cb964736f6c63430008140033",
  "linkReferences": {},
  "deployedLinkReferences": {}
}