{
  "_format": "hh-sol-artifact-1",
  "contractName": "Crowdfunding",
  "sourceName": "contracts/Crowdfunding.sol",
  "abi": [
    {
      "inputs": [
        {
          "internalType": "address",
          "name": "_owner",
          "type": "address"
        },
        {
          "internalType": "string",
          "name": "_name",
          "type": "string"
        },
        {
          "internalType": "string",
          "name": "_description",
          "type": "string"
        },
        {
          "internalType": "uint256",
          "name": "_goal",
          "type": "uint256"
        }
      ],
      "stateMutability": "nonpayable",
      "type": "constructor"
    },
    {
      "anonymous": false,
      "inputs": [
        {
          "indexed": true,
          "internalType": "address",
          "name": "backer",
          "type": "address"
        },
        {
          "indexed": false,
          "internalType": "uint256",
          "name": "amount",
          "type": "uint256"
        },
        {
          "indexed": false,
          "internalType": "uint256",
          "name": "tierIndex",
          "type": "uint256"
        },
        {
          "indexed": false,
          "internalType": "uint256",
          "name": "timestamp",
          "type": "uint256"
        }
      ],
      "name": "DonationReceived",
      "type": "event"
    },
    {
      "anonymous": false,
      "inputs": [
        {
          "indexed": true,
          "internalType": "uint256",
          "name": "requestId",
          "type": "uint256"
        },
        {
          "indexed": false,
          "internalType": "uint256",
          "name": "timestamp",
          "type": "uint256"
        }
      ],
      "name": "ProofSubmitted",
      "type": "event"
    },
    {
      "anonymous": false,
      "inputs": [
        {
          "indexed": true,
          "internalType": "address",
          "name": "backer",
          "type": "address"
        },
        {
          "indexed": false,
          "internalType": "uint256",
          "name": "amount",
          "type": "uint256"
        }
      ],
      "name": "RefundClaimed",
      "type": "event"
    },
    {
      "anonymous": false,
      "inputs": [
        {
          "indexed": true,
          "internalType": "uint256",
          "name": "requestId",
          "type": "uint256"
        },
        {
          "indexed": false,
          "internalType": "bool",
          "name": "success",
          "type": "bool"
        },
        {
          "indexed": false,
          "internalType": "uint256",
          "name": "timestamp",
          "type": "uint256"
        }
      ],
      "name": "WithdrawFinalized",
      "type": "event"
    },
    {
      "anonymous": false,
      "inputs": [
        {
          "indexed": true,
          "internalType": "uint256",
          "name": "requestId",
          "type": "uint256"
        },
        {
          "indexed": false,
          "internalType": "uint256",
          "name": "amount",
          "type": "uint256"
        },
        {
          "indexed": false,
          "internalType": "uint256",
          "name": "deadline",
          "type": "uint256"
        },
        {
          "indexed": false,
          "internalType": "uint256",
          "name": "timestamp",
          "type": "uint256"
        }
      ],
      "name": "WithdrawRequested",
      "type": "event"
    },
    {
      "anonymous": false,
      "inputs": [
        {
          "indexed": true,
          "internalType": "uint256",
          "name": "requestId",
          "type": "uint256"
        },
        {
          "indexed": true,
          "internalType": "address",
          "name": "voter",
          "type": "address"
        },
        {
          "indexed": false,
          "internalType": "bool",
          "name": "approve",
          "type": "bool"
        },
        {
          "indexed": false,
          "internalType": "uint256",
          "name": "weight",
          "type": "uint256"
        }
      ],
      "name": "WithdrawVoted",
      "type": "event"
    },
    {
      "inputs": [
        {
          "internalType": "string",
          "name": "_name",
          "type": "string"
        },
        {
          "internalType": "uint256",
          "name": "_amount",
          "type": "uint256"
        }
      ],
      "name": "addTier",
      "outputs": [],
      "stateMutability": "nonpayable",
      "type": "function"
    },
    {
      "inputs": [
        {
          "internalType": "address",
          "name": "",
          "type": "address"
        }
      ],
      "name": "backers",
      "outputs": [
        {
          "internalType": "uint256",
          "name": "totalContribution",
          "type": "uint256"
        },
        {
          "internalType": "uint256",
          "name": "usedContribution",
          "type": "uint256"
        }
      ],
      "stateMutability": "view",
      "type": "function"
    },
    {
      "inputs": [
        {
          "internalType": "uint256",
          "name": "",
          "type": "uint256"
        }
      ],
      "name": "backersList",
      "outputs": [
        {
          "internalType": "address",
          "name": "",
          "type": "address"
        }
      ],
      "stateMutability": "view",
      "type": "function"
    },
    {
      "inputs": [],
      "name": "campaign",
      "outputs": [
        {
          "internalType": "string",
          "name": "",
          "type": "string"
        }
      ],
      "stateMutability": "view",
      "type": "function"
    },
    {
      "inputs": [
        {
          "internalType": "uint256",
          "name": "_amount",
          "type": "uint256"
        },
        {
          "internalType": "uint256",
          "name": "_votingDuration",
          "type": "uint256"
        }
      ],
      "name": "createWithdrawRequest",
      "outputs": [],
      "stateMutability": "nonpayable",
      "type": "function"
    },
    {
      "inputs": [],
      "name": "description",
      "outputs": [
        {
          "internalType": "string",
          "name": "",
          "type": "string"
        }
      ],
      "stateMutability": "view",
      "type": "function"
    },
    {
      "inputs": [],
      "name": "endCampaign",
      "outputs": [],
      "stateMutability": "nonpayable",
      "type": "function"
    },
    {
      "inputs": [
        {
          "internalType": "uint256",
          "name": "_id",
          "type": "uint256"
        }
      ],
      "name": "finalizeWithdrawRequest",
      "outputs": [],
      "stateMutability": "nonpayable",
      "type": "function"
    },
    {
      "inputs": [
        {
          "internalType": "uint256",
          "name": "_tierIndex",
          "type": "uint256"
        }
      ],
      "name": "fund",
      "outputs": [],
      "stateMutability": "payable",
      "type": "function"
    },
    {
      "inputs": [
        {
          "internalType": "uint256",
          "name": "i",
          "type": "uint256"
        }
      ],
      "name": "getBackerAt",
      "outputs": [
        {
          "internalType": "address",
          "name": "",
          "type": "address"
        }
      ],
      "stateMutability": "view",
      "type": "function"
    },
    {
      "inputs": [],
      "name": "getBackersCount",
      "outputs": [
        {
          "internalType": "uint256",
          "name": "",
          "type": "uint256"
        }
      ],
      "stateMutability": "view",
      "type": "function"
    },
    {
      "inputs": [],
      "name": "getContractBalance",
      "outputs": [
        {
          "internalType": "uint256",
          "name": "",
          "type": "uint256"
        }
      ],
      "stateMutability": "view",
      "type": "function"
    },
    {
      "inputs": [],
      "name": "getTiers",
      "outputs": [
        {
          "components": [
            {
              "internalType": "string",
              "name": "name",
              "type": "string"
            },
            {
              "internalType": "uint256",
              "name": "amount",
              "type": "uint256"
            },
            {
              "internalType": "uint256",
              "name": "backers",
              "type": "uint256"
            }
          ],
          "internalType": "struct Crowdfunding.Tier[]",
          "name": "",
          "type": "tuple[]"
        }
      ],
      "stateMutability": "view",
      "type": "function"
    },
    {
      "inputs": [
        {
          "internalType": "uint256",
          "name": "_id",
          "type": "uint256"
        },
        {
          "internalType": "address",
          "name": "_voter",
          "type": "address"
        }
      ],
      "name": "getVote",
      "outputs": [
        {
          "internalType": "uint8",
          "name": "",
          "type": "uint8"
        }
      ],
      "stateMutability": "view",
      "type": "function"
    },
    {
      "inputs": [
        {
          "internalType": "uint256",
          "name": "_id",
          "type": "uint256"
        }
      ],
      "name": "getWithdrawRequest",
      "outputs": [
        {
          "internalType": "uint256",
          "name": "id",
          "type": "uint256"
        },
        {
          "internalType": "uint256",
          "name": "amount",
          "type": "uint256"
        },
        {
          "internalType": "uint256",
          "name": "yesWeight",
          "type": "uint256"
        },
        {
          "internalType": "uint256",
          "name": "noWeight",
          "type": "uint256"
        },
        {
          "internalType": "uint256",
          "name": "createdAt",
          "type": "uint256"
        },
        {
          "internalType": "uint256",
          "name": "votingDeadline",
          "type": "uint256"
        },
        {
          "internalType": "bool",
          "name": "finalized",
          "type": "bool"
        },
        {
          "internalType": "bool",
          "name": "proofSubmitted",
          "type": "bool"
        }
      ],
      "stateMutability": "view",
      "type": "function"
    },
    {
      "inputs": [],
      "name": "goal",
      "outputs": [
        {
          "internalType": "uint256",
          "name": "",
          "type": "uint256"
        }
      ],
      "stateMutability": "view",
      "type": "function"
    },
    {
      "inputs": [
        {
          "internalType": "address",
          "name": "",
          "type": "address"
        }
      ],
      "name": "isBacker",
      "outputs": [
        {
          "internalType": "bool",
          "name": "",
          "type": "bool"
        }
      ],
      "stateMutability": "view",
      "type": "function"
    },
    {
      "inputs": [],
      "name": "owner",
      "outputs": [
        {
          "internalType": "address",
          "name": "",
          "type": "address"
        }
      ],
      "stateMutability": "view",
      "type": "function"
    },
    {
      "inputs": [],
      "name": "refund",
      "outputs": [],
      "stateMutability": "nonpayable",
      "type": "function"
    },
    {
      "inputs": [
        {
          "internalType": "uint256",
          "name": "_index",
          "type": "uint256"
        }
      ],
      "name": "removeTier",
      "outputs": [],
      "stateMutability": "nonpayable",
      "type": "function"
    },
    {
      "inputs": [],
      "name": "state",
      "outputs": [
        {
          "internalType": "enum Crowdfunding.CampaignState",
          "name": "",
          "type": "uint8"
        }
      ],
      "stateMutability": "view",
      "type": "function"
    },
    {
      "inputs": [
        {
          "internalType": "uint256",
          "name": "_id",
          "type": "uint256"
        }
      ],
      "name": "submitProof",
      "outputs": [],
      "stateMutability": "nonpayable",
      "type": "function"
    },
    {
      "inputs": [
        {
          "internalType": "uint256",
          "name": "",
          "type": "uint256"
        }
      ],
      "name": "tiers",
      "outputs": [
        {
          "internalType": "string",
          "name": "name",
          "type": "string"
        },
        {
          "internalType": "uint256",
          "name": "amount",
          "type": "uint256"
        },
        {
          "internalType": "uint256",
          "name": "backers",
          "type": "uint256"
        }
      ],
      "stateMutability": "view",
      "type": "function"
    },
    {
      "inputs": [],
      "name": "totalContributions",
      "outputs": [
        {
          "internalType": "uint256",
          "name": "",
          "type": "uint256"
        }
      ],
      "stateMutability": "view",
      "type": "function"
    },
    {
      "inputs": [
        {
          "internalType": "uint256",
          "name": "_id",
          "type": "uint256"
        },
        {
          "internalType": "bool",
          "name": "approve",
          "type": "bool"
        }
      ],
      "name": "voteWithdrawRequest",
      "outputs": [],
      "stateMutability": "nonpayable",
      "type": "function"
    },
    {
      "inputs": [],
      "name": "withdrawRequestCount",
      "outputs": [
        {
          "internalType": "uint256",
          "name": "",
          "type": "uint256"
        }
      ],
      "stateMutability": "view",
      "type": "function"
    }
  ],
  "bytecode": "0x60806040523480156200001157600080fd5b50604051620026d2380380620026d2833981016040819052620000349162000142565b600062000042848262000263565b50600162000051838262000263565b506002555050600380546001600160a81b0319166001600160a01b03929092169190911790556200032f565b634e487b7160e01b600052604160045260246000fd5b600082601f830112620000a557600080fd5b81516001600160401b0380821115620000c257620000c26200007d565b604051601f8301601f19908116603f01168101908282118183101715620000ed57620000ed6200007d565b816040528381526020925086838588010111156200010a57600080fd5b600091505b838210156200012e57858201830151818301840152908201906200010f565b600093810190920192909252949350505050565b600080600080608085870312156200015957600080fd5b84516001600160a01b03811681146200017157600080fd5b60208601519094506001600160401b03808211156200018f57600080fd5b6200019d8883890162000093565b94506040870151915080821115620001b457600080fd5b50620001c38782880162000093565b606096909601519497939650505050565b600181811c90821680620001e957607f821691505b6020821081036200020a57634e487b7160e01b600052602260045260246000fd5b50919050565b601f8211156200025e57600081815260208120601f850160051c81016020861015620002395750805b601f850160051c820191505b818110156200025a5782815560010162000245565b5050505b505050565b81516001600160401b038111156200027f576200027f6200007d565b6200029781620002908454620001d4565b8462000210565b602080601f831160018114620002cf5760008415620002b65750858301515b600019600386901b1c1916600185901b1785556200025a565b600085815260208120601f198616915b828110156200030057888601518255948401946001909101908401620002df565b50858210156200031f5787850151600019600388901b60f8161c191681555b5050505050600190811b01905550565b612393806200033f6000396000f3fe6080604052600436106101415760003560e01c8063811e539c116100b1578063811e539c14610307578063869a5e2b1461031c5780638da5cb5b1461033c5780638ece7b911461035c578063936009e91461037c578063b85dfb8014610391578063bc3f931f146103da578063c19d93fb1461040c578063c4f276d41461043a578063ca1d209d1461045a578063cc0fe4a41461046d578063dc3724e6146104cc578063de170570146104ec57600080fd5b8063039af9eb1461014657806337c089231461017e57806340193883146101a257806351d6e9b1146101b85780635461b7b5146101da578063590e1ae3146101fa5780636d362e0a1461020f5780636f9fb98a1461024757806371aac7f91461025a5780637284e4161461026f578063746fcab7146102915780637497211b146102d1578063807f0971146102f1575b600080fd5b34801561015257600080fd5b50610166610161366004611ce4565b61050e565b60405161017593929190611d43565b60405180910390f35b34801561018a57600080fd5b5061019460085481565b604051908152602001610175565b3480156101ae57600080fd5b5061019460025481565b3480156101c457600080fd5b506101d86101d3366004611ce4565b6105d0565b005b3480156101e657600080fd5b506101d86101f5366004611d68565b610cad565b34801561020657600080fd5b506101d8610ed9565b34801561021b57600080fd5b5061022f61022a366004611ce4565b611082565b6040516001600160a01b039091168152602001610175565b34801561025357600080fd5b5047610194565b34801561026657600080fd5b506101d86110ac565b34801561027b57600080fd5b506102846111c2565b6040516101759190611d8a565b34801561029d57600080fd5b506102c16102ac366004611dc0565b60076020526000908152604090205460ff1681565b6040519015158152602001610175565b3480156102dd57600080fd5b506101d86102ec366004611ce4565b611250565b3480156102fd57600080fd5b5061019460095481565b34801561031357600080fd5b50610284611378565b34801561032857600080fd5b506101d8610337366004611ce4565b611385565b34801561034857600080fd5b5060035461022f906001600160a01b031681565b34801561036857600080fd5b506101d8610377366004611df1565b6114d6565b34801561038857600080fd5b50600654610194565b34801561039d57600080fd5b506103c56103ac366004611dc0565b6005602052600090815260409020805460019091015482565b60408051928352602083019190915201610175565b3480156103e657600080fd5b506103fa6103f5366004611ea6565b6115c9565b60405160ff9091168152602001610175565b34801561041857600080fd5b5060035461042d90600160a01b900460ff1681565b6040516101759190611ee8565b34801561044657600080fd5b506101d8610455366004611f10565b611629565b6101d8610468366004611ce4565b611870565b34801561047957600080fd5b5061048d610488366004611ce4565b611a82565b604080519889526020890197909752958701949094526060860192909252608085015260a0840152151560c0830152151560e082015261010001610175565b3480156104d857600080fd5b5061022f6104e7366004611ce4565b611b10565b3480156104f857600080fd5b50610501611b89565b6040516101759190611f45565b6004818154811061051e57600080fd5b906000526020600020906003020160009150905080600001805461054190611fc6565b80601f016020809104026020016040519081016040528092919081815260200182805461056d90611fc6565b80156105ba5780601f1061058f576101008083540402835291602001916105ba565b820191906000526020600020905b81548152906001019060200180831161059d57829003601f168201915b5050505050908060010154908060020154905083565b6003546001600160a01b031633146106035760405162461bcd60e51b81526004016105fa90612000565b60405180910390fd5b60008111801561061557506009548111155b6106315760405162461bcd60e51b81526004016105fa90612030565b6000818152600a60205260409020600681015460ff16156106895760405162461bcd60e51b815260206004820152601260248201527120b63932b0b23c903334b730b634bd32b21760711b60448201526064016105fa565b6000600354600160a01b900460ff1660028111156106a9576106a9611ed2565b146106c65760405162461bcd60e51b81526004016105fa9061205d565b80600501544210156107155760405162461bcd60e51b81526020600482015260186024820152772b37ba34b733903832b934b7b2103737ba1032b73232b21760411b60448201526064016105fa565b60068101805460ff1916600117905560028101546003820154600061073a82846120a1565b9050600060085482101561075d578160085461075691906120b4565b9050610761565b5060005b600061076d82866120a1565b905060085481111561077e57506008545b85600101548110610c5657600060001981805b600654811015610831576000600682815481106107b0576107b06120c7565b60009182526020808320909101546001600160a01b031680835260078e0190915260409091205490915060ff1660018114806107ed575060ff8116155b1561081c576001600160a01b0382166000908152600560205260409020548481111561081a578094508395505b505b50508080610829906120dd565b915050610791565b5060005b60065481101561096357600060068281548110610854576108546120c7565b60009182526020808320909101546001600160a01b031680835260078e0190915260409091205490915060ff166001811480610891575060ff8116155b1561094e576001600160a01b038216600090815260056020526040812054908190036108bf57505050610951565b6000888e60010154836108d291906120f6565b6108dc919061210d565b6001600160a01b0385166000908152600560205260408120805492935083929091906109099084906120b4565b90915550506001600160a01b038416600090815260056020526040812060010180548392906109399084906120a1565b90915550610949905081896120a1565b975050505b50505b8061095b816120dd565b915050610835565b508860010154831015610b13576000838a6001015461098291906120b4565b90506000198314610aaf576000600684815481106109a2576109a26120c7565b60009182526020808320909101546001600160a01b03168083526005909152604090912054909150821115610a3f5760405162461bcd60e51b815260206004820152603d60248201527f4c61726765737420617070726f7665722068617320696e73756666696369656e60448201527f7420636f6e747269627574696f6e20666f722072656d61696e6465722e00000060648201526084016105fa565b6001600160a01b03811660009081526005602052604081208054849290610a679084906120b4565b90915550506001600160a01b03811660009081526005602052604081206001018054849290610a979084906120a1565b90915550610aa7905082866120a1565b945050610b11565b60405162461bcd60e51b815260206004820152603160248201527f4e6f20617070726f76657220617661696c61626c6520666f722072656d61696e6044820152703232b9103234b9ba3934b13aba34b7b71760791b60648201526084016105fa565b505b88600101548314610b5e5760405162461bcd60e51b81526020600482015260156024820152742234b9ba3934b13aba32b21036b4b9b6b0ba31b41760591b60448201526064016105fa565b886001015460086000828254610b7491906120b4565b909155505060035460018a01546040516000926001600160a01b031691908381818185875af1925050503d8060008114610bca576040519150601f19603f3d011682016040523d82523d6000602084013e610bcf565b606091505b5050905080610c125760405162461bcd60e51b815260206004820152600f60248201526e151c985b9cd9995c8819985a5b1959608a1b60448201526064016105fa565b60408051600181524260208201528c917f9ba824282ad2989f4ba4e43447c9525dc8260e6c7af56d253be556bac0cd8cdb910160405180910390a250505050610ca4565b6003805460ff60a01b1916600160a11b1790556040805160008152426020820152815189927f9ba824282ad2989f4ba4e43447c9525dc8260e6c7af56d253be556bac0cd8cdb928290030190a25b50505050505050565b6003546001600160a01b03163314610cd75760405162461bcd60e51b81526004016105fa90612000565b81471015610d275760405162461bcd60e51b815260206004820152601e60248201527f496e73756666696369656e7420636f6e74726163742062616c616e63652e000060448201526064016105fa565b6000600354600160a01b900460ff166002811115610d4757610d47611ed2565b14610d645760405162461bcd60e51b81526004016105fa9061205d565b60095415610e2c576009546000908152600a60205260409020600681015460ff16610dd15760405162461bcd60e51b815260206004820152601f60248201527f50726576696f75732072657175657374206e6f742066696e616c697a65642e0060448201526064016105fa565b6006810154610100900460ff16610e2a5760405162461bcd60e51b815260206004820152601d60248201527f50726576696f75732070726f6f66206e6f74207375626d69747465642e00000060448201526064016105fa565b505b60098054906000610e3c836120dd565b90915550506009546000818152600a60205260409020908155600181018390554260048201819055610e6f9083906120a1565b6005820181905560068201805460ff19169055600060028301819055600383015581546040805186815260208101939093524290830152907f7c574d63ec06e812da5a420f06baf236f644586e68896b7bc239b0f9e361ac439060600160405180910390a2505050565b60006002600354600160a01b900460ff166002811115610efb57610efb611ed2565b03610f0857506001610f5c565b60015b6009548111610f5a576000818152600a60209081526040808320338452600781019092529091205460ff16600203610f47576001925050610f5a565b5080610f52816120dd565b915050610f0b565b505b80610f9f5760405162461bcd60e51b81526020600482015260136024820152722932b33ab732103737ba1030b63637bbb2b21760691b60448201526064016105fa565b3360009081526005602052604090205480610ff15760405162461bcd60e51b81526020600482015260126024820152712737ba3434b733903a37903932b33ab7321760711b60448201526064016105fa565b336000908152600560205260408120819055600880548392906110159084906120b4565b9091555050604051339082156108fc029083906000818181858888f19350505050158015611047573d6000803e3d6000fd5b5060405181815233907f358fe4192934d3bf28ae181feda1f4bd08ca67f5e2fad55582cce5eb67304ae9906020015b60405180910390a25050565b6006818154811061109257600080fd5b6000918252602090912001546001600160a01b0316905081565b6003546001600160a01b031633146110d65760405162461bcd60e51b81526004016105fa90612000565b6000600354600160a01b900460ff1660028111156110f6576110f6611ed2565b1461113d5760405162461bcd60e51b815260206004820152601760248201527621b0b6b830b4b3b71030b63932b0b23c9032b73232b21760491b60448201526064016105fa565b6008541561118d5760405162461bcd60e51b815260206004820152601c60248201527f416c6c2066756e6473206d7573742062652077697468647261776e2e0000000060448201526064016105fa565b600160095410156111ad576003805460ff60a01b1916600160a11b179055565b6003805460ff60a01b1916600160a01b179055565b600180546111cf90611fc6565b80601f01602080910402602001604051908101604052809291908181526020018280546111fb90611fc6565b80156112485780601f1061121d57610100808354040283529160200191611248565b820191906000526020600020905b81548152906001019060200180831161122b57829003601f168201915b505050505081565b6003546001600160a01b0316331461127a5760405162461bcd60e51b81526004016105fa90612000565b60045481106112c25760405162461bcd60e51b81526020600482015260146024820152732a34b2b9103237b2b9903737ba1032bc34b9ba1760611b60448201526064016105fa565b600480546112d2906001906120b4565b815481106112e2576112e26120c7565b906000526020600020906003020160048281548110611303576113036120c7565b600091825260209091206003909102018061131e8382612193565b506001828101549082015560029182015491015560048054806113435761134361226e565b600082815260208120600019909201916003830201906113638282611c8e565b50600060018201819055600290910155905550565b600080546111cf90611fc6565b6003546001600160a01b031633146113af5760405162461bcd60e51b81526004016105fa90612000565b6000811180156113c157506009548111155b6113dd5760405162461bcd60e51b81526004016105fa90612030565b6000818152600a60205260409020600681015460ff1661143c5760405162461bcd60e51b815260206004820152601a6024820152792932b8bab2b9ba103737ba103334b730b634bd32b2103cb2ba1760311b60448201526064016105fa565b6006810154610100900460ff16156114915760405162461bcd60e51b8152602060048201526018602482015277283937b7b31030b63932b0b23c9039bab136b4ba3a32b21760411b60448201526064016105fa565b60068101805461ff00191661010017905560405182907f824ddbbefe407d851761448beac466ca7e56672a30c317ab610c38e8caf95b77906110769042815260200190565b6003546001600160a01b031633146115005760405162461bcd60e51b81526004016105fa90612000565b600081116115505760405162461bcd60e51b815260206004820152601e60248201527f416d6f756e74206d7573742062652067726561746572207468616e20302e000060448201526064016105fa565b60408051606081018252838152602081018390526000918101829052600480546001810182559252805190916003027f8a35acfbc15ff81a39ae7d344fd709f28e8600b4aa8c65c6b64bfe7fe36bd19b019081906115ae9082612284565b50602082015181600101556040820151816002015550505050565b600080831180156115dc57506009548311155b6115f85760405162461bcd60e51b81526004016105fa90612338565b506000828152600a602090815260408083206001600160a01b038516845260070190915290205460ff165b92915050565b60008211801561163b57506009548211155b6116575760405162461bcd60e51b81526004016105fa90612030565b6000828152600a60205260409020600681015460ff16156116b75760405162461bcd60e51b815260206004820152601a6024820152792932b8bab2b9ba1030b63932b0b23c903334b730b634bd32b21760311b60448201526064016105fa565b3360009081526007602052604090205460ff166117065760405162461bcd60e51b815260206004820152600d60248201526c2737ba1030903130b1b5b2b91760991b60448201526064016105fa565b33600090815260078201602052604090205460ff16801561175a5760405162461bcd60e51b815260206004820152600e60248201526d20b63932b0b23c903b37ba32b21760911b60448201526064016105fa565b33600090815260056020526040902054806117b45760405162461bcd60e51b815260206004820152601a60248201527927379031b7b73a3934b13aba34b7b7103a37903bb2b4b3b43a1760311b60448201526064016105fa565b83156117f457808360020160008282546117ce91906120a1565b90915550503360009081526007840160205260409020805460ff1916600117905561182a565b8083600301600082825461180891906120a1565b90915550503360009081526007840160205260409020805460ff191660021790555b60408051851515815260208101839052339187917f95cc9f976446efcfb6e900247f2f77ed7879705426729c3bdccbef5c204a53f5910160405180910390a35050505050565b600034116118c05760405162461bcd60e51b815260206004820181905260248201527f4d7573742066756e6420616d6f756e742067726561746572207468616e20302e60448201526064016105fa565b60045481101561198c57600481815481106118dd576118dd6120c7565b906000526020600020906003020160010154341461192d5760405162461bcd60e51b815260206004820152600d60248201526c24b73b30b634b2103a34b2b91760991b60448201526064016105fa565b60048181548110611940576119406120c7565b60009182526020822060026003909202010180549161195e836120dd565b90915550503360009081526005602090815260408083208484526002019091529020805460ff191660011790555b3360009081526007602052604090205460ff16611a0057336000818152600760205260408120805460ff191660019081179091556006805491820181559091527ff652222313e28459528d920b65115c16c04f3efc82aaedc97be59f3f377c0d3f0180546001600160a01b03191690911790555b3360009081526005602052604081208054349290611a1f9084906120a1565b925050819055503460086000828254611a3891906120a1565b909155505060408051348152602081018390524281830152905133917f3168ca6b1e292883c0668008556fb887f7cce92bcd3c1c57c15a34dcdccd5892919081900360600190a250565b600080600080600080600080600089118015611aa057506009548911155b611abc5760405162461bcd60e51b81526004016105fa90612338565b50505060009586525050600a602052505060409091208054600182015460028301546003840154600485015460058601546006909601549497939650919490939192909160ff808216926101009092041690565b6006546000908210611b5b5760405162461bcd60e51b815260206004820152601460248201527324b73232bc1037baba1037b3103137bab732399760611b60448201526064016105fa565b60068281548110611b6e57611b6e6120c7565b6000918252602090912001546001600160a01b031692915050565b60606004805480602002602001604051908101604052809291908181526020016000905b82821015611c855783829060005260206000209060030201604051806060016040529081600082018054611be090611fc6565b80601f0160208091040260200160405190810160405280929190818152602001828054611c0c90611fc6565b8015611c595780601f10611c2e57610100808354040283529160200191611c59565b820191906000526020600020905b815481529060010190602001808311611c3c57829003601f168201915b505050505081526020016001820154815260200160028201548152505081526020019060010190611bad565b50505050905090565b508054611c9a90611fc6565b6000825580601f10611caa575050565b601f016020900490600052602060002090810190611cc89190611ccb565b50565b5b80821115611ce05760008155600101611ccc565b5090565b600060208284031215611cf657600080fd5b5035919050565b6000815180845260005b81811015611d2357602081850181015186830182015201611d07565b506000602082860101526020601f19601f83011685010191505092915050565b606081526000611d566060830186611cfd565b60208301949094525060400152919050565b60008060408385031215611d7b57600080fd5b50508035926020909101359150565b602081526000611d9d6020830184611cfd565b9392505050565b80356001600160a01b0381168114611dbb57600080fd5b919050565b600060208284031215611dd257600080fd5b611d9d82611da4565b634e487b7160e01b600052604160045260246000fd5b60008060408385031215611e0457600080fd5b823567ffffffffffffffff80821115611e1c57600080fd5b818501915085601f830112611e3057600080fd5b813581811115611e4257611e42611ddb565b604051601f8201601f19908116603f01168101908382118183101715611e6a57611e6a611ddb565b81604052828152886020848701011115611e8357600080fd5b826020860160208301376000602093820184015298969091013596505050505050565b60008060408385031215611eb957600080fd5b82359150611ec960208401611da4565b90509250929050565b634e487b7160e01b600052602160045260246000fd5b6020810160038310611f0a57634e487b7160e01b600052602160045260246000fd5b91905290565b60008060408385031215611f2357600080fd5b8235915060208301358015158114611f3a57600080fd5b809150509250929050565b60006020808301818452808551808352604092508286019150828160051b87010184880160005b83811015611fb857603f19898403018552815160608151818652611f9282870182611cfd565b838b0151878c015292890151958901959095525094870194925090860190600101611f6c565b509098975050505050505050565b600181811c90821680611fda57607f821691505b602082108103611ffa57634e487b7160e01b600052602260045260246000fd5b50919050565b6020808252601690820152752cb7ba9030b932903737ba103a34329037bbb732b91760511b604082015260600190565b60208082526013908201527224b73b30b634b2103932b8bab2b9ba1034b21760691b604082015260600190565b60208082526014908201527321b0b6b830b4b3b7103737ba1030b1ba34bb329760611b604082015260600190565b634e487b7160e01b600052601160045260246000fd5b808201808211156116235761162361208b565b818103818111156116235761162361208b565b634e487b7160e01b600052603260045260246000fd5b6000600182016120ef576120ef61208b565b5060010190565b80820281158282048414176116235761162361208b565b60008261212a57634e487b7160e01b600052601260045260246000fd5b500490565b601f82111561217957600081815260208120601f850160051c810160208610156121565750805b601f850160051c820191505b8181101561217557828155600101612162565b5050505b505050565b600019600383901b1c191660019190911b1790565b81810361219e575050565b6121a88254611fc6565b67ffffffffffffffff8111156121c0576121c0611ddb565b6121d4816121ce8454611fc6565b8461212f565b6000601f82116001811461220257600083156121f05750848201545b6121fa848261217e565b855550612267565b600085815260209020601f19841690600086815260209020845b8381101561223c578286015482556001958601959091019060200161221c565b508583101561225a5781850154600019600388901b60f8161c191681555b50505060018360011b0184555b5050505050565b634e487b7160e01b600052603160045260246000fd5b815167ffffffffffffffff81111561229e5761229e611ddb565b6122ac816121ce8454611fc6565b602080601f8311600181146122db57600084156122c95750858301515b6122d3858261217e565b865550612175565b600085815260208120601f198616915b8281101561230a578886015182559484019460019091019084016122eb565b50858210156123285787850151600019600388901b60f8161c191681555b5050505050600190811b01905550565b6020808252600b908201526a24b73b30b634b21034b21760a91b60408201526060019056fea264697066735822122051ca44f4a64442562d3a3ecc89953b53cc7c58180c49fe1082d4e983acd0444d64736f6c63430008140033",
  "linkReferences": {},
  "deployedLinkReferences": {}
}