{
  "_format": "hh-sol-artifact-1",
  "contractName": "Crowdfunding",
  "sourceName": "contracts/Crowdfunding.sol",
  "abi": [
    {
      "inputs": [
        {
          "internalType": "address",
          "name": "_owner",
          "type": "address"
        },
        {
          "internalType": "string",
          "name": "_name",
          "type": "string"
        },
        {
          "internalType": "string",
          "name": "_description",
          "type": "string"
        },
        {
          "internalType": "uint256",
          "name": "_goal",
          "type": "uint256"
        }
      ],
      "stateMutability": "nonpayable",
      "type": "constructor"
    },
    {
      "anonymous": false,
      "inputs": [
        {
          "indexed": true,
          "internalType": "address",
          "name": "backer",
          "type": "address"
        },
        {
          "indexed": false,
          "internalType": "uint256",
          "name": "amount",
          "type": "uint256"
        },
        {
          "indexed": false,
          "internalType": "uint256",
          "name": "tierIndex",
          "type": "uint256"
        },
        {
          "indexed": false,
          "internalType": "uint256",
          "name": "timestamp",
          "type": "uint256"
        }
      ],
      "name": "DonationReceived",
      "type": "event"
    },
    {
      "anonymous": false,
      "inputs": [
        {
          "indexed": true,
          "internalType": "uint256",
          "name": "requestId",
          "type": "uint256"
        },
        {
          "indexed": false,
          "internalType": "uint256",
          "name": "timestamp",
          "type": "uint256"
        }
      ],
      "name": "ProofSubmitted",
      "type": "event"
    },
    {
      "anonymous": false,
      "inputs": [
        {
          "indexed": true,
          "internalType": "address",
          "name": "backer",
          "type": "address"
        },
        {
          "indexed": false,
          "internalType": "uint256",
          "name": "amount",
          "type": "uint256"
        }
      ],
      "name": "RefundClaimed",
      "type": "event"
    },
    {
      "anonymous": false,
      "inputs": [
        {
          "indexed": true,
          "internalType": "uint256",
          "name": "requestId",
          "type": "uint256"
        },
        {
          "indexed": false,
          "internalType": "bool",
          "name": "success",
          "type": "bool"
        },
        {
          "indexed": false,
          "internalType": "uint256",
          "name": "timestamp",
          "type": "uint256"
        }
      ],
      "name": "WithdrawFinalized",
      "type": "event"
    },
    {
      "anonymous": false,
      "inputs": [
        {
          "indexed": true,
          "internalType": "uint256",
          "name": "requestId",
          "type": "uint256"
        },
        {
          "indexed": false,
          "internalType": "uint256",
          "name": "amount",
          "type": "uint256"
        },
        {
          "indexed": false,
          "internalType": "uint256",
          "name": "deadline",
          "type": "uint256"
        },
        {
          "indexed": false,
          "internalType": "uint256",
          "name": "timestamp",
          "type": "uint256"
        }
      ],
      "name": "WithdrawRequested",
      "type": "event"
    },
    {
      "anonymous": false,
      "inputs": [
        {
          "indexed": true,
          "internalType": "uint256",
          "name": "requestId",
          "type": "uint256"
        },
        {
          "indexed": true,
          "internalType": "address",
          "name": "voter",
          "type": "address"
        },
        {
          "indexed": false,
          "internalType": "bool",
          "name": "approve",
          "type": "bool"
        },
        {
          "indexed": false,
          "internalType": "uint256",
          "name": "weight",
          "type": "uint256"
        }
      ],
      "name": "WithdrawVoted",
      "type": "event"
    },
    {
      "inputs": [
        {
          "internalType": "string",
          "name": "_name",
          "type": "string"
        },
        {
          "internalType": "uint256",
          "name": "_amount",
          "type": "uint256"
        }
      ],
      "name": "addTier",
      "outputs": [],
      "stateMutability": "nonpayable",
      "type": "function"
    },
    {
      "inputs": [
        {
          "internalType": "address",
          "name": "",
          "type": "address"
        }
      ],
      "name": "backers",
      "outputs": [
        {
          "internalType": "uint256",
          "name": "totalContribution",
          "type": "uint256"
        }
      ],
      "stateMutability": "view",
      "type": "function"
    },
    {
      "inputs": [
        {
          "internalType": "uint256",
          "name": "",
          "type": "uint256"
        }
      ],
      "name": "backersList",
      "outputs": [
        {
          "internalType": "address",
          "name": "",
          "type": "address"
        }
      ],
      "stateMutability": "view",
      "type": "function"
    },
    {
      "inputs": [],
      "name": "campaign",
      "outputs": [
        {
          "internalType": "string",
          "name": "",
          "type": "string"
        }
      ],
      "stateMutability": "view",
      "type": "function"
    },
    {
      "inputs": [],
      "name": "claimRefund",
      "outputs": [],
      "stateMutability": "nonpayable",
      "type": "function"
    },
    {
      "inputs": [
        {
          "internalType": "uint256",
          "name": "_amount",
          "type": "uint256"
        },
        {
          "internalType": "uint256",
          "name": "_votingDuration",
          "type": "uint256"
        }
      ],
      "name": "createWithdrawRequest",
      "outputs": [],
      "stateMutability": "nonpayable",
      "type": "function"
    },
    {
      "inputs": [],
      "name": "description",
      "outputs": [
        {
          "internalType": "string",
          "name": "",
          "type": "string"
        }
      ],
      "stateMutability": "view",
      "type": "function"
    },
    {
      "inputs": [],
      "name": "endCampaign",
      "outputs": [],
      "stateMutability": "nonpayable",
      "type": "function"
    },
    {
      "inputs": [
        {
          "internalType": "uint256",
          "name": "_id",
          "type": "uint256"
        }
      ],
      "name": "finalizeWithdrawRequest",
      "outputs": [],
      "stateMutability": "nonpayable",
      "type": "function"
    },
    {
      "inputs": [
        {
          "internalType": "uint256",
          "name": "_tierIndex",
          "type": "uint256"
        }
      ],
      "name": "fund",
      "outputs": [],
      "stateMutability": "payable",
      "type": "function"
    },
    {
      "inputs": [
        {
          "internalType": "uint256",
          "name": "i",
          "type": "uint256"
        }
      ],
      "name": "getBackerAt",
      "outputs": [
        {
          "internalType": "address",
          "name": "",
          "type": "address"
        }
      ],
      "stateMutability": "view",
      "type": "function"
    },
    {
      "inputs": [],
      "name": "getBackersCount",
      "outputs": [
        {
          "internalType": "uint256",
          "name": "",
          "type": "uint256"
        }
      ],
      "stateMutability": "view",
      "type": "function"
    },
    {
      "inputs": [],
      "name": "getContractBalance",
      "outputs": [
        {
          "internalType": "uint256",
          "name": "",
          "type": "uint256"
        }
      ],
      "stateMutability": "view",
      "type": "function"
    },
    {
      "inputs": [],
      "name": "getTiers",
      "outputs": [
        {
          "components": [
            {
              "internalType": "string",
              "name": "name",
              "type": "string"
            },
            {
              "internalType": "uint256",
              "name": "amount",
              "type": "uint256"
            },
            {
              "internalType": "uint256",
              "name": "backers",
              "type": "uint256"
            }
          ],
          "internalType": "struct Crowdfunding.Tier[]",
          "name": "",
          "type": "tuple[]"
        }
      ],
      "stateMutability": "view",
      "type": "function"
    },
    {
      "inputs": [
        {
          "internalType": "uint256",
          "name": "_id",
          "type": "uint256"
        },
        {
          "internalType": "address",
          "name": "_voter",
          "type": "address"
        }
      ],
      "name": "getVote",
      "outputs": [
        {
          "internalType": "uint8",
          "name": "",
          "type": "uint8"
        }
      ],
      "stateMutability": "view",
      "type": "function"
    },
    {
      "inputs": [
        {
          "internalType": "uint256",
          "name": "_id",
          "type": "uint256"
        }
      ],
      "name": "getWithdrawRequest",
      "outputs": [
        {
          "internalType": "uint256",
          "name": "id",
          "type": "uint256"
        },
        {
          "internalType": "uint256",
          "name": "amount",
          "type": "uint256"
        },
        {
          "internalType": "uint256",
          "name": "yesWeight",
          "type": "uint256"
        },
        {
          "internalType": "uint256",
          "name": "noWeight",
          "type": "uint256"
        },
        {
          "internalType": "uint256",
          "name": "createdAt",
          "type": "uint256"
        },
        {
          "internalType": "uint256",
          "name": "votingDeadline",
          "type": "uint256"
        },
        {
          "internalType": "bool",
          "name": "finalized",
          "type": "bool"
        },
        {
          "internalType": "bool",
          "name": "proofSubmitted",
          "type": "bool"
        }
      ],
      "stateMutability": "view",
      "type": "function"
    },
    {
      "inputs": [],
      "name": "goal",
      "outputs": [
        {
          "internalType": "uint256",
          "name": "",
          "type": "uint256"
        }
      ],
      "stateMutability": "view",
      "type": "function"
    },
    {
      "inputs": [
        {
          "internalType": "address",
          "name": "",
          "type": "address"
        }
      ],
      "name": "isBacker",
      "outputs": [
        {
          "internalType": "bool",
          "name": "",
          "type": "bool"
        }
      ],
      "stateMutability": "view",
      "type": "function"
    },
    {
      "inputs": [],
      "name": "owner",
      "outputs": [
        {
          "internalType": "address",
          "name": "",
          "type": "address"
        }
      ],
      "stateMutability": "view",
      "type": "function"
    },
    {
      "inputs": [
        {
          "internalType": "uint256",
          "name": "_index",
          "type": "uint256"
        }
      ],
      "name": "removeTier",
      "outputs": [],
      "stateMutability": "nonpayable",
      "type": "function"
    },
    {
      "inputs": [],
      "name": "state",
      "outputs": [
        {
          "internalType": "enum Crowdfunding.CampaignState",
          "name": "",
          "type": "uint8"
        }
      ],
      "stateMutability": "view",
      "type": "function"
    },
    {
      "inputs": [
        {
          "internalType": "uint256",
          "name": "_id",
          "type": "uint256"
        }
      ],
      "name": "submitProof",
      "outputs": [],
      "stateMutability": "nonpayable",
      "type": "function"
    },
    {
      "inputs": [
        {
          "internalType": "uint256",
          "name": "",
          "type": "uint256"
        }
      ],
      "name": "tiers",
      "outputs": [
        {
          "internalType": "string",
          "name": "name",
          "type": "string"
        },
        {
          "internalType": "uint256",
          "name": "amount",
          "type": "uint256"
        },
        {
          "internalType": "uint256",
          "name": "backers",
          "type": "uint256"
        }
      ],
      "stateMutability": "view",
      "type": "function"
    },
    {
      "inputs": [],
      "name": "totalContributions",
      "outputs": [
        {
          "internalType": "uint256",
          "name": "",
          "type": "uint256"
        }
      ],
      "stateMutability": "view",
      "type": "function"
    },
    {
      "inputs": [
        {
          "internalType": "uint256",
          "name": "_id",
          "type": "uint256"
        },
        {
          "internalType": "bool",
          "name": "approve",
          "type": "bool"
        }
      ],
      "name": "voteWithdrawRequest",
      "outputs": [],
      "stateMutability": "nonpayable",
      "type": "function"
    },
    {
      "inputs": [],
      "name": "withdrawRequestCount",
      "outputs": [
        {
          "internalType": "uint256",
          "name": "",
          "type": "uint256"
        }
      ],
      "stateMutability": "view",
      "type": "function"
    }
  ],
  "bytecode": "0x60806040523480156200001157600080fd5b50604051620049183803806200491883398181016040528101906200003791906200030e565b8260009081620000489190620005ff565b5081600190816200005a9190620005ff565b508060028190555083600360006101000a81548173ffffffffffffffffffffffffffffffffffffffff021916908373ffffffffffffffffffffffffffffffffffffffff1602179055506000600360146101000a81548160ff02191690836002811115620000cc57620000cb620006e6565b5b02179055505050505062000715565b6000604051905090565b600080fd5b600080fd5b600073ffffffffffffffffffffffffffffffffffffffff82169050919050565b60006200011c82620000ef565b9050919050565b6200012e816200010f565b81146200013a57600080fd5b50565b6000815190506200014e8162000123565b92915050565b600080fd5b600080fd5b6000601f19601f8301169050919050565b7f4e487b7100000000000000000000000000000000000000000000000000000000600052604160045260246000fd5b620001a9826200015e565b810181811067ffffffffffffffff82111715620001cb57620001ca6200016f565b5b80604052505050565b6000620001e0620000db565b9050620001ee82826200019e565b919050565b600067ffffffffffffffff8211156200021157620002106200016f565b5b6200021c826200015e565b9050602081019050919050565b60005b83811015620002495780820151818401526020810190506200022c565b60008484015250505050565b60006200026c6200026684620001f3565b620001d4565b9050828152602081018484840111156200028b576200028a62000159565b5b6200029884828562000229565b509392505050565b600082601f830112620002b857620002b762000154565b5b8151620002ca84826020860162000255565b91505092915050565b6000819050919050565b620002e881620002d3565b8114620002f457600080fd5b50565b6000815190506200030881620002dd565b92915050565b600080600080608085870312156200032b576200032a620000e5565b5b60006200033b878288016200013d565b945050602085015167ffffffffffffffff8111156200035f576200035e620000ea565b5b6200036d87828801620002a0565b935050604085015167ffffffffffffffff811115620003915762000390620000ea565b5b6200039f87828801620002a0565b9250506060620003b287828801620002f7565b91505092959194509250565b600081519050919050565b7f4e487b7100000000000000000000000000000000000000000000000000000000600052602260045260246000fd5b600060028204905060018216806200041157607f821691505b602082108103620004275762000426620003c9565b5b50919050565b60008190508160005260206000209050919050565b60006020601f8301049050919050565b600082821b905092915050565b600060088302620004917fffffffffffffffffffffffffffffffffffffffffffffffffffffffffffffffff8262000452565b6200049d868362000452565b95508019841693508086168417925050509392505050565b6000819050919050565b6000620004e0620004da620004d484620002d3565b620004b5565b620002d3565b9050919050565b6000819050919050565b620004fc83620004bf565b620005146200050b82620004e7565b8484546200045f565b825550505050565b600090565b6200052b6200051c565b62000538818484620004f1565b505050565b5b8181101562000560576200055460008262000521565b6001810190506200053e565b5050565b601f821115620005af5762000579816200042d565b620005848462000442565b8101602085101562000594578190505b620005ac620005a38562000442565b8301826200053d565b50505b505050565b600082821c905092915050565b6000620005d460001984600802620005b4565b1980831691505092915050565b6000620005ef8383620005c1565b9150826002028217905092915050565b6200060a82620003be565b67ffffffffffffffff8111156200062657620006256200016f565b5b620006328254620003f8565b6200063f82828562000564565b600060209050601f83116001811462000677576000841562000662578287015190505b6200066e8582620005e1565b865550620006de565b601f19841662000687866200042d565b60005b82811015620006b1578489015182556001820191506020850194506020810190506200068a565b86831015620006d15784890151620006cd601f891682620005c1565b8355505b6001600288020188555050505b505050505050565b7f4e487b7100000000000000000000000000000000000000000000000000000000600052602160045260246000fd5b6141f380620007256000396000f3fe6080604052600436106101815760003560e01c8063869a5e2b116100d1578063bc3f931f1161008a578063ca1d209d11610064578063ca1d209d14610560578063cc0fe4a41461057c578063dc3724e6146105c0578063de170570146105fd57610181565b8063bc3f931f146104cf578063c19d93fb1461050c578063c4f276d41461053757610181565b8063869a5e2b146103d35780638da5cb5b146103fc5780638ece7b9114610427578063936009e914610450578063b5545a3c1461047b578063b85dfb801461049257610181565b80636f9fb98a1161013e578063746fcab711610118578063746fcab7146103175780637497211b14610354578063807f09711461037d578063811e539c146103a857610181565b80636f9fb98a146102aa57806371aac7f9146102d55780637284e416146102ec57610181565b8063039af9eb1461018657806337c08923146101c557806340193883146101f057806351d6e9b11461021b5780635461b7b5146102445780636d362e0a1461026d575b600080fd5b34801561019257600080fd5b506101ad60048036038101906101a89190612803565b610628565b6040516101bc939291906128cf565b60405180910390f35b3480156101d157600080fd5b506101da6106ea565b6040516101e7919061290d565b60405180910390f35b3480156101fc57600080fd5b506102056106f0565b604051610212919061290d565b60405180910390f35b34801561022757600080fd5b50610242600480360381019061023d9190612803565b6106f6565b005b34801561025057600080fd5b5061026b60048036038101906102669190612928565b610fdf565b005b34801561027957600080fd5b50610294600480360381019061028f9190612803565b6112cc565b6040516102a191906129a9565b60405180910390f35b3480156102b657600080fd5b506102bf61130b565b6040516102cc919061290d565b60405180910390f35b3480156102e157600080fd5b506102ea611313565b005b3480156102f857600080fd5b506103016114c7565b60405161030e91906129c4565b60405180910390f35b34801561032357600080fd5b5061033e60048036038101906103399190612a12565b611555565b60405161034b9190612a5a565b60405180910390f35b34801561036057600080fd5b5061037b60048036038101906103769190612803565b611575565b005b34801561038957600080fd5b5061039261171b565b60405161039f919061290d565b60405180910390f35b3480156103b457600080fd5b506103bd611721565b6040516103ca91906129c4565b60405180910390f35b3480156103df57600080fd5b506103fa60048036038101906103f59190612803565b6117af565b005b34801561040857600080fd5b506104116119a3565b60405161041e91906129a9565b60405180910390f35b34801561043357600080fd5b5061044e60048036038101906104499190612baa565b6119c9565b005b34801561045c57600080fd5b50610465611b13565b604051610472919061290d565b60405180910390f35b34801561048757600080fd5b50610490611b20565b005b34801561049e57600080fd5b506104b960048036038101906104b49190612a12565b611d18565b6040516104c6919061290d565b60405180910390f35b3480156104db57600080fd5b506104f660048036038101906104f19190612c06565b611d36565b6040516105039190612c62565b60405180910390f35b34801561051857600080fd5b50610521611df7565b60405161052e9190612cf4565b60405180910390f35b34801561054357600080fd5b5061055e60048036038101906105599190612d3b565b611e0a565b005b61057a60048036038101906105759190612803565b6121c3565b005b34801561058857600080fd5b506105a3600480360381019061059e9190612803565b6124f6565b6040516105b7989796959493929190612d7b565b60405180910390f35b3480156105cc57600080fd5b506105e760048036038101906105e29190612803565b6125c8565b6040516105f491906129a9565b60405180910390f35b34801561060957600080fd5b50610612612657565b60405161061f9190612f64565b60405180910390f35b6004818154811061063857600080fd5b906000526020600020906003020160009150905080600001805461065b90612fb5565b80601f016020809104026020016040519081016040528092919081815260200182805461068790612fb5565b80156106d45780601f106106a9576101008083540402835291602001916106d4565b820191906000526020600020905b8154815290600101906020018083116106b757829003601f168201915b5050505050908060010154908060020154905083565b60085481565b60025481565b60008111801561070857506009548111155b610747576040517f08c379a000000000000000000000000000000000000000000000000000000000815260040161073e90613032565b60405180910390fd5b6000600a600083815260200190815260200160002090508060060160009054906101000a900460ff16156107b0576040517f08c379a00000000000000000000000000000000000000000000000000000000081526004016107a79061309e565b60405180910390fd5b600060028111156107c4576107c3612c7d565b5b600360149054906101000a900460ff1660028111156107e6576107e5612c7d565b5b14610826576040517f08c379a000000000000000000000000000000000000000000000000000000000815260040161081d9061310a565b60405180910390fd5b806005015442101561086d576040517f08c379a000000000000000000000000000000000000000000000000000000000815260040161086490613176565b60405180910390fd5b60018160060160006101000a81548160ff02191690831515021790555060008160020154905060008260030154905060085481836108ab91906131c5565b11156108ec576040517f08c379a00000000000000000000000000000000000000000000000000000000081526004016108e390613245565b60405180910390fd5b600081836108fa91906131c5565b6008546109079190613265565b90506000818461091791906131c5565b905084600101548110610f70576000807fffffffffffffffffffffffffffffffffffffffffffffffffffffffffffffffff90506000805b600680549050811015610a785760006006828154811061097157610970613299565b5b9060005260206000200160009054906101000a900473ffffffffffffffffffffffffffffffffffffffff16905060008a60070160008373ffffffffffffffffffffffffffffffffffffffff1673ffffffffffffffffffffffffffffffffffffffff16815260200190815260200160002060009054906101000a900460ff16905060018160ff161480610a06575060008160ff16145b15610a63576000600560008473ffffffffffffffffffffffffffffffffffffffff1673ffffffffffffffffffffffffffffffffffffffff16815260200190815260200160002060000154905084811115610a61578094508395505b505b50508080610a70906132c8565b91505061094e565b5060005b600680549050811015610ca357600060068281548110610a9f57610a9e613299565b5b9060005260206000200160009054906101000a900473ffffffffffffffffffffffffffffffffffffffff16905060008a60070160008373ffffffffffffffffffffffffffffffffffffffff1673ffffffffffffffffffffffffffffffffffffffff16815260200190815260200160002060009054906101000a900460ff16905060018160ff161480610b34575060008160ff16145b15610c8d576000600560008473ffffffffffffffffffffffffffffffffffffffff1673ffffffffffffffffffffffffffffffffffffffff16815260200190815260200160002060000154905060008103610b9057505050610c90565b6000888d6001015483610ba39190613310565b610bad9190613381565b9050868503610c225780600560008673ffffffffffffffffffffffffffffffffffffffff1673ffffffffffffffffffffffffffffffffffffffff1681526020019081526020016000206000016000828254610c089190613265565b925050819055508088610c1b91906131c5565b9750610c8a565b80600560008673ffffffffffffffffffffffffffffffffffffffff1673ffffffffffffffffffffffffffffffffffffffff1681526020019081526020016000206000016000828254610c749190613265565b925050819055508088610c8791906131c5565b97505b50505b50505b8080610c9b906132c8565b915050610a7c565b508760010154831015610e5d576000838960010154610cc29190613265565b90507fffffffffffffffffffffffffffffffffffffffffffffffffffffffffffffffff8314610e2057600060068481548110610d0157610d00613299565b5b9060005260206000200160009054906101000a900473ffffffffffffffffffffffffffffffffffffffff16905081600560008373ffffffffffffffffffffffffffffffffffffffff1673ffffffffffffffffffffffffffffffffffffffff168152602001908152602001600020600001541015610db3576040517f08c379a0000000000000000000000000000000000000000000000000000000008152600401610daa90613424565b60405180910390fd5b81600560008373ffffffffffffffffffffffffffffffffffffffff1673ffffffffffffffffffffffffffffffffffffffff1681526020019081526020016000206000016000828254610e059190613265565b925050819055508185610e1891906131c5565b945050610e5b565b6040517f08c379a0000000000000000000000000000000000000000000000000000000008152600401610e52906134b6565b60405180910390fd5b505b87600101548314610ea3576040517f08c379a0000000000000000000000000000000000000000000000000000000008152600401610e9a90613522565b60405180910390fd5b876001015460086000828254610eb99190613265565b92505081905550600360009054906101000a900473ffffffffffffffffffffffffffffffffffffffff1673ffffffffffffffffffffffffffffffffffffffff166108fc89600101549081150290604051600060405180830381858888f19350505050158015610f2c573d6000803e3d6000fd5b50887f9ba824282ad2989f4ba4e43447c9525dc8260e6c7af56d253be556bac0cd8cdb600142604051610f60929190613542565b60405180910390a2505050610fd7565b6002600360146101000a81548160ff02191690836002811115610f9657610f95612c7d565b5b0217905550857f9ba824282ad2989f4ba4e43447c9525dc8260e6c7af56d253be556bac0cd8cdb600042604051610fce929190613542565b60405180910390a25b505050505050565b600360009054906101000a900473ffffffffffffffffffffffffffffffffffffffff1673ffffffffffffffffffffffffffffffffffffffff163373ffffffffffffffffffffffffffffffffffffffff161461106f576040517f08c379a0000000000000000000000000000000000000000000000000000000008152600401611066906135b7565b60405180910390fd5b814710156110b2576040517f08c379a00000000000000000000000000000000000000000000000000000000081526004016110a990613623565b60405180910390fd5b600060028111156110c6576110c5612c7d565b5b600360149054906101000a900460ff1660028111156110e8576110e7612c7d565b5b14611128576040517f08c379a000000000000000000000000000000000000000000000000000000000815260040161111f9061310a565b60405180910390fd5b600060095411156111f0576000600a6000600954815260200190815260200160002090508060060160009054906101000a900460ff1661119d576040517f08c379a00000000000000000000000000000000000000000000000000000000081526004016111949061368f565b60405180910390fd5b8060060160019054906101000a900460ff166111ee576040517f08c379a00000000000000000000000000000000000000000000000000000000081526004016111e5906136fb565b60405180910390fd5b505b60096000815480929190611203906132c8565b91905055506000600a6000600954815260200190815260200160002090506009548160000181905550828160010181905550428160040181905550814261124a91906131c5565b816005018190555060008160060160006101000a81548160ff021916908315150217905550600081600201819055506000816003018190555080600001547f7c574d63ec06e812da5a420f06baf236f644586e68896b7bc239b0f9e361ac43848360050154426040516112bf9392919061371b565b60405180910390a2505050565b600681815481106112dc57600080fd5b906000526020600020016000915054906101000a900473ffffffffffffffffffffffffffffffffffffffff1681565b600047905090565b600360009054906101000a900473ffffffffffffffffffffffffffffffffffffffff1673ffffffffffffffffffffffffffffffffffffffff163373ffffffffffffffffffffffffffffffffffffffff16146113a3576040517f08c379a000000000000000000000000000000000000000000000000000000000815260040161139a906135b7565b60405180910390fd5b600060028111156113b7576113b6612c7d565b5b600360149054906101000a900460ff1660028111156113d9576113d8612c7d565b5b14611419576040517f08c379a00000000000000000000000000000000000000000000000000000000081526004016114109061379e565b60405180910390fd5b60006008541461145e576040517f08c379a00000000000000000000000000000000000000000000000000000000081526004016114559061380a565b60405180910390fd5b60016009541015611499576002600360146101000a81548160ff0219169083600281111561148f5761148e612c7d565b5b02179055506114c5565b6001600360146101000a81548160ff021916908360028111156114bf576114be612c7d565b5b02179055505b565b600180546114d490612fb5565b80601f016020809104026020016040519081016040528092919081815260200182805461150090612fb5565b801561154d5780601f106115225761010080835404028352916020019161154d565b820191906000526020600020905b81548152906001019060200180831161153057829003601f168201915b505050505081565b60076020528060005260406000206000915054906101000a900460ff1681565b600360009054906101000a900473ffffffffffffffffffffffffffffffffffffffff1673ffffffffffffffffffffffffffffffffffffffff163373ffffffffffffffffffffffffffffffffffffffff1614611605576040517f08c379a00000000000000000000000000000000000000000000000000000000081526004016115fc906135b7565b60405180910390fd5b600480549050811061164c576040517f08c379a000000000000000000000000000000000000000000000000000000000815260040161164390613876565b60405180910390fd5b600460016004805490506116609190613265565b8154811061167157611670613299565b5b90600052602060002090600302016004828154811061169357611692613299565b5b9060005260206000209060030201600082018160000190816116b59190613a58565b50600182015481600101556002820154816002015590505060048054806116df576116de613b40565b5b600190038181906000526020600020906003020160008082016000611704919061275c565b600182016000905560028201600090555050905550565b60095481565b6000805461172e90612fb5565b80601f016020809104026020016040519081016040528092919081815260200182805461175a90612fb5565b80156117a75780601f1061177c576101008083540402835291602001916117a7565b820191906000526020600020905b81548152906001019060200180831161178a57829003601f168201915b505050505081565b600360009054906101000a900473ffffffffffffffffffffffffffffffffffffffff1673ffffffffffffffffffffffffffffffffffffffff163373ffffffffffffffffffffffffffffffffffffffff161461183f576040517f08c379a0000000000000000000000000000000000000000000000000000000008152600401611836906135b7565b60405180910390fd5b60008111801561185157506009548111155b611890576040517f08c379a000000000000000000000000000000000000000000000000000000000815260040161188790613032565b60405180910390fd5b6000600a600083815260200190815260200160002090508060060160009054906101000a900460ff166118f8576040517f08c379a00000000000000000000000000000000000000000000000000000000081526004016118ef90613bbb565b60405180910390fd5b8060060160019054906101000a900460ff161561194a576040517f08c379a000000000000000000000000000000000000000000000000000000000815260040161194190613c27565b60405180910390fd5b60018160060160016101000a81548160ff021916908315150217905550817f824ddbbefe407d851761448beac466ca7e56672a30c317ab610c38e8caf95b7742604051611997919061290d565b60405180910390a25050565b600360009054906101000a900473ffffffffffffffffffffffffffffffffffffffff1681565b600360009054906101000a900473ffffffffffffffffffffffffffffffffffffffff1673ffffffffffffffffffffffffffffffffffffffff163373ffffffffffffffffffffffffffffffffffffffff1614611a59576040517f08c379a0000000000000000000000000000000000000000000000000000000008152600401611a50906135b7565b60405180910390fd5b60008111611a9c576040517f08c379a0000000000000000000000000000000000000000000000000000000008152600401611a9390613c93565b60405180910390fd5b60046040518060600160405280848152602001838152602001600081525090806001815401808255809150506001900390600052602060002090600302016000909190919091506000820151816000019081611af89190613cb3565b50602082015181600101556040820151816002015550505050565b6000600680549050905090565b600280811115611b3357611b32612c7d565b5b600360149054906101000a900460ff166002811115611b5557611b54612c7d565b5b14611b95576040517f08c379a0000000000000000000000000000000000000000000000000000000008152600401611b8c90613dd1565b60405180910390fd5b6000600560003373ffffffffffffffffffffffffffffffffffffffff1673ffffffffffffffffffffffffffffffffffffffff16815260200190815260200160002060000154905060008111611c1f576040517f08c379a0000000000000000000000000000000000000000000000000000000008152600401611c1690613e3d565b60405180910390fd5b6000600560003373ffffffffffffffffffffffffffffffffffffffff1673ffffffffffffffffffffffffffffffffffffffff168152602001908152602001600020600001819055508060086000828254611c799190613265565b925050819055503373ffffffffffffffffffffffffffffffffffffffff166108fc829081150290604051600060405180830381858888f19350505050158015611cc6573d6000803e3d6000fd5b503373ffffffffffffffffffffffffffffffffffffffff167f358fe4192934d3bf28ae181feda1f4bd08ca67f5e2fad55582cce5eb67304ae982604051611d0d919061290d565b60405180910390a250565b60056020528060005260406000206000915090508060000154905081565b60008083118015611d4957506009548311155b611d88576040517f08c379a0000000000000000000000000000000000000000000000000000000008152600401611d7f90613ea9565b60405180910390fd5b6000600a600085815260200190815260200160002090508060070160008473ffffffffffffffffffffffffffffffffffffffff1673ffffffffffffffffffffffffffffffffffffffff16815260200190815260200160002060009054906101000a900460ff1691505092915050565b600360149054906101000a900460ff1681565b600082118015611e1c57506009548211155b611e5b576040517f08c379a0000000000000000000000000000000000000000000000000000000008152600401611e5290613032565b60405180910390fd5b6000600a600084815260200190815260200160002090508060060160009054906101000a900460ff1615611ec4576040517f08c379a0000000000000000000000000000000000000000000000000000000008152600401611ebb90613f15565b60405180910390fd5b600760003373ffffffffffffffffffffffffffffffffffffffff1673ffffffffffffffffffffffffffffffffffffffff16815260200190815260200160002060009054906101000a900460ff16611f50576040517f08c379a0000000000000000000000000000000000000000000000000000000008152600401611f4790613f81565b60405180910390fd5b60008160070160003373ffffffffffffffffffffffffffffffffffffffff1673ffffffffffffffffffffffffffffffffffffffff16815260200190815260200160002060009054906101000a900460ff16905060008160ff1614611fe9576040517f08c379a0000000000000000000000000000000000000000000000000000000008152600401611fe090613fed565b60405180910390fd5b6000600560003373ffffffffffffffffffffffffffffffffffffffff1673ffffffffffffffffffffffffffffffffffffffff16815260200190815260200160002060000154905060008111612073576040517f08c379a000000000000000000000000000000000000000000000000000000000815260040161206a90614059565b60405180910390fd5b83156120f4578083600201600082825461208d91906131c5565b9250508190555060018360070160003373ffffffffffffffffffffffffffffffffffffffff1673ffffffffffffffffffffffffffffffffffffffff16815260200190815260200160002060006101000a81548160ff021916908360ff16021790555061216b565b8083600301600082825461210891906131c5565b9250508190555060028360070160003373ffffffffffffffffffffffffffffffffffffffff1673ffffffffffffffffffffffffffffffffffffffff16815260200190815260200160002060006101000a81548160ff021916908360ff1602179055505b3373ffffffffffffffffffffffffffffffffffffffff16857f95cc9f976446efcfb6e900247f2f77ed7879705426729c3bdccbef5c204a53f586846040516121b4929190613542565b60405180910390a35050505050565b60003411612206576040517f08c379a00000000000000000000000000000000000000000000000000000000081526004016121fd906140c5565b60405180910390fd5b600480549050811015612322576004818154811061222757612226613299565b5b906000526020600020906003020160010154341461227a576040517f08c379a000000000000000000000000000000000000000000000000000000000815260040161227190614131565b60405180910390fd5b6004818154811061228e5761228d613299565b5b906000526020600020906003020160020160008154809291906122b0906132c8565b91905055506001600560003373ffffffffffffffffffffffffffffffffffffffff1673ffffffffffffffffffffffffffffffffffffffff168152602001908152602001600020600101600083815260200190815260200160002060006101000a81548160ff0219169083151502179055505b600760003373ffffffffffffffffffffffffffffffffffffffff1673ffffffffffffffffffffffffffffffffffffffff16815260200190815260200160002060009054906101000a900460ff1661242f576001600760003373ffffffffffffffffffffffffffffffffffffffff1673ffffffffffffffffffffffffffffffffffffffff16815260200190815260200160002060006101000a81548160ff0219169083151502179055506006339080600181540180825580915050600190039060005260206000200160009091909190916101000a81548173ffffffffffffffffffffffffffffffffffffffff021916908373ffffffffffffffffffffffffffffffffffffffff1602179055505b34600560003373ffffffffffffffffffffffffffffffffffffffff1673ffffffffffffffffffffffffffffffffffffffff168152602001908152602001600020600001600082825461248191906131c5565b92505081905550346008600082825461249a91906131c5565b925050819055503373ffffffffffffffffffffffffffffffffffffffff167f3168ca6b1e292883c0668008556fb887f7cce92bcd3c1c57c15a34dcdccd58923483426040516124eb9392919061371b565b60405180910390a250565b60008060008060008060008060008911801561251457506009548911155b612553576040517f08c379a000000000000000000000000000000000000000000000000000000000815260040161254a90613ea9565b60405180910390fd5b6000600a60008b815260200190815260200160002090508060000154985080600101549750806002015496508060030154955080600401549450806005015493508060060160009054906101000a900460ff1692508060060160019054906101000a900460ff16915050919395975091939597565b60006006805490508210612611576040517f08c379a00000000000000000000000000000000000000000000000000000000081526004016126089061419d565b60405180910390fd5b6006828154811061262557612624613299565b5b9060005260206000200160009054906101000a900473ffffffffffffffffffffffffffffffffffffffff169050919050565b60606004805480602002602001604051908101604052809291908181526020016000905b8282101561275357838290600052602060002090600302016040518060600160405290816000820180546126ae90612fb5565b80601f01602080910402602001604051908101604052809291908181526020018280546126da90612fb5565b80156127275780601f106126fc57610100808354040283529160200191612727565b820191906000526020600020905b81548152906001019060200180831161270a57829003601f168201915b50505050508152602001600182015481526020016002820154815250508152602001906001019061267b565b50505050905090565b50805461276890612fb5565b6000825580601f1061277a5750612799565b601f016020900490600052602060002090810190612798919061279c565b5b50565b5b808211156127b557600081600090555060010161279d565b5090565b6000604051905090565b600080fd5b600080fd5b6000819050919050565b6127e0816127cd565b81146127eb57600080fd5b50565b6000813590506127fd816127d7565b92915050565b600060208284031215612819576128186127c3565b5b6000612827848285016127ee565b91505092915050565b600081519050919050565b600082825260208201905092915050565b60005b8381101561286a57808201518184015260208101905061284f565b60008484015250505050565b6000601f19601f8301169050919050565b600061289282612830565b61289c818561283b565b93506128ac81856020860161284c565b6128b581612876565b840191505092915050565b6128c9816127cd565b82525050565b600060608201905081810360008301526128e98186612887565b90506128f860208301856128c0565b61290560408301846128c0565b949350505050565b600060208201905061292260008301846128c0565b92915050565b6000806040838503121561293f5761293e6127c3565b5b600061294d858286016127ee565b925050602061295e858286016127ee565b9150509250929050565b600073ffffffffffffffffffffffffffffffffffffffff82169050919050565b600061299382612968565b9050919050565b6129a381612988565b82525050565b60006020820190506129be600083018461299a565b92915050565b600060208201905081810360008301526129de8184612887565b905092915050565b6129ef81612988565b81146129fa57600080fd5b50565b600081359050612a0c816129e6565b92915050565b600060208284031215612a2857612a276127c3565b5b6000612a36848285016129fd565b91505092915050565b60008115159050919050565b612a5481612a3f565b82525050565b6000602082019050612a6f6000830184612a4b565b92915050565b600080fd5b600080fd5b7f4e487b7100000000000000000000000000000000000000000000000000000000600052604160045260246000fd5b612ab782612876565b810181811067ffffffffffffffff82111715612ad657612ad5612a7f565b5b80604052505050565b6000612ae96127b9565b9050612af58282612aae565b919050565b600067ffffffffffffffff821115612b1557612b14612a7f565b5b612b1e82612876565b9050602081019050919050565b82818337600083830152505050565b6000612b4d612b4884612afa565b612adf565b905082815260208101848484011115612b6957612b68612a7a565b5b612b74848285612b2b565b509392505050565b600082601f830112612b9157612b90612a75565b5b8135612ba1848260208601612b3a565b91505092915050565b60008060408385031215612bc157612bc06127c3565b5b600083013567ffffffffffffffff811115612bdf57612bde6127c8565b5b612beb85828601612b7c565b9250506020612bfc858286016127ee565b9150509250929050565b60008060408385031215612c1d57612c1c6127c3565b5b6000612c2b858286016127ee565b9250506020612c3c858286016129fd565b9150509250929050565b600060ff82169050919050565b612c5c81612c46565b82525050565b6000602082019050612c776000830184612c53565b92915050565b7f4e487b7100000000000000000000000000000000000000000000000000000000600052602160045260246000fd5b60038110612cbd57612cbc612c7d565b5b50565b6000819050612cce82612cac565b919050565b6000612cde82612cc0565b9050919050565b612cee81612cd3565b82525050565b6000602082019050612d096000830184612ce5565b92915050565b612d1881612a3f565b8114612d2357600080fd5b50565b600081359050612d3581612d0f565b92915050565b60008060408385031215612d5257612d516127c3565b5b6000612d60858286016127ee565b9250506020612d7185828601612d26565b9150509250929050565b600061010082019050612d91600083018b6128c0565b612d9e602083018a6128c0565b612dab60408301896128c0565b612db860608301886128c0565b612dc560808301876128c0565b612dd260a08301866128c0565b612ddf60c0830185612a4b565b612dec60e0830184612a4b565b9998505050505050505050565b600081519050919050565b600082825260208201905092915050565b6000819050602082019050919050565b600082825260208201905092915050565b6000612e4182612830565b612e4b8185612e25565b9350612e5b81856020860161284c565b612e6481612876565b840191505092915050565b612e78816127cd565b82525050565b60006060830160008301518482036000860152612e9b8282612e36565b9150506020830151612eb06020860182612e6f565b506040830151612ec36040860182612e6f565b508091505092915050565b6000612eda8383612e7e565b905092915050565b6000602082019050919050565b6000612efa82612df9565b612f048185612e04565b935083602082028501612f1685612e15565b8060005b85811015612f525784840389528151612f338582612ece565b9450612f3e83612ee2565b925060208a01995050600181019050612f1a565b50829750879550505050505092915050565b60006020820190508181036000830152612f7e8184612eef565b905092915050565b7f4e487b7100000000000000000000000000000000000000000000000000000000600052602260045260246000fd5b60006002820490506001821680612fcd57607f821691505b602082108103612fe057612fdf612f86565b5b50919050565b7f496e76616c696420726571756573742069642e00000000000000000000000000600082015250565b600061301c60138361283b565b915061302782612fe6565b602082019050919050565b6000602082019050818103600083015261304b8161300f565b9050919050565b7f416c72656164792066696e616c697a65642e0000000000000000000000000000600082015250565b600061308860128361283b565b915061309382613052565b602082019050919050565b600060208201905081810360008301526130b78161307b565b9050919050565b7f43616d706169676e206e6f74206163746976652e000000000000000000000000600082015250565b60006130f460148361283b565b91506130ff826130be565b602082019050919050565b60006020820190508181036000830152613123816130e7565b9050919050565b7f566f74696e6720706572696f64206e6f7420656e6465642e0000000000000000600082015250565b600061316060188361283b565b915061316b8261312a565b602082019050919050565b6000602082019050818103600083015261318f81613153565b9050919050565b7f4e487b7100000000000000000000000000000000000000000000000000000000600052601160045260246000fd5b60006131d0826127cd565b91506131db836127cd565b92508282019050808211156131f3576131f2613196565b5b92915050565b7f496e76616c696420776569676874732e00000000000000000000000000000000600082015250565b600061322f60108361283b565b915061323a826131f9565b602082019050919050565b6000602082019050818103600083015261325e81613222565b9050919050565b6000613270826127cd565b915061327b836127cd565b925082820390508181111561329357613292613196565b5b92915050565b7f4e487b7100000000000000000000000000000000000000000000000000000000600052603260045260246000fd5b60006132d3826127cd565b91507fffffffffffffffffffffffffffffffffffffffffffffffffffffffffffffffff820361330557613304613196565b5b600182019050919050565b600061331b826127cd565b9150613326836127cd565b9250828202613334816127cd565b9150828204841483151761334b5761334a613196565b5b5092915050565b7f4e487b7100000000000000000000000000000000000000000000000000000000600052601260045260246000fd5b600061338c826127cd565b9150613397836127cd565b9250826133a7576133a6613352565b5b828204905092915050565b7f4c61726765737420617070726f7665722068617320696e73756666696369656e60008201527f7420636f6e747269627574696f6e20666f722072656d61696e6465722e000000602082015250565b600061340e603d8361283b565b9150613419826133b2565b604082019050919050565b6000602082019050818103600083015261343d81613401565b9050919050565b7f4e6f20617070726f76657220617661696c61626c6520666f722072656d61696e60008201527f64657220646973747269627574696f6e2e000000000000000000000000000000602082015250565b60006134a060318361283b565b91506134ab82613444565b604082019050919050565b600060208201905081810360008301526134cf81613493565b9050919050565b7f4469737472696275746564206d69736d617463682e0000000000000000000000600082015250565b600061350c60158361283b565b9150613517826134d6565b602082019050919050565b6000602082019050818103600083015261353b816134ff565b9050919050565b60006040820190506135576000830185612a4b565b61356460208301846128c0565b9392505050565b7f596f7520617265206e6f7420746865206f776e65722e00000000000000000000600082015250565b60006135a160168361283b565b91506135ac8261356b565b602082019050919050565b600060208201905081810360008301526135d081613594565b9050919050565b7f496e73756666696369656e7420636f6e74726163742062616c616e63652e0000600082015250565b600061360d601e8361283b565b9150613618826135d7565b602082019050919050565b6000602082019050818103600083015261363c81613600565b9050919050565b7f50726576696f75732072657175657374206e6f742066696e616c697a65642e00600082015250565b6000613679601f8361283b565b915061368482613643565b602082019050919050565b600060208201905081810360008301526136a88161366c565b9050919050565b7f50726576696f75732070726f6f66206e6f74207375626d69747465642e000000600082015250565b60006136e5601d8361283b565b91506136f0826136af565b602082019050919050565b60006020820190508181036000830152613714816136d8565b9050919050565b600060608201905061373060008301866128c0565b61373d60208301856128c0565b61374a60408301846128c0565b949350505050565b7f43616d706169676e20616c726561647920656e6465642e000000000000000000600082015250565b600061378860178361283b565b915061379382613752565b602082019050919050565b600060208201905081810360008301526137b78161377b565b9050919050565b7f416c6c2066756e6473206d7573742062652077697468647261776e2e00000000600082015250565b60006137f4601c8361283b565b91506137ff826137be565b602082019050919050565b60006020820190508181036000830152613823816137e7565b9050919050565b7f5469657220646f6573206e6f742065786973742e000000000000000000000000600082015250565b600061386060148361283b565b915061386b8261382a565b602082019050919050565b6000602082019050818103600083015261388f81613853565b9050919050565b6000815490506138a581612fb5565b9050919050565b60008190508160005260206000209050919050565b60006020601f8301049050919050565b600082821b905092915050565b60006008830261390e7fffffffffffffffffffffffffffffffffffffffffffffffffffffffffffffffff826138d1565b61391886836138d1565b95508019841693508086168417925050509392505050565b6000819050919050565b600061395561395061394b846127cd565b613930565b6127cd565b9050919050565b6000819050919050565b61396f8361393a565b61398361397b8261395c565b8484546138de565b825550505050565b600090565b61399861398b565b6139a3818484613966565b505050565b5b818110156139c7576139bc600082613990565b6001810190506139a9565b5050565b601f821115613a0c576139dd816138ac565b6139e6846138c1565b810160208510156139f5578190505b613a09613a01856138c1565b8301826139a8565b50505b505050565b600082821c905092915050565b6000613a2f60001984600802613a11565b1980831691505092915050565b6000613a488383613a1e565b9150826002028217905092915050565b818103613a66575050613b3e565b613a6f82613896565b67ffffffffffffffff811115613a8857613a87612a7f565b5b613a928254612fb5565b613a9d8282856139cb565b6000601f831160018114613acc5760008415613aba578287015490505b613ac48582613a3c565b865550613b37565b601f198416613ada876138ac565b9650613ae5866138ac565b60005b82811015613b0d57848901548255600182019150600185019450602081019050613ae8565b86831015613b2a5784890154613b26601f891682613a1e565b8355505b6001600288020188555050505b5050505050505b565b7f4e487b7100000000000000000000000000000000000000000000000000000000600052603160045260246000fd5b7f52657175657374206e6f742066696e616c697a6564207965742e000000000000600082015250565b6000613ba5601a8361283b565b9150613bb082613b6f565b602082019050919050565b60006020820190508181036000830152613bd481613b98565b9050919050565b7f50726f6f6620616c7265616479207375626d69747465642e0000000000000000600082015250565b6000613c1160188361283b565b9150613c1c82613bdb565b602082019050919050565b60006020820190508181036000830152613c4081613c04565b9050919050565b7f416d6f756e74206d7573742062652067726561746572207468616e20302e0000600082015250565b6000613c7d601e8361283b565b9150613c8882613c47565b602082019050919050565b60006020820190508181036000830152613cac81613c70565b9050919050565b613cbc82612830565b67ffffffffffffffff811115613cd557613cd4612a7f565b5b613cdf8254612fb5565b613cea8282856139cb565b600060209050601f831160018114613d1d5760008415613d0b578287015190505b613d158582613a3c565b865550613d7d565b601f198416613d2b866138ac565b60005b82811015613d5357848901518255600182019150602085019450602081019050613d2e565b86831015613d705784890151613d6c601f891682613a1e565b8355505b6001600288020188555050505b505050505050565b7f526566756e6473206e6f7420616c6c6f7765642e000000000000000000000000600082015250565b6000613dbb60148361283b565b9150613dc682613d85565b602082019050919050565b60006020820190508181036000830152613dea81613dae565b9050919050565b7f4e6f7468696e6720746f20726566756e642e0000000000000000000000000000600082015250565b6000613e2760128361283b565b9150613e3282613df1565b602082019050919050565b60006020820190508181036000830152613e5681613e1a565b9050919050565b7f496e76616c69642069642e000000000000000000000000000000000000000000600082015250565b6000613e93600b8361283b565b9150613e9e82613e5d565b602082019050919050565b60006020820190508181036000830152613ec281613e86565b9050919050565b7f5265717565737420616c72656164792066696e616c697a65642e000000000000600082015250565b6000613eff601a8361283b565b9150613f0a82613ec9565b602082019050919050565b60006020820190508181036000830152613f2e81613ef2565b9050919050565b7f4e6f742061206261636b65722e00000000000000000000000000000000000000600082015250565b6000613f6b600d8361283b565b9150613f7682613f35565b602082019050919050565b60006020820190508181036000830152613f9a81613f5e565b9050919050565b7f416c726561647920766f7465642e000000000000000000000000000000000000600082015250565b6000613fd7600e8361283b565b9150613fe282613fa1565b602082019050919050565b6000602082019050818103600083015261400681613fca565b9050919050565b7f4e6f20636f6e747269627574696f6e20746f207765696768742e000000000000600082015250565b6000614043601a8361283b565b915061404e8261400d565b602082019050919050565b6000602082019050818103600083015261407281614036565b9050919050565b7f4d7573742066756e6420616d6f756e742067726561746572207468616e20302e600082015250565b60006140af60208361283b565b91506140ba82614079565b602082019050919050565b600060208201905081810360008301526140de816140a2565b9050919050565b7f496e76616c696420746965722e00000000000000000000000000000000000000600082015250565b600061411b600d8361283b565b9150614126826140e5565b602082019050919050565b6000602082019050818103600083015261414a8161410e565b9050919050565b7f496e646578206f7574206f6620626f756e64732e000000000000000000000000600082015250565b600061418760148361283b565b915061419282614151565b602082019050919050565b600060208201905081810360008301526141b68161417a565b905091905056fea26469706673582212207ae910e27a0f733eab218b450e9dc913322157407778bcdf7738e8f4c0d3d3ad64736f6c63430008140033",
  "linkReferences": {},
  "deployedLinkReferences": {}
}